:0300000001fffffe
:0300010001fffffd
:0300020001fffffc
:0300030001fffffb
:0300040001fffffa
:0300050001fffff9
:0300060001fffff8
:0300070001fffff7
:0300080001fffef7
:0300090001fffef6
:03000a0001fffef5
:03000b0001fffef4
:03000c0001fffef3
:03000d0001fffdf3
:03000e0001fffdf2
:03000f0001fffdf1
:0300100001fffdf0
:0300110001fffcf0
:0300120001fffcef
:0300130001fffcee
:0300140001fffbee
:0300150001fffbed
:0300160001fffaed
:0300170001fffaec
:0300180001fff9ec
:0300190001fff9eb
:03001a0001fff8eb
:03001b0001fff8ea
:03001c0001fff7ea
:03001d0001fff7e9
:03001e0001fff6e9
:03001f0001fff6e8
:0300200001fff5e8
:0300210001fff5e7
:0300220001fff4e7
:0300230001fff3e7
:0300240001fff3e6
:0300250001fff2e6
:0300260001fff1e6
:0300270001fff0e6
:0300280001fff0e5
:0300290001ffefe5
:03002a0001ffeee5
:03002b0001ffede5
:03002c0001ffece5
:03002d0001ffebe5
:03002e0001ffebe4
:03002f0001ffeae4
:0300300001ffe9e4
:0300310001ffe8e4
:0300320001ffe7e4
:0300330001ffe6e4
:0300340001ffe5e4
:0300350001ffe4e4
:0300360001ffe3e4
:0300370001ffe2e4
:0300380001ffe1e4
:0300390001ffe0e4
:03003a0001ffdfe4
:03003b0001ffdde5
:03003c0001ffdce5
:03003d0001ffdbe5
:03003e0001ffdae5
:03003f0001ffd9e5
:0300400001ffd8e5
:0300410001ffd6e6
:0300420001ffd5e6
:0300430001ffd4e6
:0300440001ffd2e7
:0300450001ffd1e7
:0300460001ffd0e7
:0300470001ffcee8
:0300480001ffcde8
:0300490001ffcce8
:03004a0001ffcae9
:03004b0001ffc9e9
:03004c0001ffc7ea
:03004d0001ffc6ea
:03004e0001ffc4eb
:03004f0001ffc3eb
:0300500001ffc1ec
:0300510001ffc0ec
:0300520001ffbeed
:0300530001ffbded
:0300540001ffbbee
:0300550001ffb9ef
:0300560001ffb8ef
:0300570001ffb6f0
:0300580001ffb4f1
:0300590001ffb3f1
:03005a0001ffb1f2
:03005b0001ffaff3
:03005c0001ffadf4
:03005d0001ffacf4
:03005e0001ffaaf5
:03005f0001ffa8f6
:0300600001ffa6f7
:0300610001ffa4f8
:0300620001ffa2f9
:0300630001ffa1f9
:0300640001ff9ffa
:0300650001ff9dfb
:0300660001ff9bfc
:0300670001ff99fd
:0300680001ff97fe
:0300690001ff95ff
:03006a0001ff9300
:03006b0001ff9101
:03006c0001ff8f02
:03006d0001ff8d03
:03006e0001ff8a05
:03006f0001ff8806
:0300700001ff8607
:0300710001ff8408
:0300720001ff8209
:0300730001ff800a
:0300740001ff7d0c
:0300750001ff7b0d
:0300760001ff790e
:0300770001ff770f
:0300780001ff7411
:0300790001ff7212
:03007a0001ff7013
:03007b0001ff6d15
:03007c0001ff6b16
:03007d0001ff6818
:03007e0001ff6619
:03007f0001ff641a
:0300800001ff611c
:0300810001ff5f1d
:0300820001ff5c1f
:0300830001ff5a20
:0300840001ff5722
:0300850001ff5523
:0300860001ff5225
:0300870001ff4f27
:0300880001ff4d28
:0300890001ff4a2a
:03008a0001ff472c
:03008b0001ff452d
:03008c0001ff422f
:03008d0001ff3f31
:03008e0001ff3d32
:03008f0001ff3a34
:0300900001ff3736
:0300910001ff3438
:0300920001ff3239
:0300930001ff2f3b
:0300940001ff2c3d
:0300950001ff293f
:0300960001ff2641
:0300970001ff2343
:0300980001ff2045
:0300990001ff1d47
:03009a0001ff1a49
:03009b0001ff184a
:03009c0001ff154c
:03009d0001ff114f
:03009e0001ff0e51
:03009f0001ff0b53
:0300a00001ff0855
:0300a10001ff0557
:0300a20001ff0259
:0300a30001feff5c
:0300a40001fefc5e
:0300a50001fef960
:0300a60001fef563
:0300a70001fef265
:0300a80001feef67
:0300a90001feec69
:0300aa0001fee96b
:0300ab0001fee56e
:0300ac0001fee270
:0300ad0001fedf72
:0300ae0001fedb75
:0300af0001fed877
:0300b00001fed579
:0300b10001fed17c
:0300b20001fece7e
:0300b30001feca81
:0300b40001fec783
:0300b50001fec386
:0300b60001fec088
:0300b70001febc8b
:0300b80001feb98d
:0300b90001feb590
:0300ba0001feb292
:0300bb0001feae95
:0300bc0001feaa98
:0300bd0001fea79a
:0300be0001fea39d
:0300bf0001fea09f
:0300c00001fe9ca2
:0300c10001fe98a5
:0300c20001fe94a8
:0300c30001fe91aa
:0300c40001fe8dad
:0300c50001fe89b0
:0300c60001fe85b3
:0300c70001fe82b5
:0300c80001fe7eb8
:0300c90001fe7abb
:0300ca0001fe76be
:0300cb0001fe72c1
:0300cc0001fe6ec4
:0300cd0001fe6ac7
:0300ce0001fe66ca
:0300cf0001fe62cd
:0300d00001fe5ed0
:0300d10001fe5ad3
:0300d20001fe56d6
:0300d30001fe52d9
:0300d40001fe4edc
:0300d50001fe4adf
:0300d60001fe46e2
:0300d70001fe42e5
:0300d80001fe3ee8
:0300d90001fe39ec
:0300da0001fe35ef
:0300db0001fe31f2
:0300dc0001fe2df5
:0300dd0001fe29f8
:0300de0001fe24fc
:0300df0001fe20ff
:0300e00001fe1c02
:0300e10001fe1706
:0300e20001fe1309
:0300e30001fe0f0c
:0300e40001fe0a10
:0300e50001fe0613
:0300e60001fe0117
:0300e70001fdfd1b
:0300e80001fdf91e
:0300e90001fdf422
:0300ea0001fdf025
:0300eb0001fdeb29
:0300ec0001fde72c
:0300ed0001fde230
:0300ee0001fddd34
:0300ef0001fdd937
:0300f00001fdd43b
:0300f10001fdd03e
:0300f20001fdcb42
:0300f30001fdc646
:0300f40001fdc249
:0300f50001fdbd4d
:0300f60001fdb851
:0300f70001fdb355
:0300f80001fdaf58
:0300f90001fdaa5c
:0300fa0001fda560
:0300fb0001fda064
:0300fc0001fd9b68
:0300fd0001fd976b
:0300fe0001fd926f
:0300ff0001fd8d73
:0301000001fd8876
:0301010001fd837a
:0301020001fd7e7e
:0301030001fd7982
:0301040001fd7486
:0301050001fd6f8a
:0301060001fd6a8e
:0301070001fd6592
:0301080001fd6096
:0301090001fd5b9a
:03010a0001fd569e
:03010b0001fd51a2
:03010c0001fd4ba7
:03010d0001fd46ab
:03010e0001fd41af
:03010f0001fd3cb3
:0301100001fd37b7
:0301110001fd31bc
:0301120001fd2cc0
:0301130001fd27c4
:0301140001fd21c9
:0301150001fd1ccd
:0301160001fd17d1
:0301170001fd11d6
:0301180001fd0cda
:0301190001fd07de
:03011a0001fd01e3
:03011b0001fcfce8
:03011c0001fcf6ed
:03011d0001fcf1f1
:03011e0001fcebf6
:03011f0001fce6fa
:0301200001fce0ff
:0301210001fcdb03
:0301220001fcd508
:0301230001fcd00c
:0301240001fcca11
:0301250001fcc416
:0301260001fcbf1a
:0301270001fcb91f
:0301280001fcb324
:0301290001fcae28
:03012a0001fca82d
:03012b0001fca232
:03012c0001fc9d36
:03012d0001fc973b
:03012e0001fc9140
:03012f0001fc8b45
:0301300001fc854a
:0301310001fc7f4f
:0301320001fc7a53
:0301330001fc7458
:0301340001fc6e5d
:0301350001fc6862
:0301360001fc6267
:0301370001fc5c6c
:0301380001fc5671
:0301390001fc5076
:03013a0001fc4a7b
:03013b0001fc4480
:03013c0001fc3e85
:03013d0001fc388a
:03013e0001fc328f
:03013f0001fc2b95
:0301400001fc259a
:0301410001fc1f9f
:0301420001fc19a4
:0301430001fc13a9
:0301440001fc0dae
:0301450001fc06b4
:0301460001fc00b9
:0301470001fbfabf
:0301480001fbf3c5
:0301490001fbedca
:03014a0001fbe7cf
:03014b0001fbe0d5
:03014c0001fbdada
:03014d0001fbd4df
:03014e0001fbcde5
:03014f0001fbc7ea
:0301500001fbc0f0
:0301510001fbbaf5
:0301520001fbb3fb
:0301530001fbad00
:0301540001fba606
:0301550001fba00b
:0301560001fb9911
:0301570001fb9316
:0301580001fb8c1c
:0301590001fb8522
:03015a0001fb7f27
:03015b0001fb782d
:03015c0001fb7232
:03015d0001fb6b38
:03015e0001fb643e
:03015f0001fb5d44
:0301600001fb5749
:0301610001fb504f
:0301620001fb4955
:0301630001fb425b
:0301640001fb3b61
:0301650001fb3566
:0301660001fb2e6c
:0301670001fb2772
:0301680001fb2078
:0301690001fb197e
:03016a0001fb1284
:03016b0001fb0b8a
:03016c0001fb0490
:03016d0001fafd97
:03016e0001faf69d
:03016f0001faefa3
:0301700001fae8a9
:0301710001fae1af
:0301720001fadab5
:0301730001fad3bb
:0301740001facbc2
:0301750001fac4c8
:0301760001fabdce
:0301770001fab6d4
:0301780001faafda
:0301790001faa8e0
:03017a0001faa0e7
:03017b0001fa99ed
:03017c0001fa92f3
:03017d0001fa8afa
:03017e0001fa8300
:03017f0001fa7c06
:0301800001fa740d
:0301810001fa6d13
:0301820001fa6619
:0301830001fa5e20
:0301840001fa5726
:0301850001fa4f2d
:0301860001fa4833
:0301870001fa403a
:0301880001fa3940
:0301890001fa3147
:03018a0001fa2a4d
:03018b0001fa2254
:03018c0001fa1a5b
:03018d0001fa1361
:03018e0001fa0b68
:03018f0001fa046e
:0301900001f9fc76
:0301910001f9f47d
:0301920001f9ed83
:0301930001f9e58a
:0301940001f9dd91
:0301950001f9d598
:0301960001f9cd9f
:0301970001f9c6a5
:0301980001f9beac
:0301990001f9b6b3
:03019a0001f9aeba
:03019b0001f9a6c1
:03019c0001f99ec8
:03019d0001f996cf
:03019e0001f98fd5
:03019f0001f987dc
:0301a00001f97fe3
:0301a10001f977ea
:0301a20001f96ff1
:0301a30001f967f8
:0301a40001f95e00
:0301a50001f95607
:0301a60001f94e0e
:0301a70001f94615
:0301a80001f93e1c
:0301a90001f93623
:0301aa0001f92e2a
:0301ab0001f92631
:0301ac0001f91d39
:0301ad0001f91540
:0301ae0001f90d47
:0301af0001f9054e
:0301b00001f8fc57
:0301b10001f8f45e
:0301b20001f8ec65
:0301b30001f8e36d
:0301b40001f8db74
:0301b50001f8d37b
:0301b60001f8ca83
:0301b70001f8c28a
:0301b80001f8b992
:0301b90001f8b199
:0301ba0001f8a9a0
:0301bb0001f8a0a8
:0301bc0001f898af
:0301bd0001f88fb7
:0301be0001f886bf
:0301bf0001f87ec6
:0301c00001f875ce
:0301c10001f86dd5
:0301c20001f864dd
:0301c30001f85be5
:0301c40001f853ec
:0301c50001f84af4
:0301c60001f841fc
:0301c70001f83903
:0301c80001f8300b
:0301c90001f82713
:0301ca0001f81e1b
:0301cb0001f81622
:0301cc0001f80d2a
:0301cd0001f80432
:0301ce0001f7fb3b
:0301cf0001f7f243
:0301d00001f7e94b
:0301d10001f7e053
:0301d20001f7d85a
:0301d30001f7cf62
:0301d40001f7c66a
:0301d50001f7bd72
:0301d60001f7b47a
:0301d70001f7ab82
:0301d80001f7a28a
:0301d90001f79992
:0301da0001f78f9b
:0301db0001f786a3
:0301dc0001f77dab
:0301dd0001f774b3
:0301de0001f76bbb
:0301df0001f762c3
:0301e00001f759cb
:0301e10001f74fd4
:0301e20001f746dc
:0301e30001f73de4
:0301e40001f734ec
:0301e50001f72af5
:0301e60001f721fd
:0301e70001f71805
:0301e80001f70e0e
:0301e90001f70516
:0301ea0001f6fc1f
:0301eb0001f6f228
:0301ec0001f6e930
:0301ed0001f6df39
:0301ee0001f6d641
:0301ef0001f6cc4a
:0301f00001f6c352
:0301f10001f6b95b
:0301f20001f6b063
:0301f30001f6a66c
:0301f40001f69d74
:0301f50001f6937d
:0301f60001f68a85
:0301f70001f6808e
:0301f80001f67697
:0301f90001f66d9f
:0301fa0001f663a8
:0301fb0001f659b1
:0301fc0001f650b9
:0301fd0001f646c2
:0301fe0001f63ccb
:0301ff0001f632d4
:0302000001f629db
:0302010001f61fe4
:0302020001f615ed
:0302030001f60bf6
:0302040001f601ff
:0302050001f5f709
:0302060001f5ed12
:0302070001f5e31b
:0302080001f5d924
:0302090001f5cf2d
:03020a0001f5c635
:03020b0001f5bb3f
:03020c0001f5b148
:03020d0001f5a751
:03020e0001f59d5a
:03020f0001f59363
:0302100001f5896c
:0302110001f57f75
:0302120001f5757e
:0302130001f56b87
:0302140001f56190
:0302150001f5569a
:0302160001f54ca3
:0302170001f542ac
:0302180001f538b5
:0302190001f52dbf
:03021a0001f523c8
:03021b0001f519d1
:03021c0001f50fda
:03021d0001f504e4
:03021e0001f4faee
:03021f0001f4eff8
:0302200001f4e501
:0302210001f4db0a
:0302220001f4d014
:0302230001f4c61d
:0302240001f4bb27
:0302250001f4b130
:0302260001f4a63a
:0302270001f49c43
:0302280001f4914d
:0302290001f48756
:03022a0001f47c60
:03022b0001f4716a
:03022c0001f46773
:03022d0001f45c7d
:03022e0001f45187
:03022f0001f44790
:0302300001f43c9a
:0302310001f431a4
:0302320001f427ad
:0302330001f41cb7
:0302340001f411c1
:0302350001f406cb
:0302360001f3fbd6
:0302370001f3f1df
:0302380001f3e6e9
:0302390001f3dbf3
:03023a0001f3d0fd
:03023b0001f3c507
:03023c0001f3ba11
:03023d0001f3af1b
:03023e0001f3a425
:03023f0001f3992f
:0302400001f38e39
:0302410001f38343
:0302420001f3784d
:0302430001f36d57
:0302440001f36261
:0302450001f3576b
:0302460001f34c75
:0302470001f3417f
:0302480001f33689
:0302490001f32a94
:03024a0001f31f9e
:03024b0001f314a8
:03024c0001f309b2
:03024d0001f2fdbe
:03024e0001f2f2c8
:03024f0001f2e7d2
:0302500001f2dcdc
:0302510001f2d0e7
:0302520001f2c5f1
:0302530001f2bafb
:0302540001f2ae06
:0302550001f2a310
:0302560001f2971b
:0302570001f28c25
:0302580001f2812f
:0302590001f2753a
:03025a0001f26a44
:03025b0001f25e4f
:03025c0001f25359
:03025d0001f24764
:03025e0001f23b6f
:03025f0001f23079
:0302600001f22484
:0302610001f2198e
:0302620001f20d99
:0302630001f201a4
:0302640001f1f6af
:0302650001f1eaba
:0302660001f1dec5
:0302670001f1d2d0
:0302680001f1c7da
:0302690001f1bbe5
:03026a0001f1aff0
:03026b0001f1a3fb
:03026c0001f19706
:03026d0001f18c10
:03026e0001f1801b
:03026f0001f17426
:0302700001f16831
:0302710001f15c3c
:0302720001f15047
:0302730001f14452
:0302740001f1385d
:0302750001f12c68
:0302760001f12073
:0302770001f1147e
:0302780001f10889
:0302790001f0fc95
:03027a0001f0f0a0
:03027b0001f0e4ab
:03027c0001f0d8b6
:03027d0001f0ccc1
:03027e0001f0bfcd
:03027f0001f0b3d8
:0302800001f0a7e3
:0302810001f09bee
:0302820001f08ff9
:0302830001f08205
:0302840001f07610
:0302850001f06a1b
:0302860001f05d27
:0302870001f05132
:0302880001f0453d
:0302890001f03849
:03028a0001f02c54
:03028b0001f01f60
:03028c0001f0136b
:03028d0001f00776
:03028e0001effa83
:03028f0001efee8e
:0302900001efe19a
:0302910001efd5a5
:0302920001efc8b1
:0302930001efbcbc
:0302940001efafc8
:0302950001efa2d4
:0302960001ef96df
:0302970001ef89eb
:0302980001ef7cf7
:0302990001ef7002
:03029a0001ef630e
:03029b0001ef561a
:03029c0001ef4a25
:03029d0001ef3d31
:03029e0001ef303d
:03029f0001ef2349
:0302a00001ef1754
:0302a10001ef0a60
:0302a20001eefd6d
:0302a30001eef079
:0302a40001eee385
:0302a50001eed691
:0302a60001eec99d
:0302a70001eebca9
:0302a80001eeafb5
:0302a90001eea3c0
:0302aa0001ee96cc
:0302ab0001ee89d8
:0302ac0001ee7ce4
:0302ad0001ee6ef1
:0302ae0001ee61fd
:0302af0001ee5409
:0302b00001ee4715
:0302b10001ee3a21
:0302b20001ee2d2d
:0302b30001ee2039
:0302b40001ee1345
:0302b50001ee0552
:0302b60001edf85f
:0302b70001edeb6b
:0302b80001edde77
:0302b90001edd084
:0302ba0001edc390
:0302bb0001edb69c
:0302bc0001eda9a8
:0302bd0001ed9bb5
:0302be0001ed8ec1
:0302bf0001ed80ce
:0302c00001ed73da
:0302c10001ed66e6
:0302c20001ed58f3
:0302c30001ed4bff
:0302c40001ed3d0c
:0302c50001ed3018
:0302c60001ed2225
:0302c70001ed1531
:0302c80001ed073e
:0302c90001ecfa4b
:0302ca0001ecec58
:0302cb0001ecde65
:0302cc0001ecd171
:0302cd0001ecc37e
:0302ce0001ecb68a
:0302cf0001eca897
:0302d00001ec9aa4
:0302d10001ec8db0
:0302d20001ec7fbd
:0302d30001ec71ca
:0302d40001ec63d7
:0302d50001ec55e4
:0302d60001ec48f0
:0302d70001ec3afd
:0302d80001ec2c0a
:0302d90001ec1e17
:0302da0001ec1024
:0302db0001ec0231
:0302dc0001ebf43f
:0302dd0001ebe74b
:0302de0001ebd958
:0302df0001ebcb65
:0302e00001ebbd72
:0302e10001ebaf7f
:0302e20001eba18c
:0302e30001eb9399
:0302e40001eb84a7
:0302e50001eb76b4
:0302e60001eb68c1
:0302e70001eb5ace
:0302e80001eb4cdb
:0302e90001eb3ee8
:0302ea0001eb30f5
:0302eb0001eb2103
:0302ec0001eb1310
:0302ed0001eb051d
:0302ee0001eaf72b
:0302ef0001eae938
:0302f00001eada46
:0302f10001eacc53
:0302f20001eabe60
:0302f30001eaaf6e
:0302f40001eaa17b
:0302f50001ea9388
:0302f60001ea8496
:0302f70001ea76a3
:0302f80001ea67b1
:0302f90001ea59be
:0302fa0001ea4acc
:0302fb0001ea3cd9
:0302fc0001ea2de7
:0302fd0001ea1ff4
:0302fe0001ea1002
:0302ff0001ea020f
:0303000001e9f31d
:0303010001e9e52a
:0303020001e9d638
:0303030001e9c746
:0303040001e9b953
:0303050001e9aa61
:0303060001e99b6f
:0303070001e98d7c
:0303080001e97e8a
:0303090001e96f98
:03030a0001e960a6
:03030b0001e952b3
:03030c0001e943c1
:03030d0001e934cf
:03030e0001e925dd
:03030f0001e916eb
:0303100001e907f9
:0303110001e8f808
:0303120001e8e916
:0303130001e8db23
:0303140001e8cc31
:0303150001e8bd3f
:0303160001e8ae4d
:0303170001e89f5b
:0303180001e89069
:0303190001e88177
:03031a0001e87285
:03031b0001e86294
:03031c0001e853a2
:03031d0001e844b0
:03031e0001e835be
:03031f0001e826cc
:0303200001e817da
:0303210001e808e8
:0303220001e7f8f8
:0303230001e7e906
:0303240001e7da14
:0303250001e7cb22
:0303260001e7bb31
:0303270001e7ac3f
:0303280001e79d4d
:0303290001e78d5c
:03032a0001e77e6a
:03032b0001e76f78
:03032c0001e75f87
:03032d0001e75095
:03032e0001e740a4
:03032f0001e731b2
:0303300001e722c0
:0303310001e712cf
:0303320001e703dd
:0303330001e6f3ed
:0303340001e6e3fc
:0303350001e6d40a
:0303360001e6c419
:0303370001e6b527
:0303380001e6a536
:0303390001e69644
:03033a0001e68653
:03033b0001e67662
:03033c0001e66770
:03033d0001e6577f
:03033e0001e6478e
:03033f0001e6379d
:0303400001e628ab
:0303410001e618ba
:0303420001e608c9
:0303430001e5f8d9
:0303440001e5e8e8
:0303450001e5d9f6
:0303460001e5c905
:0303470001e5b914
:0303480001e5a923
:0303490001e59932
:03034a0001e58941
:03034b0001e57950
:03034c0001e5695f
:03034d0001e5596e
:03034e0001e5497d
:03034f0001e5398c
:0303500001e5299b
:0303510001e519aa
:0303520001e509b9
:0303530001e4f9c9
:0303540001e4e9d8
:0303550001e4d8e8
:0303560001e4c8f7
:0303570001e4b806
:0303580001e4a815
:0303590001e49824
:03035a0001e48734
:03035b0001e47743
:03035c0001e46752
:03035d0001e45761
:03035e0001e44671
:03035f0001e43680
:0303600001e4268f
:0303610001e4159f
:0303620001e405ae
:0303630001e3f5be
:0303640001e3e4ce
:0303650001e3d4dd
:0303660001e3c3ed
:0303670001e3b3fc
:0303680001e3a20c
:0303690001e3921b
:03036a0001e3812b
:03036b0001e3713a
:03036c0001e3604a
:03036d0001e35059
:03036e0001e33f69
:03036f0001e32e79
:0303700001e31e88
:0303710001e30d98
:0303720001e2fca9
:0303730001e2ecb8
:0303740001e2dbc8
:0303750001e2cad8
:0303760001e2bae7
:0303770001e2a9f7
:0303780001e29807
:0303790001e28717
:03037a0001e27627
:03037b0001e26636
:03037c0001e25546
:03037d0001e24456
:03037e0001e23366
:03037f0001e22276
:0303800001e21186
:0303810001e20096
:0303820001e1efa7
:0303830001e1deb7
:0303840001e1cdc7
:0303850001e1bcd7
:0303860001e1abe7
:0303870001e19af7
:0303880001e18907
:0303890001e17817
:03038a0001e16727
:03038b0001e15637
:03038c0001e14547
:03038d0001e13358
:03038e0001e12268
:03038f0001e11178
:0303900001e10088
:0303910001e0ef99
:0303920001e0ddaa
:0303930001e0ccba
:0303940001e0bbca
:0303950001e0aada
:0303960001e098eb
:0303970001e087fb
:0303980001e0750c
:0303990001e0641c
:03039a0001e0532c
:03039b0001e0413d
:03039c0001e0304d
:03039d0001e01e5e
:03039e0001e00d6e
:03039f0001dffb80
:0303a00001dfea90
:0303a10001dfd8a1
:0303a20001dfc7b1
:0303a30001dfb5c2
:0303a40001dfa4d2
:0303a50001df92e3
:0303a60001df81f3
:0303a70001df6f04
:0303a80001df5d15
:0303a90001df4c25
:0303aa0001df3a36
:0303ab0001df2847
:0303ac0001df1757
:0303ad0001df0568
:0303ae0001def37a
:0303af0001dee18b
:0303b00001decf9c
:0303b10001debeac
:0303b20001deacbd
:0303b30001de9ace
:0303b40001de88df
:0303b50001de76f0
:0303b60001de6401
:0303b70001de5212
:0303b80001de4023
:0303b90001de2e34
:0303ba0001de1d44
:0303bb0001de0b55
:0303bc0001ddf967
:0303bd0001dde679
:0303be0001ddd48a
:0303bf0001ddc29b
:0303c00001ddb0ac
:0303c10001dd9ebd
:0303c20001dd8cce
:0303c30001dd7adf
:0303c40001dd68f0
:0303c50001dd5601
:0303c60001dd4313
:0303c70001dd3124
:0303c80001dd1f35
:0303c90001dd0d46
:0303ca0001dcfa59
:0303cb0001dce86a
:0303cc0001dcd67b
:0303cd0001dcc48c
:0303ce0001dcb19e
:0303cf0001dc9faf
:0303d00001dc8dc0
:0303d10001dc7ad2
:0303d20001dc68e3
:0303d30001dc55f5
:0303d40001dc4306
:0303d50001dc3018
:0303d60001dc1e29
:0303d70001dc0b3b
:0303d80001dbf94d
:0303d90001dbe65f
:0303da0001dbd470
:0303db0001dbc182
:0303dc0001dbaf93
:0303dd0001db9ca5
:0303de0001db8ab6
:0303df0001db77c8
:0303e00001db64da
:0303e10001db52eb
:0303e20001db3ffd
:0303e30001db2c0f
:0303e40001db1921
:0303e50001db0732
:0303e60001daf445
:0303e70001dae157
:0303e80001dace69
:0303e90001dabc7a
:0303ea0001daa98c
:0303eb0001da969e
:0303ec0001da83b0
:0303ed0001da70c2
:0303ee0001da5dd4
:0303ef0001da4ae6
:0303f00001da37f8
:0303f10001da240a
:0303f20001da111c
:0303f30001d9fe2f
:0303f40001d9eb41
:0303f50001d9d853
:0303f60001d9c565
:0303f70001d9b277
:0303f80001d99f89
:0303f90001d98c9b
:0303fa0001d979ad
:0303fb0001d966bf
:0303fc0001d953d1
:0303fd0001d93fe4
:0303fe0001d92cf6
:0303ff0001d91908
:0304000001d90619
:0304010001d8f32c
:0304020001d8df3f
:0304030001d8cc51
:0304040001d8b963
:0304050001d8a576
:0304060001d89288
:0304070001d87f9a
:0304080001d86bad
:0304090001d858bf
:03040a0001d845d1
:03040b0001d831e4
:03040c0001d81ef6
:03040d0001d80a09
:03040e0001d7f71c
:03040f0001d7e32f
:0304100001d7d041
:0304110001d7bc54
:0304120001d7a966
:0304130001d79579
:0304140001d7828b
:0304150001d76e9e
:0304160001d75ab1
:0304170001d747c3
:0304180001d733d6
:0304190001d71fe9
:03041a0001d70cfb
:03041b0001d6f80f
:03041c0001d6e422
:03041d0001d6d134
:03041e0001d6bd47
:03041f0001d6a95a
:0304200001d6956d
:0304210001d68180
:0304220001d66e92
:0304230001d65aa5
:0304240001d646b8
:0304250001d632cb
:0304260001d61ede
:0304270001d60af1
:0304280001d5f605
:0304290001d5e218
:03042a0001d5ce2b
:03042b0001d5ba3e
:03042c0001d5a651
:03042d0001d59264
:03042e0001d57e77
:03042f0001d56a8a
:0304300001d5569d
:0304310001d542b0
:0304320001d52ec3
:0304330001d51ad6
:0304340001d506e9
:0304350001d4f1fe
:0304360001d4dd11
:0304370001d4c924
:0304380001d4b537
:0304390001d4a14a
:03043a0001d48c5e
:03043b0001d47871
:03043c0001d46484
:03043d0001d44f98
:03043e0001d43bab
:03043f0001d427be
:0304400001d412d2
:0304410001d3fee6
:0304420001d3eaf9
:0304430001d3d50d
:0304440001d3c120
:0304450001d3ac34
:0304460001d39847
:0304470001d3835b
:0304480001d36f6e
:0304490001d35a82
:03044a0001d34695
:03044b0001d331a9
:03044c0001d31dbc
:03044d0001d308d0
:03044e0001d2f3e5
:03044f0001d2dff8
:0304500001d2ca0c
:0304510001d2b61f
:0304520001d2a133
:0304530001d28c47
:0304540001d2775b
:0304550001d2636e
:0304560001d24e82
:0304570001d23996
:0304580001d224aa
:0304590001d210bd
:03045a0001d1fbd2
:03045b0001d1e6e6
:03045c0001d1d1fa
:03045d0001d1bc0e
:03045e0001d1a722
:03045f0001d19236
:0304600001d17e49
:0304610001d1695d
:0304620001d15471
:0304630001d13f85
:0304640001d12a99
:0304650001d115ad
:0304660001d100c1
:0304670001d0ebd6
:0304680001d0d6ea
:0304690001d0c0ff
:03046a0001d0ab13
:03046b0001d09627
:03046c0001d0813b
:03046d0001d06c4f
:03046e0001d05763
:03046f0001d04277
:0304700001d02c8c
:0304710001d017a0
:0304720001d002b4
:0304730001cfedc9
:0304740001cfd7de
:0304750001cfc2f2
:0304760001cfad06
:0304770001cf971b
:0304780001cf822f
:0304790001cf6d43
:03047a0001cf5758
:03047b0001cf426c
:03047c0001cf2d80
:03047d0001cf1795
:03047e0001cf02a9
:03047f0001ceecbf
:0304800001ced7d3
:0304810001cec1e8
:0304820001ceacfc
:0304830001ce9611
:0304840001ce8125
:0304850001ce6b3a
:0304860001ce564e
:0304870001ce4063
:0304880001ce2a78
:0304890001ce158c
:03048a0001cdffa2
:03048b0001cde9b7
:03048c0001cdd4cb
:03048d0001cdbee0
:03048e0001cda8f5
:03048f0001cd920a
:0304900001cd7d1e
:0304910001cd6733
:0304920001cd5148
:0304930001cd3b5d
:0304940001cd2572
:0304950001cd1086
:0304960001ccfa9c
:0304970001cce4b1
:0304980001cccec6
:0304990001ccb8db
:03049a0001cca2f0
:03049b0001cc8c05
:03049c0001cc761a
:03049d0001cc602f
:03049e0001cc4a44
:03049f0001cc3459
:0304a00001cc1e6e
:0304a10001cc0883
:0304a20001cbf299
:0304a30001cbdcae
:0304a40001cbc6c3
:0304a50001cbb0d8
:0304a60001cb9aed
:0304a70001cb8303
:0304a80001cb6d18
:0304a90001cb572d
:0304aa0001cb4142
:0304ab0001cb2b57
:0304ac0001cb146d
:0304ad0001cafe83
:0304ae0001cae898
:0304af0001cad2ad
:0304b00001cabbc3
:0304b10001caa5d8
:0304b20001ca8fed
:0304b30001ca7803
:0304b40001ca6218
:0304b50001ca4b2e
:0304b60001ca3543
:0304b70001ca1f58
:0304b80001ca086e
:0304b90001c9f284
:0304ba0001c9db9a
:0304bb0001c9c5af
:0304bc0001c9aec5
:0304bd0001c998da
:0304be0001c981f0
:0304bf0001c96a06
:0304c00001c9541b
:0304c10001c93d31
:0304c20001c92746
:0304c30001c9105c
:0304c40001c8f973
:0304c50001c8e388
:0304c60001c8cc9e
:0304c70001c8b5b4
:0304c80001c89eca
:0304c90001c888df
:0304ca0001c871f5
:0304cb0001c85a0b
:0304cc0001c84321
:0304cd0001c82d36
:0304ce0001c8164c
:0304cf0001c7ff63
:0304d00001c7e879
:0304d10001c7d18f
:0304d20001c7baa5
:0304d30001c7a3bb
:0304d40001c78cd1
:0304d50001c775e7
:0304d60001c75efd
:0304d70001c74713
:0304d80001c73029
:0304d90001c7193f
:0304da0001c70255
:0304db0001c6eb6c
:0304dc0001c6d482
:0304dd0001c6bd98
:0304de0001c6a6ae
:0304df0001c68fc4
:0304e00001c678da
:0304e10001c661f0
:0304e20001c64907
:0304e30001c6321d
:0304e40001c61b33
:0304e50001c60449
:0304e60001c5ed60
:0304e70001c5d577
:0304e80001c5be8d
:0304e90001c5a7a3
:0304ea0001c58fba
:0304eb0001c578d0
:0304ec0001c561e6
:0304ed0001c549fd
:0304ee0001c53213
:0304ef0001c51b29
:0304f00001c50340
:0304f10001c4ec57
:0304f20001c4d46e
:0304f30001c4bd84
:0304f40001c4a59b
:0304f50001c48eb1
:0304f60001c476c8
:0304f70001c45fde
:0304f80001c447f5
:0304f90001c4300b
:0304fa0001c41822
:0304fb0001c40138
:0304fc0001c3e950
:0304fd0001c3d167
:0304fe0001c3ba7d
:0304ff0001c3a294
:0305000001c38aaa
:0305010001c373c0
:0305020001c35bd7
:0305030001c343ee
:0305040001c32b05
:0305050001c3141b
:0305060001c2fc33
:0305070001c2e44a
:0305080001c2cc61
:0305090001c2b478
:03050a0001c29d8e
:03050b0001c285a5
:03050c0001c26dbc
:03050d0001c255d3
:03050e0001c23dea
:03050f0001c22501
:0305100001c20d18
:0305110001c1f530
:0305120001c1dd47
:0305130001c1c55e
:0305140001c1ad75
:0305150001c1958c
:0305160001c17da3
:0305170001c165ba
:0305180001c14dd1
:0305190001c135e8
:03051a0001c11dff
:03051b0001c10417
:03051c0001c0ec2f
:03051d0001c0d446
:03051e0001c0bc5d
:03051f0001c0a474
:0305200001c08b8c
:0305210001c073a3
:0305220001c05bba
:0305230001c043d1
:0305240001c02ae9
:0305250001c01200
:0305260001bffa18
:0305270001bfe130
:0305280001bfc947
:0305290001bfb15e
:03052a0001bf9876
:03052b0001bf808d
:03052c0001bf67a5
:03052d0001bf4fbc
:03052e0001bf36d4
:03052f0001bf1eeb
:0305300001bf0503
:0305310001beed1b
:0305320001bed433
:0305330001bebc4a
:0305340001bea362
:0305350001be8b79
:0305360001be7291
:0305370001be59a9
:0305380001be41c0
:0305390001be28d8
:03053a0001be10ef
:03053b0001bdf708
:03053c0001bdde20
:03053d0001bdc538
:03053e0001bdad4f
:03053f0001bd9467
:0305400001bd7b7f
:0305410001bd6297
:0305420001bd4aae
:0305430001bd31c6
:0305440001bd18de
:0305450001bcfff7
:0305460001bce60f
:0305470001bccd27
:0305480001bcb43f
:0305490001bc9c56
:03054a0001bc836e
:03054b0001bc6a86
:03054c0001bc519e
:03054d0001bc38b6
:03054e0001bc1fce
:03054f0001bc06e6
:0305500001bbedff
:0305510001bbd417
:0305520001bbba30
:0305530001bba148
:0305540001bb8860
:0305550001bb6f78
:0305560001bb5690
:0305570001bb3da8
:0305580001bb24c0
:0305590001bb0bd8
:03055a0001baf1f2
:03055b0001bad80a
:03055c0001babf22
:03055d0001baa63a
:03055e0001ba8c53
:03055f0001ba736b
:0305600001ba5a83
:0305610001ba409c
:0305620001ba27b4
:0305630001ba0ecc
:0305640001b9f4e6
:0305650001b9dbfe
:0305660001b9c216
:0305670001b9a82f
:0305680001b98f47
:0305690001b97560
:03056a0001b95c78
:03056b0001b94291
:03056c0001b929a9
:03056d0001b90fc2
:03056e0001b8f6db
:03056f0001b8dcf4
:0305700001b8c30c
:0305710001b8a925
:0305720001b8903d
:0305730001b87656
:0305740001b85c6f
:0305750001b84387
:0305760001b829a0
:0305770001b80fb9
:0305780001b7f6d2
:0305790001b7dceb
:03057a0001b7c204
:03057b0001b7a81d
:03057c0001b78f35
:03057d0001b7754e
:03057e0001b75b67
:03057f0001b74180
:0305800001b72799
:0305810001b70db2
:0305820001b6f4cb
:0305830001b6dae4
:0305840001b6c0fd
:0305850001b6a616
:0305860001b68c2f
:0305870001b67248
:0305880001b65861
:0305890001b63e7a
:03058a0001b62493
:03058b0001b60aac
:03058c0001b5f0c6
:03058d0001b5d6df
:03058e0001b5bcf8
:03058f0001b5a211
:0305900001b5882a
:0305910001b56e43
:0305920001b5545c
:0305930001b53976
:0305940001b51f8f
:0305950001b505a8
:0305960001b4ebc2
:0305970001b4d1db
:0305980001b4b6f5
:0305990001b49c0e
:03059a0001b48227
:03059b0001b46840
:03059c0001b44d5a
:03059d0001b43373
:03059e0001b4198c
:03059f0001b3fea7
:0305a00001b3e4c0
:0305a10001b3cad9
:0305a20001b3aff3
:0305a30001b3950c
:0305a40001b37a26
:0305a50001b3603f
:0305a60001b34559
:0305a70001b32b72
:0305a80001b3118b
:0305a90001b2f6a6
:0305aa0001b2dbc0
:0305ab0001b2c1d9
:0305ac0001b2a6f3
:0305ad0001b28c0c
:0305ae0001b27126
:0305af0001b2573f
:0305b00001b23c59
:0305b10001b22173
:0305b20001b2078c
:0305b30001b1eca7
:0305b40001b1d1c1
:0305b50001b1b7da
:0305b60001b19cf4
:0305b70001b1810e
:0305b80001b16628
:0305b90001b14c41
:0305ba0001b1315b
:0305bb0001b11675
:0305bc0001b0fb90
:0305bd0001b0e0aa
:0305be0001b0c6c3
:0305bf0001b0abdd
:0305c00001b090f7
:0305c10001b07511
:0305c20001b05a2b
:0305c30001b03f45
:0305c40001b0245f
:0305c50001b00979
:0305c60001afee94
:0305c70001afd3ae
:0305c80001afb8c8
:0305c90001af9de2
:0305ca0001af82fc
:0305cb0001af6716
:0305cc0001af4c30
:0305cd0001af314a
:0305ce0001af1664
:0305cf0001aefb7f
:0305d00001aedf9a
:0305d10001aec4b4
:0305d20001aea9ce
:0305d30001ae8ee8
:0305d40001ae7302
:0305d50001ae571d
:0305d60001ae3c37
:0305d70001ae2151
:0305d80001ae066b
:0305d90001adea87
:0305da0001adcfa1
:0305db0001adb4bb
:0305dc0001ad98d6
:0305dd0001ad7df0
:0305de0001ad620a
:0305df0001ad4625
:0305e00001ad2b3f
:0305e10001ad1059
:0305e20001acf475
:0305e30001acd98f
:0305e40001acbdaa
:0305e50001aca2c4
:0305e60001ac86df
:0305e70001ac6bf9
:0305e80001ac4f14
:0305e90001ac342e
:0305ea0001ac1849
:0305eb0001abfc65
:0305ec0001abe17f
:0305ed0001abc59a
:0305ee0001abaab4
:0305ef0001ab8ecf
:0305f00001ab72ea
:0305f10001ab5704
:0305f20001ab3b1f
:0305f30001ab1f3a
:0305f40001ab0454
:0305f50001aae870
:0305f60001aacc8b
:0305f70001aab0a6
:0305f80001aa94c1
:0305f90001aa79db
:0305fa0001aa5df6
:0305fb0001aa4111
:0305fc0001aa252c
:0305fd0001aa0947
:0305fe0001a9ed63
:0305ff0001a9d17e
:0306000001a9b697
:0306010001a99ab2
:0306020001a97ecd
:0306030001a962e8
:0306040001a94603
:0306050001a92a1e
:0306060001a90e39
:0306070001a8f255
:0306080001a8d670
:0306090001a8ba8b
:03060a0001a89da7
:03060b0001a881c2
:03060c0001a865dd
:03060d0001a849f8
:03060e0001a82d13
:03060f0001a8112e
:0306100001a7f54a
:0306110001a7d965
:0306120001a7bc81
:0306130001a7a09c
:0306140001a784b7
:0306150001a768d2
:0306160001a74bee
:0306170001a72f09
:0306180001a71324
:0306190001a6f641
:03061a0001a6da5c
:03061b0001a6be77
:03061c0001a6a193
:03061d0001a685ae
:03061e0001a669c9
:03061f0001a64ce5
:0306200001a63000
:0306210001a6131c
:0306220001a5f738
:0306230001a5da54
:0306240001a5be6f
:0306250001a5a18b
:0306260001a585a6
:0306270001a568c2
:0306280001a54cdd
:0306290001a52ff9
:03062a0001a51314
:03062b0001a4f631
:03062c0001a4d94d
:03062d0001a4bd68
:03062e0001a4a084
:03062f0001a483a0
:0306300001a467bb
:0306310001a44ad7
:0306320001a42df3
:0306330001a4110e
:0306340001a3f42b
:0306350001a3d747
:0306360001a3ba63
:0306370001a39e7e
:0306380001a3819a
:0306390001a364b6
:03063a0001a347d2
:03063b0001a32aee
:03063c0001a30d0a
:03063d0001a2f027
:03063e0001a2d442
:03063f0001a2b75e
:0306400001a29a7a
:0306410001a27d96
:0306420001a260b2
:0306430001a243ce
:0306440001a226ea
:0306450001a20906
:0306460001a1ec23
:0306470001a1cf3f
:0306480001a1b25b
:0306490001a19577
:03064a0001a17794
:03064b0001a15ab0
:03064c0001a13dcc
:03064d0001a120e8
:03064e0001a10304
:03064f0001a0e621
:0306500001a0c93d
:0306510001a0ab5a
:0306520001a08e76
:0306530001a07192
:0306540001a054ae
:0306550001a036cb
:0306560001a019e7
:03065700019ffc04
:03065800019fde21
:03065900019fc13d
:03065a00019fa459
:03065b00019f8676
:03065c00019f6992
:03065d00019f4cae
:03065e00019f2ecb
:03065f00019f11e7
:03066000019ef305
:03066100019ed621
:03066200019eb93d
:03066300019e9b5a
:03066400019e7e76
:03066500019e6093
:03066600019e42b0
:03066700019e25cc
:03066800019e07e9
:03066900019dea06
:03066a00019dcc23
:03066b00019daf3f
:03066c00019d915c
:03066d00019d7379
:03066e00019d5695
:03066f00019d38b2
:03067000019d1acf
:03067100019cfdec
:03067200019cdf09
:03067300019cc126
:03067400019ca343
:03067500019c865f
:03067600019c687c
:03067700019c4a99
:03067800019c2cb6
:03067900019c0ed3
:03067a00019bf1f0
:03067b00019bd30d
:03067c00019bb52a
:03067d00019b9747
:03067e00019b7964
:03067f00019b5b81
:03068000019b3d9e
:03068100019b1fbb
:03068200019b01d8
:03068300019ae3f6
:03068400019ac513
:03068500019aa730
:03068600019a894d
:03068700019a6b6a
:03068800019a4d87
:03068900019a2fa4
:03068a00019a11c1
:03068b000199f3df
:03068c000199d5fc
:03068d000199b719
:03068e0001999837
:03068f0001997a54
:0306900001995c71
:0306910001993e8e
:03069200019920ab
:03069300019902c8
:030694000198e3e7
:030695000198c504
:030696000198a721
:030697000198883f
:0306980001986a5c
:0306990001984c79
:03069a0001982d97
:03069b0001980fb4
:03069c000197f1d2
:03069d000197d2f0
:03069e000197b40d
:03069f000197962a
:0306a00001977748
:0306a10001975965
:0306a20001973a83
:0306a30001971ca0
:0306a4000196fdbf
:0306a5000196dfdc
:0306a6000196c0fa
:0306a7000196a217
:0306a80001968335
:0306a90001966552
:0306aa0001964670
:0306ab000196278e
:0306ac00019609ab
:0306ad000195eaca
:0306ae000195cce7
:0306af000195ad05
:0306b00001958e23
:0306b10001957040
:0306b2000195515e
:0306b3000195327c
:0306b4000195139a
:0306b5000194f5b8
:0306b6000194d6d6
:0306b7000194b7f4
:0306b80001949812
:0306b90001947930
:0306ba0001945b4d
:0306bb0001943c6b
:0306bc0001941d89
:0306bd000193fea8
:0306be000193dfc6
:0306bf000193c0e4
:0306c0000193a102
:0306c10001938220
:0306c2000193633e
:0306c3000193455b
:0306c40001932679
:0306c50001930797
:0306c6000192e8b6
:0306c7000192c9d4
:0306c8000192a9f3
:0306c90001928a11
:0306ca0001926b2f
:0306cb0001924c4d
:0306cc0001922d6b
:0306cd0001920e89
:0306ce000191efa8
:0306cf000191d0c6
:0306d0000191b1e4
:0306d10001919103
:0306d20001917221
:0306d3000191533f
:0306d4000191345d
:0306d5000191157b
:0306d6000190f59b
:0306d7000190d6b9
:0306d8000190b7d7
:0306d900019098f5
:0306da0001907814
:0306db0001905932
:0306dc0001903a50
:0306dd0001901a6f
:0306de00018ffb8e
:0306df00018fdbad
:0306e000018fbccb
:0306e100018f9de9
:0306e200018f7d08
:0306e300018f5e26
:0306e400018f3e45
:0306e500018f1f63
:0306e600018eff83
:0306e700018ee0a1
:0306e800018ec0c0
:0306e900018ea1de
:0306ea00018e81fd
:0306eb00018e621b
:0306ec00018e423a
:0306ed00018e2259
:0306ee00018e0377
:0306ef00018de397
:0306f000018dc4b5
:0306f100018da4d4
:0306f200018d84f3
:0306f300018d6511
:0306f400018d4530
:0306f500018d254f
:0306f600018d056e
:0306f700018ce68d
:0306f800018cc6ac
:0306f900018ca6cb
:0306fa00018c86ea
:0306fb00018c6708
:0306fc00018c4727
:0306fd00018c2746
:0306fe00018c0765
:0306ff00018be785
:03070000018bc7a3
:03070100018ba7c2
:03070200018b87e1
:03070300018b68ff
:03070400018b481e
:03070500018b283d
:03070600018b085c
:03070700018ae87c
:03070800018ac89b
:03070900018aa8ba
:03070a00018a88d9
:03070b00018a68f8
:03070c00018a4817
:03070d00018a2737
:03070e00018a0756
:03070f000189e776
:030710000189c795
:030711000189a7b4
:03071200018987d3
:03071300018967f2
:0307140001894711
:0307150001892631
:0307160001890650
:030717000188e670
:030718000188c68f
:030719000188a5af
:03071a00018885ce
:03071b00018865ed
:03071c000188450c
:03071d000188242c
:03071e000188044b
:03071f000187e46b
:030720000187c38b
:030721000187a3aa
:03072200018782ca
:03072300018762e9
:0307240001874208
:0307250001872128
:0307260001870147
:030727000186e068
:030728000186c087
:0307290001869fa7
:03072a0001867fc6
:03072b0001865ee6
:03072c0001863e05
:03072d0001861d25
:03072e000185fd45
:03072f000185dc65
:030730000185bc84
:0307310001859ba4
:0307320001857ac4
:0307330001855ae3
:0307340001853903
:0307350001851823
:030736000184f843
:030737000184d763
:030738000184b683
:03073900018496a2
:03073a00018475c2
:03073b00018454e2
:03073c0001843302
:03073d0001841321
:03073e000183f242
:03073f000183d162
:030740000183b082
:0307410001838fa2
:0307420001836ec2
:0307430001834ee1
:0307440001832d01
:0307450001830c21
:030746000182eb42
:030747000182ca62
:030748000182a982
:03074900018288a2
:03074a00018267c2
:03074b00018246e2
:03074c0001822502
:03074d0001820422
:03074e000181e343
:03074f000181c263
:030750000181a183
:03075100018180a3
:0307520001815fc3
:0307530001813ee3
:0307540001811d03
:030755000180fb25
:030756000180da45
:030757000180b965
:0307580001809885
:03075900018077a5
:03075a00018056c5
:03075b00018034e6
:03075c0001801306
:03075d00017ff227
:03075e00017fd147
:03075f00017faf68
:03076000017f8e88
:03076100017f6da8
:03076200017f4bc9
:03076300017f2ae9
:03076400017f0909
:03076500017ee72b
:03076600017ec64b
:03076700017ea56b
:03076800017e838c
:03076900017e62ac
:03076a00017e40cd
:03076b00017e1fed
:03076c00017dfd0f
:03076d00017ddc2f
:03076e00017dba50
:03076f00017d9970
:03077000017d7791
:03077100017d56b1
:03077200017d34d2
:03077300017d13f2
:03077400017cf114
:03077500017cd034
:03077600017cae55
:03077700017c8c76
:03077800017c6b96
:03077900017c49b7
:03077a00017c27d8
:03077b00017c06f8
:03077c00017be41a
:03077d00017bc23b
:03077e00017ba15b
:03077f00017b7f7c
:03078000017b5d9d
:03078100017b3bbe
:03078200017b1ade
:03078300017af800
:03078400017ad621
:03078500017ab442
:03078600017a9263
:03078700017a7183
:03078800017a4fa4
:03078900017a2dc5
:03078a00017a0be6
:03078b000179e908
:03078c000179c729
:03078d000179a54a
:03078e000179836b
:03078f000179618c
:0307900001793fad
:0307910001791dce
:030792000178fbf0
:030793000178d911
:030794000178b732
:0307950001789553
:0307960001787374
:0307970001785195
:0307980001782fb6
:0307990001780dd7
:03079a000177ebf9
:03079b000177c91a
:03079c000177a63c
:03079d000177845d
:03079e000177627e
:03079f000177409f
:0307a00001771ec0
:0307a1000176fce2
:0307a2000176d904
:0307a3000176b725
:0307a40001769546
:0307a50001767268
:0307a60001765089
:0307a70001762eaa
:0307a80001760ccb
:0307a9000175e9ee
:0307aa000175c70f
:0307ab000175a530
:0307ac0001758252
:0307ad0001756073
:0307ae0001753d95
:0307af0001751bb6
:0307b0000174f9d8
:0307b1000174d6fa
:0307b2000174b41b
:0307b3000174913d
:0307b40001746f5e
:0307b50001744c80
:0307b60001742aa1
:0307b700017407c3
:0307b8000173e5e5
:0307b9000173c207
:0307ba0001739f29
:0307bb0001737d4a
:0307bc0001735a6c
:0307bd000173388d
:0307be00017315af
:0307bf000172f2d2
:0307c0000172d0f3
:0307c1000172ad15
:0307c20001728a37
:0307c30001726858
:0307c4000172457a
:0307c5000172229c
:0307c600017200bd
:0307c7000171dde0
:0307c8000171ba02
:0307c90001719724
:0307ca0001717446
:0307cb0001715267
:0307cc0001712f89
:0307cd0001710cab
:0307ce000170e9ce
:0307cf000170c6f0
:0307d0000170a312
:0307d10001708133
:0307d20001705e55
:0307d30001703b77
:0307d40001701899
:0307d500016ff5bc
:0307d600016fd2de
:0307d700016faf00
:0307d800016f8c22
:0307d900016f6944
:0307da00016f4666
:0307db00016f2388
:0307dc00016f00aa
:0307dd00016eddcd
:0307de00016ebaef
:0307df00016e9711
:0307e000016e7433
:0307e100016e5056
:0307e200016e2d78
:0307e300016e0a9a
:0307e400016de7bd
:0307e500016dc4df
:0307e600016da101
:0307e700016d7d24
:0307e800016d5a46
:0307e900016d3768
:0307ea00016d148a
:0307eb00016cf1ad
:0307ec00016ccdd0
:0307ed00016caaf2
:0307ee00016c8714
:0307ef00016c6337
:0307f000016c4059
:0307f100016c1d7b
:0307f200016bf99f
:0307f300016bd6c1
:0307f400016bb3e3
:0307f500016b8f06
:0307f600016b6c28
:0307f700016b494a
:0307f800016b256d
:0307f900016b028f
:0307fa00016adeb3
:0307fb00016abbd5
:0307fc00016a97f8
:0307fd00016a741a
:0307fe00016a503d
:0307ff00016a2d5f
:03080000016a0981
:030801000169e6a4
:030802000169c2c7
:0308030001699fe9
:0308040001697b0c
:030805000169572f
:0308060001693451
:0308070001691074
:030808000168ec98
:030809000168c9ba
:03080a000168a5dd
:03080b0001688100
:03080c0001685e22
:03080d0001683a45
:03080e0001681668
:03080f000167f38b
:030810000167cfae
:030811000167abd1
:03081200016787f4
:0308130001676317
:0308140001674039
:0308150001671c5c
:030816000166f880
:030817000166d4a3
:030818000166b0c6
:0308190001668ce9
:03081a000166680c
:03081b000166452e
:03081c0001662151
:03081d000165fd75
:03081e000165d998
:03081f000165b5bb
:03082000016591de
:0308210001656d01
:0308220001654924
:0308230001652547
:030824000165016a
:030825000164dd8e
:030826000164b9b1
:03082700016495d4
:03082800016471f7
:0308290001644d1a
:03082a000164283e
:03082b0001640461
:03082c000163e085
:03082d000163bca8
:03082e00016398cb
:03082f00016374ee
:0308300001635011
:0308310001632b35
:0308320001630758
:030833000162e37c
:030834000162bf9f
:0308350001629ac3
:03083600016276e6
:0308370001625209
:0308380001622e2c
:0308390001620950
:03083a000161e574
:03083b000161c197
:03083c0001619cbb
:03083d00016178de
:03083e0001615401
:03083f0001612f25
:0308400001610b48
:030841000160e66d
:030842000160c290
:0308430001609db4
:03084400016079d7
:03084500016055fa
:030846000160301e
:0308470001600c41
:03084800015fe766
:03084900015fc389
:03084a00015f9ead
:03084b00015f7ad0
:03084c00015f55f4
:03084d00015f3018
:03084e00015f0c3b
:03084f00015ee760
:03085000015ec383
:03085100015e9ea7
:03085200015e79cb
:03085300015e55ee
:03085400015e3012
:03085500015e0b36
:03085600015de75a
:03085700015dc27e
:03085800015d9da2
:03085900015d79c5
:03085a00015d54e9
:03085b00015d2f0d
:03085c00015d0a31
:03085d00015ce556
:03085e00015cc179
:03085f00015c9c9d
:03086000015c77c1
:03086100015c52e5
:03086200015c2d09
:03086300015c092c
:03086400015be451
:03086500015bbf75
:03086600015b9a99
:03086700015b75bd
:03086800015b50e1
:03086900015b2b05
:03086a00015b0629
:03086b00015ae14e
:03086c00015abc72
:03086d00015a9796
:03086e00015a72ba
:03086f00015a4dde
:03087000015a2802
:03087100015a0326
:030872000159de4b
:030873000159b96f
:0308740001599493
:0308750001596fb7
:0308760001594adb
:03087700015925ff
:030878000158ff25
:030879000158da49
:03087a000158b56d
:03087b0001589091
:03087c0001586bb5
:03087d00015846d9
:03087e00015820fe
:03087f000157fb23
:030880000157d647
:030881000157b16b
:0308820001578b90
:03088300015766b4
:03088400015741d8
:0308850001571cfc
:030886000156f622
:030887000156d146
:030888000156ac6a
:030889000156868f
:03088a00015661b3
:03088b0001563bd8
:03088c00015616fc
:03088d000155f121
:03088e000155cb46
:03088f000155a66a
:030890000155808f
:0308910001555bb3
:03089200015535d8
:03089300015510fc
:030894000154ea22
:030895000154c546
:0308960001549f6b
:0308970001547a8f
:03089800015454b4
:0308990001542fd8
:03089a00015409fd
:03089b000153e422
:03089c000153be47
:03089d000153986c
:03089e0001537390
:03089f0001534db5
:0308a000015327da
:0308a100015302fe
:0308a2000152dc24
:0308a3000152b649
:0308a4000152916d
:0308a50001526b92
:0308a600015245b7
:0308a700015220db
:0308a8000151fa01
:0308a9000151d426
:0308aa000151ae4b
:0308ab000151896f
:0308ac0001516394
:0308ad0001513db9
:0308ae00015117de
:0308af000150f104
:0308b0000150cb29
:0308b1000150a64d
:0308b20001508072
:0308b30001505a97
:0308b400015034bc
:0308b50001500ee1
:0308b600014fe807
:0308b700014fc22c
:0308b800014f9c51
:0308b900014f7676
:0308ba00014f509b
:0308bb00014f2ac0
:0308bc00014f04e5
:0308bd00014ede0b
:0308be00014eb830
:0308bf00014e9255
:0308c000014e6c7a
:0308c100014e469f
:0308c200014e20c4
:0308c300014dfaea
:0308c400014dd40f
:0308c500014dae34
:0308c600014d875a
:0308c700014d617f
:0308c800014d3ba4
:0308c900014d15c9
:0308ca00014cefef
:0308cb00014cc914
:0308cc00014ca23a
:0308cd00014c7c5f
:0308ce00014c5684
:0308cf00014c30a9
:0308d000014c09cf
:0308d100014be3f5
:0308d200014bbd1a
:0308d300014b973f
:0308d400014b7065
:0308d500014b4a8a
:0308d600014b24af
:0308d700014afdd6
:0308d800014ad7fb
:0308d900014ab120
:0308da00014a8a46
:0308db00014a646b
:0308dc00014a3d91
:0308dd00014a17b6
:0308de000149f1dc
:0308df000149ca02
:0308e0000149a427
:0308e10001497d4d
:0308e20001495772
:0308e30001493098
:0308e40001490abd
:0308e5000148e3e4
:0308e6000148bd09
:0308e7000148962f
:0308e80001487054
:0308e9000148497a
:0308ea00014822a0
:0308eb000147fcc6
:0308ec000147d5ec
:0308ed000147af11
:0308ee0001478837
:0308ef000147615d
:0308f00001473b82
:0308f100014714a8
:0308f2000146edcf
:0308f3000146c7f4
:0308f4000146a01a
:0308f50001467940
:0308f60001465365
:0308f70001462c8b
:0308f800014605b1
:0308f9000145ded8
:0308fa000145b7fe
:0308fb0001459123
:0308fc0001456a49
:0308fd000145436f
:0308fe0001451c95
:0308ff000144f5bc
:030900000144cfe0
:030901000144a806
:030902000144812c
:0309030001445a52
:0309040001443378
:0309050001440c9e
:030906000143e5c5
:030907000143beeb
:0309080001439711
:0309090001437037
:03090a000143495d
:03090b0001432283
:03090c000142fbaa
:03090d000142d4d0
:03090e000142adf6
:03090f000142861c
:0309100001425f42
:0309110001423868
:030912000142118e
:030913000141eab5
:030914000141c3db
:0309150001419c01
:0309160001417527
:0309170001414e4d
:0309180001412773
:030919000140ff9b
:03091a000140d8c1
:03091b000140b1e7
:03091c0001408a0d
:03091d0001406333
:03091e0001403b5a
:03091f0001401480
:03092000013feda7
:03092100013fc6cd
:03092200013f9ef4
:03092300013f771a
:03092400013f5040
:03092500013f2966
:03092600013f018d
:03092700013edab4
:03092800013eb3da
:03092900013e8b01
:03092a00013e6427
:03092b00013e3d4d
:03092c00013e1574
:03092d00013dee9b
:03092e00013dc6c2
:03092f00013d9fe8
:03093000013d780e
:03093100013d5035
:03093200013d295b
:03093300013d0182
:03093400013cdaa9
:03093500013cb2d0
:03093600013c8bf6
:03093700013c631d
:03093800013c3c43
:03093900013c146a
:03093a00013bed91
:03093b00013bc5b8
:03093c00013b9ddf
:03093d00013b7605
:03093e00013b4e2c
:03093f00013b2752
:03094000013aff7a
:03094100013ad7a1
:03094200013ab0c7
:03094300013a88ee
:03094400013a6015
:03094500013a393b
:03094600013a1162
:030947000139e98a
:030948000139c2b0
:0309490001399ad7
:03094a00013972fe
:03094b0001394a25
:03094c000139234b
:03094d000138fb73
:03094e000138d39a
:03094f000138abc1
:03095000013883e8
:0309510001385c0e
:0309520001383435
:0309530001380c5c
:030954000137e484
:030955000137bcab
:03095600013794d2
:0309570001376cf9
:030958000137451f
:0309590001371d46
:03095a000136f56e
:03095b000136cd95
:03095c000136a5bc
:03095d0001367de3
:03095e000136550a
:03095f0001362d31
:0309600001360558
:030961000135dd80
:030962000135b5a7
:0309630001358dce
:03096400013565f5
:0309650001353d1c
:0309660001351543
:030967000134ed6b
:030968000134c592
:0309690001349cba
:03096a00013474e1
:03096b0001344c08
:03096c000134242f
:03096d000133fc57
:03096e000133d47e
:03096f000133aca5
:03097000013383cd
:0309710001335bf4
:030972000133331b
:0309730001330b42
:030974000132e36a
:030975000132ba92
:03097600013292b9
:0309770001326ae0
:0309780001324207
:030979000132192f
:03097a000131f157
:03097b000131c97e
:03097c000131a0a6
:03097d00013178cd
:03097e00013150f4
:03097f000131271c
:030980000130ff44
:030981000130d76b
:030982000130ae93
:03098300013086ba
:0309840001305de2
:0309850001303509
:0309860001300c31
:03098700012fe459
:03098800012fbc80
:03098900012f93a8
:03098a00012f6bcf
:03098b00012f42f7
:03098c00012f1a1e
:03098d00012ef147
:03098e00012ec96e
:03098f00012ea096
:03099000012e77be
:03099100012e4fe5
:03099200012e260d
:03099300012dfe35
:03099400012dd55d
:03099500012dad84
:03099600012d84ac
:03099700012d5bd4
:03099800012d33fb
:03099900012d0a23
:03099a00012ce14c
:03099b00012cb973
:03099c00012c909b
:03099d00012c67c3
:03099e00012c3fea
:03099f00012c1612
:0309a000012bed3b
:0309a100012bc463
:0309a200012b9c8a
:0309a300012b73b2
:0309a400012b4ada
:0309a500012b2102
:0309a600012af82b
:0309a700012ad052
:0309a800012aa77a
:0309a900012a7ea2
:0309aa00012a55ca
:0309ab00012a2cf2
:0309ac00012a031a
:0309ad000129db42
:0309ae000129b26a
:0309af0001298992
:0309b000012960ba
:0309b100012937e2
:0309b20001290e0a
:0309b3000128e533
:0309b4000128bc5b
:0309b50001289383
:0309b60001286aab
:0309b700012841d3
:0309b800012818fb
:0309b9000127ef24
:0309ba000127c64c
:0309bb0001279d74
:0309bc000127749c
:0309bd0001274bc4
:0309be00012722ec
:0309bf000126f915
:0309c0000126d03d
:0309c1000126a765
:0309c20001267e8d
:0309c300012654b6
:0309c40001262bde
:0309c50001260206
:0309c6000125d92f
:0309c7000125b057
:0309c8000125877f
:0309c90001255da8
:0309ca00012534d0
:0309cb0001250bf8
:0309cc000124e221
:0309cd000124b949
:0309ce0001248f72
:0309cf000124669a
:0309d00001243dc2
:0309d100012414ea
:0309d2000123ea14
:0309d3000123c13c
:0309d40001239864
:0309d50001236e8d
:0309d600012345b5
:0309d70001231cdd
:0309d8000122f207
:0309d9000122c92f
:0309da000122a057
:0309db0001227680
:0309dc0001224da8
:0309dd00012223d1
:0309de000121fafa
:0309df000121d023
:0309e0000121a74b
:0309e10001217e73
:0309e2000121549c
:0309e30001212bc4
:0309e400012101ed
:0309e5000120d816
:0309e6000120ae3f
:0309e70001208567
:0309e80001205b90
:0309e900012032b8
:0309ea00012008e1
:0309eb00011fde0b
:0309ec00011fb533
:0309ed00011f8b5c
:0309ee00011f6284
:0309ef00011f38ad
:0309f000011f0ed6
:0309f100011ee5ff
:0309f200011ebb28
:0309f300011e9250
:0309f400011e6879
:0309f500011e3ea2
:0309f600011e15ca
:0309f700011debf4
:0309f800011dc11d
:0309f900011d9746
:0309fa00011d6e6e
:0309fb00011d4497
:0309fc00011d1ac0
:0309fd00011cf0ea
:0309fe00011cc712
:0309ff00011c9d3b
:030a0000011c7363
:030a0100011c498c
:030a0200011c20b4
:030a0300011bf6de
:030a0400011bcc07
:030a0500011ba230
:030a0600011b7859
:030a0700011b4e82
:030a0800011b24ab
:030a0900011afbd4
:030a0a00011ad1fd
:030a0b00011aa726
:030a0c00011a7d4f
:030a0d00011a5378
:030a0e00011a29a1
:030a0f000119ffcb
:030a10000119d5f4
:030a11000119ab1d
:030a120001198146
:030a13000119576f
:030a140001192d98
:030a1500011903c1
:030a16000118d9eb
:030a17000118af14
:030a18000118853d
:030a190001185b66
:030a1a000118318f
:030a1b00011807b8
:030a1c000117dde2
:030a1d000117b30b
:030a1e0001178934
:030a1f0001175e5e
:030a200001173487
:030a210001170ab0
:030a22000116e0da
:030a23000116b603
:030a240001168c2c
:030a250001166156
:030a26000116377f
:030a270001160da8
:030a28000115e3d2
:030a29000115b9fb
:030a2a0001158e25
:030a2b000115644e
:030a2c0001153a77
:030a2d00011510a0
:030a2e000114e5cb
:030a2f000114bbf4
:030a30000114911d
:030a310001146746
:030a320001143c70
:030a330001141299
:030a34000113e8c3
:030a35000113bded
:030a360001139316
:030a370001136840
:030a380001133e69
:030a390001131492
:030a3a000112e9bd
:030a3b000112bfe6
:030a3c0001129410
:030a3d0001126a39
:030a3e0001124062
:030a3f000112158c
:030a40000111ebb6
:030a41000111c0e0
:030a420001119609
:030a430001116b33
:030a44000111415c
:030a450001111686
:030a46000110ecb0
:030a47000110c1da
:030a480001109703
:030a490001106c2d
:030a4a0001104157
:030a4b0001101780
:030a4c00010fecab
:030a4d00010fc2d4
:030a4e00010f97fe
:030a4f00010f6d27
:030a5000010f4251
:030a5100010f177b
:030a5200010eeda5
:030a5300010ec2cf
:030a5400010e97f9
:030a5500010e6d22
:030a5600010e424c
:030a5700010e1776
:030a5800010deda0
:030a5900010dc2ca
:030a5a00010d97f4
:030a5b00010d6c1e
:030a5c00010d4247
:030a5d00010d1771
:030a5e00010cec9c
:030a5f00010cc1c6
:030a6000010c96f0
:030a6100010c6c19
:030a6200010c4143
:030a6300010c166d
:030a6400010beb98
:030a6500010bc0c2
:030a6600010b96eb
:030a6700010b6b15
:030a6800010b403f
:030a6900010b1569
:030a6a00010aea94
:030a6b00010abfbe
:030a6c00010a94e8
:030a6d00010a6912
:030a6e00010a3e3c
:030a6f00010a1366
:030a70000109e990
:030a71000109beba
:030a7200010993e4
:030a73000109680e
:030a740001093d38
:030a750001091262
:030a76000108e78d
:030a77000108bcb7
:030a7800010891e1
:030a79000108660b
:030a7a0001083a36
:030a7b0001080f60
:030a7c000107e48b
:030a7d000107b9b5
:030a7e0001078edf
:030a7f0001076309
:030a800001073833
:030a810001070d5d
:030a82000106e288
:030a83000106b7b2
:030a840001068bdd
:030a850001066007
:030a860001063531
:030a870001060a5b
:030a88000105df86
:030a89000105b4b0
:030a8a00010588db
:030a8b0001055d05
:030a8c000105322f
:030a8d0001050759
:030a8e000104db85
:030a8f000104b0af
:030a9000010485d9
:030a910001045a03
:030a920001042e2e
:030a930001040358
:030a94000103d883
:030a95000103acae
:030a9600010381d8
:030a970001035602
:030a980001032a2d
:030a99000102ff58
:030a9a000102d482
:030a9b000102a8ad
:030a9c0001027dd7
:030a9d0001025201
:030a9e000102262c
:030a9f000101fb57
:030aa0000101cf82
:030aa1000101a4ac
:030aa200010178d7
:030aa30001014d01
:030aa4000101212c
:030aa5000100f657
:030aa6000100cb81
:030aa70001009fac
:030aa800010074d6
:030aa90001004801
:030aaa0001001d2b
:030aab0000fff158
:030aac0000ffc583
:030aad0000ff9aad
:030aae0000ff6ed8
:030aaf0000ff4302
:030ab00000ff172d
:030ab10000feec58
:030ab20000fec083
:030ab30000fe94ae
:030ab40000fe69d8
:030ab50000fe3d03
:030ab60000fe122d
:030ab70000fde659
:030ab80000fdba84
:030ab90000fd8fae
:030aba0000fd63d9
:030abb0000fd3704
:030abc0000fd0c2e
:030abd0000fce05a
:030abe0000fcb485
:030abf0000fc88b0
:030ac00000fc5dda
:030ac10000fc3105
:030ac20000fc0530
:030ac30000fbd95c
:030ac40000fbae86
:030ac50000fb82b1
:030ac60000fb56dc
:030ac70000fb2a07
:030ac80000fafe33
:030ac90000fad35d
:030aca0000faa788
:030acb0000fa7bb3
:030acc0000fa4fde
:030acd0000fa2309
:030ace0000f9f735
:030acf0000f9cc5f
:030ad00000f9a08a
:030ad10000f974b5
:030ad20000f948e0
:030ad30000f91c0b
:030ad40000f8f037
:030ad50000f8c462
:030ad60000f8988d
:030ad70000f86cb8
:030ad80000f840e3
:030ad90000f8140e
:030ada0000f7e83a
:030adb0000f7bc65
:030adc0000f79090
:030add0000f764bb
:030ade0000f738e6
:030adf0000f70c11
:030ae00000f6e03d
:030ae10000f6b468
:030ae20000f68893
:030ae30000f65cbe
:030ae40000f630e9
:030ae50000f60414
:030ae60000f5d840
:030ae70000f5ac6b
:030ae80000f58096
:030ae90000f554c1
:030aea0000f527ed
:030aeb0000f4fb19
:030aec0000f4cf44
:030aed0000f4a36f
:030aee0000f4779a
:030aef0000f44bc5
:030af00000f41ff0
:030af10000f3f21d
:030af20000f3c648
:030af30000f39a73
:030af40000f36e9e
:030af50000f342c9
:030af60000f315f5
:030af70000f2e921
:030af80000f2bd4c
:030af90000f29177
:030afa0000f264a3
:030afb0000f238ce
:030afc0000f20cf9
:030afd0000f1df26
:030afe0000f1b351
:030aff0000f1877c
:030b000000f15aa7
:030b010000f12ed2
:030b020000f102fd
:030b030000f0d52a
:030b040000f0a955
:030b050000f07d80
:030b060000f050ac
:030b070000f024d7
:030b080000eff803
:030b090000efcb2f
:030b0a0000ef9f5a
:030b0b0000ef7286
:030b0c0000ef46b1
:030b0d0000ef19dd
:030b0e0000eeed09
:030b0f0000eec035
:030b100000ee9460
:030b110000ee688b
:030b120000ee3bb7
:030b130000ee0fe2
:030b140000ede20f
:030b150000edb63a
:030b160000ed8966
:030b170000ed5c92
:030b180000ed30bd
:030b190000ed03e9
:030b1a0000ecd715
:030b1b0000ecaa41
:030b1c0000ec7e6c
:030b1d0000ec5198
:030b1e0000ec24c4
:030b1f0000ebf8f0
:030b200000ebcb1c
:030b210000eb9f47
:030b220000eb7273
:030b230000eb459f
:030b240000eb19ca
:030b250000eaecf7
:030b260000eabf23
:030b270000ea934e
:030b280000ea667a
:030b290000ea39a6
:030b2a0000ea0dd1
:030b2b0000e9e0fe
:030b2c0000e9b32a
:030b2d0000e98656
:030b2e0000e95a81
:030b2f0000e92dad
:030b300000e900d9
:030b310000e8d306
:030b320000e8a731
:030b330000e87a5d
:030b340000e84d89
:030b350000e820b5
:030b360000e7f4e1
:030b370000e7c70d
:030b380000e79a39
:030b390000e76d65
:030b3a0000e74091
:030b3b0000e713bd
:030b3c0000e6e7e9
:030b3d0000e6ba15
:030b3e0000e68d41
:030b3f0000e6606d
:030b400000e63399
:030b410000e606c5
:030b420000e5d9f2
:030b430000e5ac1e
:030b440000e57f4a
:030b450000e55276
:030b460000e525a2
:030b470000e4f9ce
:030b480000e4ccfa
:030b490000e49f26
:030b4a0000e47252
:030b4b0000e4457e
:030b4c0000e418aa
:030b4d0000e3ebd7
:030b4e0000e3be03
:030b4f0000e3912f
:030b500000e3645b
:030b510000e33688
:030b520000e309b4
:030b530000e2dce1
:030b540000e2af0d
:030b550000e28239
:030b560000e25565
:030b570000e22891
:030b580000e1fbbe
:030b590000e1ceea
:030b5a0000e1a116
:030b5b0000e17442
:030b5c0000e1466f
:030b5d0000e1199b
:030b5e0000e0ecc8
:030b5f0000e0bff4
:030b600000e09220
:030b610000e0654c
:030b620000e03878
:030b630000e00aa5
:030b640000dfddd2
:030b650000dfb0fe
:030b660000df832a
:030b670000df5557
:030b680000df2883
:030b690000defbb0
:030b6a0000decedc
:030b6b0000dea009
:030b6c0000de7335
:030b6d0000de4661
:030b6e0000de198d
:030b6f0000ddebbb
:030b700000ddbee7
:030b710000dd9113
:030b720000dd6340
:030b730000dd366c
:030b740000dd0998
:030b750000dcdbc6
:030b760000dcaef2
:030b770000dc811e
:030b780000dc534b
:030b790000dc2677
:030b7a0000dbf9a4
:030b7b0000dbcbd1
:030b7c0000db9efd
:030b7d0000db702a
:030b7e0000db4356
:030b7f0000db1682
:030b800000dae8b0
:030b810000dabbdc
:030b820000da8d09
:030b830000da6035
:030b840000da3262
:030b850000da058e
:030b860000d9d7bc
:030b870000d9aae8
:030b880000d97c15
:030b890000d94f41
:030b8a0000d9216e
:030b8b0000d8f49b
:030b8c0000d8c6c8
:030b8d0000d899f4
:030b8e0000d86b21
:030b8f0000d83e4d
:030b900000d8107a
:030b910000d7e2a8
:030b920000d7b5d4
:030b930000d78701
:030b940000d75a2d
:030b950000d72c5a
:030b960000d6fe88
:030b970000d6d1b4
:030b980000d6a3e1
:030b990000d6760d
:030b9a0000d6483a
:030b9b0000d61a67
:030b9c0000d5ed94
:030b9d0000d5bfc1
:030b9e0000d591ee
:030b9f0000d5641a
:030ba00000d53647
:030ba10000d50874
:030ba20000d4daa2
:030ba30000d4adce
:030ba40000d47ffb
:030ba50000d45128
:030ba60000d42355
:030ba70000d3f682
:030ba80000d3c8af
:030ba90000d39adc
:030baa0000d36c09
:030bab0000d33f35
:030bac0000d31162
:030bad0000d2e390
:030bae0000d2b5bd
:030baf0000d287ea
:030bb00000d25a16
:030bb10000d22c43
:030bb20000d1fe71
:030bb30000d1d09e
:030bb40000d1a2cb
:030bb50000d174f8
:030bb60000d14724
:030bb70000d11951
:030bb80000d0eb7f
:030bb90000d0bdac
:030bba0000d08fd9
:030bbb0000d06106
:030bbc0000d03333
:030bbd0000d00560
:030bbe0000cfd78e
:030bbf0000cfa9bb
:030bc00000cf7be8
:030bc10000cf4d15
:030bc20000cf1f42
:030bc30000cef170
:030bc40000cec49c
:030bc50000ce96c9
:030bc60000ce68f6
:030bc70000ce3a23
:030bc80000ce0c50
:030bc90000cddd7f
:030bca0000cdafac
:030bcb0000cd81d9
:030bcc0000cd5306
:030bcd0000cd2533
:030bce0000ccf761
:030bcf0000ccc98e
:030bd00000cc9bbb
:030bd10000cc6de8
:030bd20000cc3f15
:030bd30000cc1142
:030bd40000cbe370
:030bd50000cbb59d
:030bd60000cb87ca
:030bd70000cb58f8
:030bd80000cb2a25
:030bd90000cafc53
:030bda0000cace80
:030bdb0000caa0ad
:030bdc0000ca72da
:030bdd0000ca4308
:030bde0000ca1535
:030bdf0000c9e763
:030be00000c9b990
:030be10000c98bbd
:030be20000c95dea
:030be30000c92e18
:030be40000c90045
:030be50000c8d273
:030be60000c8a4a0
:030be70000c875ce
:030be80000c847fb
:030be90000c81928
:030bea0000c7eb56
:030beb0000c7bc84
:030bec0000c78eb1
:030bed0000c760de
:030bee0000c7310c
:030bef0000c70339
:030bf00000c6d567
:030bf10000c6a695
:030bf20000c678c2
:030bf30000c64aef
:030bf40000c61b1d
:030bf50000c5ed4b
:030bf60000c5bf78
:030bf70000c590a6
:030bf80000c562d3
:030bf90000c53400
:030bfa0000c5052e
:030bfb0000c4d75c
:030bfc0000c4a88a
:030bfd0000c47ab7
:030bfe0000c44ce4
:030bff0000c41d12
:030c000000c3ef3f
:030c010000c3c06d
:030c020000c3929a
:030c030000c363c8
:030c040000c335f5
:030c050000c30623
:030c060000c2d851
:030c070000c2a97f
:030c080000c27bac
:030c090000c24cda
:030c0a0000c21e07
:030c0b0000c1ef36
:030c0c0000c1c163
:030c0d0000c19291
:030c0e0000c164be
:030c0f0000c135ec
:030c100000c10719
:030c110000c0d848
:030c120000c0aa75
:030c130000c07ba3
:030c140000c04cd1
:030c150000c01efe
:030c160000bfef2d
:030c170000bfc15a
:030c180000bf9288
:030c190000bf63b6
:030c1a0000bf35e3
:030c1b0000bf0611
:030c1c0000bed83f
:030c1d0000bea96d
:030c1e0000be7a9b
:030c1f0000be4cc8
:030c200000be1df6
:030c210000bdee25
:030c220000bdc052
:030c230000bd9180
:030c240000bd62ae
:030c250000bd33dc
:030c260000bd0509
:030c270000bcd638
:030c280000bca766
:030c290000bc7993
:030c2a0000bc4ac1
:030c2b0000bc1bef
:030c2c0000bbec1e
:030c2d0000bbbe4b
:030c2e0000bb8f79
:030c2f0000bb60a7
:030c300000bb31d5
:030c310000bb0203
:030c320000bad431
:030c330000baa55f
:030c340000ba768d
:030c350000ba47bb
:030c360000ba18e9
:030c370000b9ea17
:030c380000b9bb45
:030c390000b98c73
:030c3a0000b95da1
:030c3b0000b92ecf
:030c3c0000b8fffe
:030c3d0000b8d02c
:030c3e0000b8a259
:030c3f0000b87387
:030c400000b844b5
:030c410000b815e3
:030c420000b7e612
:030c430000b7b740
:030c440000b7886e
:030c450000b7599c
:030c460000b72aca
:030c470000b6fbf9
:030c480000b6cc27
:030c490000b69d55
:030c4a0000b66e83
:030c4b0000b640b0
:030c4c0000b611de
:030c4d0000b5e20d
:030c4e0000b5b33b
:030c4f0000b58469
:030c500000b55597
:030c510000b526c5
:030c520000b4f7f4
:030c530000b4c822
:030c540000b49851
:030c550000b4697f
:030c560000b43aad
:030c570000b40bdb
:030c580000b3dc0a
:030c590000b3ad38
:030c5a0000b37e66
:030c5b0000b34f94
:030c5c0000b320c2
:030c5d0000b2f1f1
:030c5e0000b2c21f
:030c5f0000b2934d
:030c600000b2647b
:030c610000b234aa
:030c620000b205d8
:030c630000b1d607
:030c640000b1a735
:030c650000b17863
:030c660000b14991
:030c670000b11abf
:030c680000b0eaef
:030c690000b0bb1d
:030c6a0000b08c4b
:030c6b0000b05d79
:030c6c0000b02ea7
:030c6d0000afffd6
:030c6e0000afcf05
:030c6f0000afa033
:030c700000af7161
:030c710000af428f
:030c720000af12be
:030c730000aee3ed
:030c740000aeb41b
:030c750000ae8549
:030c760000ae5578
:030c770000ae26a6
:030c780000adf7d5
:030c790000adc803
:030c7a0000ad9832
:030c7b0000ad6960
:030c7c0000ad3a8e
:030c7d0000ad0abd
:030c7e0000acdbec
:030c7f0000acac1a
:030c800000ac7c49
:030c810000ac4d77
:030c820000ac1ea5
:030c830000abeed5
:030c840000abbf03
:030c850000ab9031
:030c860000ab6060
:030c870000ab318e
:030c880000ab02bc
:030c890000aad2ec
:030c8a0000aaa31a
:030c8b0000aa7448
:030c8c0000aa4477
:030c8d0000aa15a5
:030c8e0000a9e5d5
:030c8f0000a9b603
:030c900000a98632
:030c910000a95760
:030c920000a9288e
:030c930000a8f8be
:030c940000a8c9ec
:030c950000a8991b
:030c960000a86a49
:030c970000a83a78
:030c980000a80ba6
:030c990000a7dbd6
:030c9a0000a7ac04
:030c9b0000a77c33
:030c9c0000a74d61
:030c9d0000a71d90
:030c9e0000a6eebf
:030c9f0000a6beee
:030ca00000a68f1c
:030ca10000a65f4b
:030ca20000a63079
:030ca30000a600a8
:030ca40000a5d1d7
:030ca50000a5a106
:030ca60000a57135
:030ca70000a54263
:030ca80000a51292
:030ca90000a4e3c1
:030caa0000a4b3f0
:030cab0000a4841e
:030cac0000a4544d
:030cad0000a4247c
:030cae0000a3f5ab
:030caf0000a3c5da
:030cb00000a39509
:030cb10000a36637
:030cb20000a33666
:030cb30000a30794
:030cb40000a2d7c4
:030cb50000a2a7f3
:030cb60000a27821
:030cb70000a24850
:030cb80000a2187f
:030cb90000a1e9ae
:030cba0000a1b9dd
:030cbb0000a1890c
:030cbc0000a1593b
:030cbd0000a12a69
:030cbe0000a0fa99
:030cbf0000a0cac8
:030cc00000a09bf6
:030cc10000a06b25
:030cc20000a03b54
:030cc30000a00b83
:030cc400009fdcb2
:030cc500009face1
:030cc600009f7c10
:030cc700009f4c3f
:030cc800009f1d6d
:030cc900009eed9d
:030cca00009ebdcc
:030ccb00009e8dfb
:030ccc00009e5d2a
:030ccd00009e2e58
:030cce00009dfe88
:030ccf00009dceb7
:030cd000009d9ee6
:030cd100009d6e15
:030cd200009d3f43
:030cd300009d0f72
:030cd400009cdfa2
:030cd500009cafd1
:030cd600009c7f00
:030cd700009c4f2f
:030cd800009c1f5e
:030cd900009bf08d
:030cda00009bc0bc
:030cdb00009b90eb
:030cdc00009b601a
:030cdd00009b3049
:030cde00009b0078
:030cdf00009ad0a8
:030ce000009aa0d7
:030ce100009a7006
:030ce200009a4035
:030ce300009a1064
:030ce4000099e193
:030ce5000099b1c2
:030ce600009981f1
:030ce70000995120
:030ce8000099214f
:030ce9000098f17f
:030cea000098c1ae
:030ceb00009891dd
:030cec000098610c
:030ced000098313b
:030cee000098016a
:030cef000097d19a
:030cf0000097a1c9
:030cf100009771f8
:030cf20000974127
:030cf30000971156
:030cf4000096e186
:030cf5000096b1b5
:030cf600009681e4
:030cf70000965113
:030cf80000962142
:030cf9000095f073
:030cfa000095c0a2
:030cfb00009590d1
:030cfc0000956000
:030cfd000095302f
:030cfe000095005e
:030cff000094d08e
:030d00000094a0bc
:030d0100009470eb
:030d02000094401a
:030d030000941049
:030d04000093df7a
:030d05000093afa9
:030d060000937fd8
:030d070000934f07
:030d080000931f36
:030d09000092ef66
:030d0a000092bf95
:030d0b0000928ec5
:030d0c0000925ef4
:030d0d0000922e23
:030d0e000091fe53
:030d0f000091ce82
:030d100000919eb1
:030d110000916de1
:030d120000913d10
:030d130000910d3f
:030d14000090dd6f
:030d15000090ad9e
:030d160000907cce
:030d170000904cfd
:030d180000901c2c
:030d1900008fec5c
:030d1a00008fbb8c
:030d1b00008f8bbb
:030d1c00008f5bea
:030d1d00008f2b19
:030d1e00008efa4a
:030d1f00008eca79
:030d2000008e9aa8
:030d2100008e6ad7
:030d2200008e3907
:030d2300008e0936
:030d2400008dd966
:030d2500008da896
:030d2600008d78c5
:030d2700008d48f4
:030d2800008d1724
:030d2900008ce754
:030d2a00008cb783
:030d2b00008c86b3
:030d2c00008c56e2
:030d2d00008c2611
:030d2e00008bf542
:030d2f00008bc571
:030d3000008b95a0
:030d3100008b64d0
:030d3200008b34ff
:030d3300008b042e
:030d3400008ad35f
:030d3500008aa38e
:030d3600008a72be
:030d3700008a42ed
:030d3800008a121c
:030d39000089e14d
:030d3a000089b17c
:030d3b00008980ac
:030d3c00008950db
:030d3d000089200a
:030d3e000088ef3b
:030d3f000088bf6a
:030d400000888e9a
:030d410000885ec9
:030d420000882df9
:030d43000087fd29
:030d44000087cc59
:030d450000879c88
:030d460000876cb7
:030d470000873be7
:030d480000870b16
:030d49000086da47
:030d4a000086aa76
:030d4b00008679a6
:030d4c00008649d5
:030d4d0000861805
:030d4e000085e835
:030d4f000085b765
:030d500000858794
:030d5100008556c4
:030d5200008525f4
:030d53000084f524
:030d54000084c454
:030d550000849483
:030d5600008463b3
:030d5700008433e2
:030d580000840212
:030d59000083d242
:030d5a000083a172
:030d5b00008370a2
:030d5c00008340d1
:030d5d0000830f01
:030d5e000082df31
:030d5f000082ae61
:030d600000827d91
:030d610000824dc0
:030d620000821cf0
:030d63000081ec20
:030d64000081bb50
:030d650000818a80
:030d660000815aaf
:030d6700008129df
:030d68000080f810
:030d69000080c83f
:030d6a000080976f
:030d6b000080679e
:030d6c00008036ce
:030d6d00008005fe
:030d6e00007fd52e
:030d6f00007fa45e
:030d7000007f738e
:030d7100007f43bd
:030d7200007f12ed
:030d7300007ee11e
:030d7400007eb04e
:030d7500007e807d
:030d7600007e4fad
:030d7700007e1edd
:030d7800007dee0d
:030d7900007dbd3d
:030d7a00007d8c6d
:030d7b00007d5b9d
:030d7c00007d2bcc
:030d7d00007cfafd
:030d7e00007cc92d
:030d7f00007c985d
:030d8000007c688c
:030d8100007c37bc
:030d8200007c06ec
:030d8300007bd51d
:030d8400007ba54c
:030d8500007b747c
:030d8600007b43ac
:030d8700007b12dc
:030d8800007ae10d
:030d8900007ab13c
:030d8a00007a806c
:030d8b00007a4f9c
:030d8c00007a1ecc
:030d8d000079edfd
:030d8e000079bd2c
:030d8f0000798c5c
:030d900000795b8c
:030d910000792abc
:030d92000078f9ed
:030d93000078c81d
:030d94000078984c
:030d95000078677c
:030d9600007836ac
:030d9700007805dc
:030d98000077d40d
:030d99000077a33d
:030d9a000077726d
:030d9b000077419d
:030d9c00007711cc
:030d9d000076e0fd
:030d9e000076af2d
:030d9f0000767e5d
:030da00000764d8d
:030da10000761cbd
:030da2000075ebee
:030da3000075ba1e
:030da4000075894e
:030da5000075587e
:030da600007528ad
:030da7000074f7de
:030da8000074c60e
:030da9000074953e
:030daa000074646e
:030dab000074339e
:030dac00007402ce
:030dad000073d1ff
:030dae000073a02f
:030daf0000736f5f
:030db00000733e8f
:030db10000730dbf
:030db2000072dcf0
:030db3000072ab20
:030db40000727a50
:030db50000724980
:030db600007218b0
:030db7000071e7e1
:030db8000071b611
:030db90000718541
:030dba0000715471
:030dbb00007123a1
:030dbc000070f2d2
:030dbd000070c102
:030dbe0000709032
:030dbf0000705f62
:030dc00000702e92
:030dc100006ffdc3
:030dc200006fccf3
:030dc300006f9b23
:030dc400006f6a53
:030dc500006f3983
:030dc600006f07b4
:030dc700006ed6e5
:030dc800006ea515
:030dc900006e7445
:030dca00006e4375
:030dcb00006e12a5
:030dcc00006de1d6
:030dcd00006db006
:030dce00006d7f36
:030dcf00006d4e66
:030dd000006d1d96
:030dd100006cebc8
:030dd200006cbaf8
:030dd300006c8928
:030dd400006c5858
:030dd500006c2788
:030dd600006bf6b9
:030dd700006bc5e9
:030dd800006b9419
:030dd900006b624a
:030dda00006b317a
:030ddb00006b00aa
:030ddc00006acfdb
:030ddd00006a9e0b
:030dde00006a6d3b
:030ddf00006a3b6c
:030de000006a0a9c
:030de1000069d9cd
:030de2000069a8fd
