:03000000000000fd
:0300010003ffce2c
:0300020003ff9b5e
:0300030003ff698f
:0300040003ff37c0
:0300050003ff05f1
:0300060003fed224
:0300070003fea055
:0300080003fe6e86
:0300090003fe3cb7
:03000a0003fe09e9
:03000b0003fdd71b
:03000c0003fda54c
:03000d0003fd737d
:03000e0003fd40af
:03000f0003fd0ee0
:0300100003fcdc12
:0300110003fca944
:0300120003fc7775
:0300130003fc45a6
:0300140003fc13d7
:0300150003fbe00a
:0300160003fbae3b
:0300170003fb7c6c
:0300180003fb4a9d
:0300190003fb17cf
:03001a0003fae501
:03001b0003fab332
:03001c0003fa8163
:03001d0003fa4e95
:03001e0003fa1cc6
:03001f0003f9eaf8
:0300200003f9b829
:0300210003f9855b
:0300220003f9538c
:0300230003f921bd
:0300240003f8efef
:0300250003f8bc21
:0300260003f88a52
:0300270003f85883
:0300280003f825b5
:0300290003f7f3e7
:03002a0003f7c118
:03002b0003f78f49
:03002c0003f75c7b
:03002d0003f72aac
:03002e0003f6f8de
:03002f0003f6c60f
:0300300003f69341
:0300310003f66172
:0300320003f62fa3
:0300330003f5fdd5
:0300340003f5ca07
:0300350003f59838
:0300360003f56669
:0300370003f5349a
:0300380003f501cc
:0300390003f4cffe
:03003a0003f49d2f
:03003b0003f46b60
:03003c0003f43892
:03003d0003f406c3
:03003e0003f3d4f5
:03003f0003f3a226
:0300400003f36f58
:0300410003f33d89
:0300420003f30bba
:0300430003f2d9ec
:0300440003f2a61e
:0300450003f2744f
:0300460003f24280
:0300470003f210b1
:0300480003f1dde4
:0300490003f1ab15
:03004a0003f17946
:03004b0003f14777
:03004c0003f114a9
:03004d0003f0e2db
:03004e0003f0b00c
:03004f0003f07e3d
:0300500003f04b6f
:0300510003f019a0
:0300520003efe7d2
:0300530003efb503
:0300540003ef8235
:0300550003ef5066
:0300560003ef1e97
:0300570003eeecc9
:0300580003eebafa
:0300590003ee872c
:03005a0003ee555d
:03005b0003ee238e
:03005c0003edf1c0
:03005d0003edbef2
:03005e0003ed8c23
:03005f0003ed5a54
:0300600003ed2885
:0300610003ecf5b8
:0300620003ecc3e9
:0300630003ec911a
:0300640003ec5f4b
:0300650003ec2c7d
:0300660003ebfaaf
:0300670003ebc8e0
:0300680003eb9611
:0300690003eb6442
:03006a0003eb3174
:03006b0003eaffa6
:03006c0003eacdd7
:03006d0003ea9b08
:03006e0003ea683a
:03006f0003ea366b
:0300700003ea049c
:0300710003e9d2ce
:0300720003e9a0ff
:0300730003e96d31
:0300740003e93b62
:0300750003e90993
:0300760003e8d7c5
:0300770003e8a5f6
:0300780003e87228
:0300790003e84059
:03007a0003e80e8a
:03007b0003e7dcbc
:03007c0003e7a9ee
:03007d0003e7771f
:03007e0003e74550
:03007f0003e71381
:0300800003e6e1b3
:0300810003e6aee5
:0300820003e67c16
:0300830003e64a47
:0300840003e61878
:0300850003e5e6aa
:0300860003e5b3dc
:0300870003e5810d
:0300880003e54f3e
:0300890003e51d6f
:03008a0003e4eba1
:03008b0003e4b8d3
:03008c0003e48604
:03008d0003e45435
:03008e0003e42266
:03008f0003e3f098
:0300900003e3bec9
:0300910003e38bfb
:0300920003e3592c
:0300930003e3275d
:0300940003e2f58f
:0300950003e2c3c0
:0300960003e290f2
:0300970003e25e23
:0300980003e22c54
:0300990003e1fa86
:03009a0003e1c8b7
:03009b0003e195e9
:03009c0003e1631a
:03009d0003e1314b
:03009e0003e0ff7d
:03009f0003e0cdae
:0300a00003e09bdf
:0300a10003e06811
:0300a20003e03642
:0300a30003e00473
:0300a40003dfd2a5
:0300a50003dfa0d6
:0300a60003df6e07
:0300a70003df3b39
:0300a80003df096a
:0300a90003ded79c
:0300aa0003dea5cd
:0300ab0003de73fe
:0300ac0003de412f
:0300ad0003de0f60
:0300ae0003dddc93
:0300af0003ddaac4
:0300b00003dd78f5
:0300b10003dd4626
:0300b20003dd1457
:0300b30003dce289
:0300b40003dcafbb
:0300b50003dc7dec
:0300b60003dc4b1d
:0300b70003dc194e
:0300b80003dbe780
:0300b90003dbb5b1
:0300ba0003db83e2
:0300bb0003db5014
:0300bc0003db1e45
:0300bd0003daec77
:0300be0003dabaa8
:0300bf0003da88d9
:0300c00003da560a
:0300c10003da243b
:0300c20003d9f26d
:0300c30003d9bf9f
:0300c40003d98dd0
:0300c50003d95b01
:0300c60003d92932
:0300c70003d8f764
:0300c80003d8c595
:0300c90003d893c6
:0300ca0003d861f7
:0300cb0003d82e29
:0300cc0003d7fc5b
:0300cd0003d7ca8c
:0300ce0003d798bd
:0300cf0003d766ee
:0300d00003d7341f
:0300d10003d70250
:0300d20003d6d082
:0300d30003d69eb3
:0300d40003d66ce4
:0300d50003d63916
:0300d60003d60747
:0300d70003d5d579
:0300d80003d5a3aa
:0300d90003d571db
:0300da0003d53f0c
:0300db0003d50d3d
:0300dc0003d4db6f
:0300dd0003d4a9a0
:0300de0003d477d1
:0300df0003d44502
:0300e00003d41234
:0300e10003d3e066
:0300e20003d3ae97
:0300e30003d37cc8
:0300e40003d34af9
:0300e50003d3182a
:0300e60003d2e65c
:0300e70003d2b48d
:0300e80003d282be
:0300e90003d250ef
:0300ea0003d21e20
:0300eb0003d1ec52
:0300ec0003d1ba83
:0300ed0003d188b4
:0300ee0003d156e5
:0300ef0003d12317
:0300f00003d0f149
:0300f10003d0bf7a
:0300f20003d08dab
:0300f30003d05bdc
:0300f40003d0290d
:0300f50003cff73f
:0300f60003cfc570
:0300f70003cf93a1
:0300f80003cf61d2
:0300f90003cf2f03
:0300fa0003cefd35
:0300fb0003cecb66
:0300fc0003ce9997
:0300fd0003ce67c8
:0300fe0003ce35f9
:0300ff0003ce032a
:0301000003cdd15b
:0301010003cd9f8c
:0301020003cd6dbd
:0301030003cd3bee
:0301040003cd091f
:0301050003ccd751
:0301060003cca582
:0301070003cc73b3
:0301080003cc41e4
:0301090003cc0f15
:03010a0003cbdd47
:03010b0003cbab78
:03010c0003cb79a9
:03010d0003cb47da
:03010e0003cb150b
:03010f0003cae33d
:0301100003cab16e
:0301110003ca7f9f
:0301120003ca4dd0
:0301130003ca1b01
:0301140003c9e933
:0301150003c9b764
:0301160003c98595
:0301170003c953c6
:0301180003c921f7
:0301190003c8ef29
:03011a0003c8bd5a
:03011b0003c88b8b
:03011c0003c859bc
:03011d0003c827ed
:03011e0003c7f51f
:03011f0003c7c350
:0301200003c79181
:0301210003c75fb2
:0301220003c72de3
:0301230003c6fb15
:0301240003c6c946
:0301250003c69777
:0301260003c665a8
:0301270003c633d9
:0301280003c6010a
:0301290003c5d03b
:03012a0003c59e6c
:03012b0003c56c9d
:03012c0003c53ace
:03012d0003c508ff
:03012e0003c4d631
:03012f0003c4a462
:0301300003c47293
:0301310003c440c4
:0301320003c40ef5
:0301330003c3dc27
:0301340003c3aa58
:0301350003c37889
:0301360003c346ba
:0301370003c315ea
:0301380003c2e31c
:0301390003c2b14d
:03013a0003c27f7e
:03013b0003c24daf
:03013c0003c21be0
:03013d0003c1e912
:03013e0003c1b743
:03013f0003c18574
:0301400003c154a4
:0301410003c122d5
:0301420003c0f007
:0301430003c0be38
:0301440003c08c69
:0301450003c05a9a
:0301460003c028cb
:0301470003bff6fd
:0301480003bfc42e
:0301490003bf935e
:03014a0003bf618f
:03014b0003bf2fc0
:03014c0003befdf2
:03014d0003becb23
:03014e0003be9954
:03014f0003be6785
:0301500003be36b5
:0301510003be04e6
:0301520003bdd218
:0301530003bda049
:0301540003bd6e7a
:0301550003bd3cab
:0301560003bd0bdb
:0301570003bcd90d
:0301580003bca73e
:0301590003bc756f
:03015a0003bc43a0
:03015b0003bc11d1
:03015c0003bbe002
:03015d0003bbae33
:03015e0003bb7c64
:03015f0003bb4a95
:0301600003bb18c6
:0301610003bae7f7
:0301620003bab528
:0301630003ba8359
:0301640003ba518a
:0301650003ba1fbb
:0301660003b9eeec
:0301670003b9bc1d
:0301680003b98a4e
:0301690003b9587f
:03016a0003b926b0
:03016b0003b8f5e1
:03016c0003b8c312
:03016d0003b89143
:03016e0003b85f74
:03016f0003b82ea4
:0301700003b7fcd6
:0301710003b7ca07
:0301720003b79838
:0301730003b76768
:0301740003b73599
:0301750003b703ca
:0301760003b6d1fc
:0301770003b69f2d
:0301780003b66e5d
:0301790003b63c8e
:03017a0003b60abf
:03017b0003b5d9f0
:03017c0003b5a721
:03017d0003b57552
:03017e0003b54383
:03017f0003b512b3
:0301800003b4e0e5
:0301810003b4ae16
:0301820003b47c47
:0301830003b44b77
:0301840003b419a8
:0301850003b3e7da
:0301860003b3b60a
:0301870003b3843b
:0301880003b3526c
:0301890003b3219c
:03018a0003b2efce
:03018b0003b2bdff
:03018c0003b28b30
:03018d0003b25a60
:03018e0003b22891
:03018f0003b1f6c3
:0301900003b1c5f3
:0301910003b19324
:0301920003b16155
:0301930003b13085
:0301940003b0feb7
:0301950003b0cce8
:0301960003b09b18
:0301970003b06949
:0301980003b0377a
:0301990003b006aa
:03019a0003afd4dc
:03019b0003afa20d
:03019c0003af713d
:03019d0003af3f6e
:03019e0003af0e9e
:03019f0003aedcd0
:0301a00003aeaa01
:0301a10003ae7931
:0301a20003ae4762
:0301a30003ae1593
:0301a40003ade4c4
:0301a50003adb2f5
:0301a60003ad8125
:0301a70003ad4f56
:0301a80003ad1d87
:0301a90003acecb8
:0301aa0003acbae9
:0301ab0003ac8919
:0301ac0003ac574a
:0301ad0003ac257b
:0301ae0003abf4ac
:0301af0003abc2dd
:0301b00003ab910d
:0301b10003ab5f3e
:0301b20003ab2e6e
:0301b30003aafca0
:0301b40003aacad1
:0301b50003aa9901
:0301b60003aa6732
:0301b70003aa3662
:0301b80003aa0493
:0301b90003a9d3c4
:0301ba0003a9a1f5
:0301bb0003a97025
:0301bc0003a93e56
:0301bd0003a90c87
:0301be0003a8dbb8
:0301bf0003a8a9e9
:0301c00003a87819
:0301c10003a8464a
:0301c20003a8157a
:0301c30003a7e3ac
:0301c40003a7b2dc
:0301c50003a7800d
:0301c60003a74f3d
:0301c70003a71d6e
:0301c80003a6ec9f
:0301c90003a6bad0
:0301ca0003a68900
:0301cb0003a65731
:0301cc0003a62661
:0301cd0003a5f493
:0301ce0003a5c3c3
:0301cf0003a591f4
:0301d00003a56024
:0301d10003a52e55
:0301d20003a4fd86
:0301d30003a4cbb7
:0301d40003a49ae7
:0301d50003a46917
:0301d60003a43748
:0301d70003a40678
:0301d80003a3d4aa
:0301d90003a3a3da
:0301da0003a3710b
:0301db0003a3403b
:0301dc0003a30e6c
:0301dd0003a2dd9d
:0301de0003a2accd
:0301df0003a27afe
:0301e00003a2492e
:0301e10003a2175f
:0301e20003a1e690
:0301e30003a1b5c0
:0301e40003a183f1
:0301e50003a15221
:0301e60003a12052
:0301e70003a0ef83
:0301e80003a0beb3
:0301e90003a08ce4
:0301ea0003a05b14
:0301eb0003a02945
:0301ec00039ff876
:0301ed00039fc7a6
:0301ee00039f95d7
:0301ef00039f6407
:0301f000039f3337
:0301f100039f0168
:0301f200039ed099
:0301f300039e9fc9
:0301f400039e6dfa
:0301f500039e3c2a
:0301f600039e0a5b
:0301f700039dd98c
:0301f800039da8bc
:0301f900039d77ec
:0301fa00039d451d
:0301fb00039d144d
:0301fc00039ce37e
:0301fd00039cb1af
:0301fe00039c80df
:0301ff00039c4f0f
:03020000039c1d3f
:03020100039bec70
:03020200039bbba0
:03020300039b89d1
:03020400039b5801
:03020500039b2731
:03020600039af662
:03020700039ac493
:03020800039a93c3
:03020900039a62f3
:03020a00039a3123
:03020b000399ff55
:03020c000399ce85
:03020d0003999db5
:03020e0003996be6
:03020f0003993a16
:0302100003990946
:030211000398d877
:030212000398a7a7
:03021300039875d8
:0302140003984408
:0302150003981338
:030216000397e269
:030217000397b09a
:0302180003977fca
:0302190003974efa
:03021a0003971d2a
:03021b000396ec5b
:03021c000396ba8c
:03021d00039689bc
:03021e00039658ec
:03021f000396271c
:030220000395f64d
:030221000395c57d
:03022200039593ae
:03022300039562de
:030224000395310e
:030225000395003e
:030226000394cf6f
:0302270003949e9f
:0302280003946cd0
:0302290003943b00
:03022a0003940a30
:03022b000393d961
:03022c000393a891
:03022d00039377c1
:03022e00039346f1
:03022f0003931521
:030230000392e353
:030231000392b283
:03023200039281b3
:03023300039250e3
:0302340003921f13
:030235000391ee44
:030236000391bd74
:0302370003918ca4
:0302380003915bd4
:0302390003912a04
:03023a000390f935
:03023b000390c766
:03023c0003909696
:03023d00039065c6
:03023e00039034f6
:03023f0003900326
:03024000038fd257
:03024100038fa187
:03024200038f70b7
:03024300038f3fe7
:03024400038f0e17
:03024500038edd48
:03024600038eac78
:03024700038e7ba8
:03024800038e4ad8
:03024900038e1908
:03024a00038de839
:03024b00038db769
:03024c00038d8699
:03024d00038d55c9
:03024e00038d24f9
:03024f00038cf32a
:03025000038cc25a
:03025100038c918a
:03025200038c60ba
:03025300038c2fea
:03025400038bfe1b
:03025500038bcd4b
:03025600038b9c7b
:03025700038b6bab
:03025800038b3adb
:03025900038b090b
:03025a00038ad83c
:03025b00038aa86b
:03025c00038a779b
:03025d00038a46cb
:03025e00038a15fb
:03025f000389e42c
:030260000389b35c
:030261000389828c
:03026200038951bc
:03026300038920ec
:030264000388ef1d
:030265000388bf4c
:0302660003888e7c
:0302670003885dac
:0302680003882cdc
:030269000387fb0d
:03026a000387ca3d
:03026b000387996d
:03026c000387689d
:03026d00038738cc
:03026e00038707fc
:03026f000386d62d
:030270000386a55d
:030271000386748d
:03027200038643bd
:03027300038613ec
:030274000385e21d
:030275000385b14d
:030276000385807d
:0302770003854fad
:0302780003851fdc
:030279000384ee0d
:03027a000384bd3d
:03027b0003848c6d
:03027c0003845b9d
:03027d0003842bcc
:03027e000383fafd
:03027f000383c92d
:030280000383985d
:030281000383688c
:03028200038337bc
:03028300038306ec
:030284000382d51d
:030285000382a54c
:030286000382747c
:03028700038243ac
:03028800038212dc
:030289000381e20c
:03028a000381b13c
:03028b000381806c
:03028c000381509b
:03028d0003811fcb
:03028e000380eefc
:03028f000380bd2c
:0302900003808d5b
:0302910003805c8b
:0302920003802bbb
:03029300037ffbeb
:03029400037fca1b
:03029500037f994b
:03029600037f697a
:03029700037f38aa
:03029800037f08d9
:03029900037ed70a
:03029a00037ea63a
:03029b00037e7669
:03029c00037e4599
:03029d00037e14c9
:03029e00037de4f9
:03029f00037db329
:0302a000037d8358
:0302a100037d5288
:0302a200037d21b8
:0302a300037cf1e8
:0302a400037cc018
:0302a500037c9047
:0302a600037c5f77
:0302a700037c2ea7
:0302a800037bfed7
:0302a900037bcd07
:0302aa00037b9d36
:0302ab00037b6c66
:0302ac00037b3c95
:0302ad00037b0bc5
:0302ae00037adbf5
:0302af00037aaa25
:0302b000037a7955
:0302b100037a4984
:0302b200037a18b4
:0302b3000379e8e4
:0302b4000379b714
:0302b50003798743
:0302b60003795673
:0302b700037926a2
:0302b8000378f5d3
:0302b9000378c502
:0302ba0003789432
:0302bb0003786461
:0302bc0003783490
:0302bd00037803c0
:0302be000377d3f0
:0302bf000377a220
:0302c0000377724f
:0302c1000377417f
:0302c200037711ae
:0302c3000376e0df
:0302c4000376b00e
:0302c5000376803d
:0302c60003764f6d
:0302c70003761f9c
:0302c8000375eecd
:0302c9000375befc
:0302ca0003758e2b
:0302cb0003755d5b
:0302cc0003752d8a
:0302cd000374fcbb
:0302ce000374ccea
:0302cf0003749c19
:0302d00003746b49
:0302d10003743b78
:0302d20003740ba7
:0302d3000373dad8
:0302d4000373aa07
:0302d50003737a36
:0302d60003734966
:0302d70003731995
:0302d8000372e9c5
:0302d9000372b8f5
:0302da0003728824
:0302db0003725853
:0302dc0003722783
:0302dd000371f7b3
:0302de000371c7e2
:0302df0003719612
:0302e00003716641
:0302e10003713670
:0302e2000371069f
:0302e3000370d5d0
:0302e4000370a5ff
:0302e5000370752e
:0302e6000370455d
:0302e7000370148d
:0302e800036fe4bd
:0302e900036fb4ec
:0302ea00036f841b
:0302eb00036f534b
:0302ec00036f237a
:0302ed00036ef3aa
:0302ee00036ec3d9
:0302ef00036e9308
:0302f000036e6238
:0302f100036e3267
:0302f200036e0296
:0302f300036dd2c6
:0302f400036da2f5
:0302f500036d7224
:0302f600036d4154
:0302f700036d1183
:0302f800036ce1b3
:0302f900036cb1e2
:0302fa00036c8111
:0302fb00036c5140
:0302fc00036c216f
:0302fd00036bf0a0
:0302fe00036bc0cf
:0302ff00036b90fe
:03030000036b602c
:03030100036b305b
:03030200036b008a
:03030300036ad0ba
:03030400036aa0e9
:03030500036a7018
:03030600036a4047
:03030700036a1076
:030308000369dfa7
:030309000369afd6
:03030a0003697f05
:03030b0003694f34
:03030c0003691f63
:03030d000368ef93
:03030e000368bfc2
:03030f0003688ff1
:0303100003685f20
:0303110003682f4f
:030312000367ff7f
:030313000367cfae
:0303140003679fdd
:0303150003676f0c
:0303160003673f3b
:0303170003670f6a
:030318000366df9a
:030319000366afc9
:03031a0003667ff8
:03031b0003664f27
:03031c0003661f56
:03031d000365f085
:03031e000365c0b4
:03031f00036590e3
:0303200003656012
:0303210003653041
:0303220003650070
:030323000364d0a0
:030324000364a0cf
:03032500036470fe
:030326000364402d
:030327000364105c
:030328000363e18b
:030329000363b1ba
:03032a00036381e9
:03032b0003635118
:03032c0003632147
:03032d000362f177
:03032e000362c1a6
:03032f00036292d4
:0303300003626203
:0303310003623232
:0303320003620261
:030333000361d291
:030334000361a3bf
:03033500036173ee
:030336000361431d
:030337000361134c
:030338000360e37c
:030339000360b4aa
:03033a00036084d9
:03033b0003605408
:03033c0003602437
:03033d00035ff566
:03033e00035fc595
:03033f00035f95c4
:03034000035f65f3
:03034100035f3621
:03034200035f0650
:03034300035ed680
:03034400035ea7ae
:03034500035e77dd
:03034600035e470c
:03034700035e173b
:03034800035de86a
:03034900035db899
:03034a00035d88c8
:03034b00035d59f6
:03034c00035d2925
:03034d00035cf955
:03034e00035cca83
:03034f00035c9ab2
:03035000035c6be0
:03035100035c3b0f
:03035200035c0b3e
:03035300035bdc6d
:03035400035bac9c
:03035500035b7ccb
:03035600035b4df9
:03035700035b1d28
:03035800035aee57
:03035900035abe86
:03035a00035a8fb4
:03035b00035a5fe3
:03035c00035a2f12
:03035d00035a0040
:03035e000359d070
:03035f000359a19e
:03036000035971cd
:03036100035942fb
:030362000359122a
:030363000358e359
:030364000358b388
:03036500035884b6
:03036600035854e5
:0303670003582513
:030368000357f543
:030369000357c671
:03036a00035796a0
:03036b00035767ce
:03036c00035737fd
:03036d000357082b
:03036e000356d85b
:03036f000356a989
:0303700003567ab7
:0303710003564ae6
:0303720003561b14
:030373000355eb44
:030374000355bc72
:0303750003558ca1
:0303760003555dcf
:0303770003552efd
:030378000354fe2d
:030379000354cf5b
:03037a000354a089
:03037b00035470b8
:03037c00035441e6
:03037d0003541214
:03037e000353e244
:03037f000353b372
:03038000035384a0
:03038100035354cf
:03038200035325fd
:030383000352f62c
:030384000352c65b
:0303850003529789
:03038600035268b7
:03038700035238e6
:0303880003520914
:030389000351da43
:03038a000351ab71
:03038b0003517ba0
:03038c0003514cce
:03038d0003511dfc
:03038e000350ee2b
:03038f000350be5a
:0303900003508f88
:03039100035060b6
:03039200035031e4
:0303930003500113
:03039400034fd242
:03039500034fa370
:03039600034f749e
:03039700034f45cc
:03039800034f16fa
:03039900034ee62a
:03039a00034eb758
:03039b00034e8886
:03039c00034e59b4
:03039d00034e2ae2
:03039e00034dfb11
:03039f00034dcc3f
:0303a000034d9c6e
:0303a100034d6d9c
:0303a200034d3eca
:0303a300034d0ff8
:0303a400034ce027
:0303a500034cb155
:0303a600034c8283
:0303a700034c53b1
:0303a800034c24df
:0303a900034bf50e
:0303aa00034bc63c
:0303ab00034b976a
:0303ac00034b6898
:0303ad00034b38c7
:0303ae00034b09f5
:0303af00034ada24
:0303b000034aab52
:0303b100034a7c80
:0303b200034a4dae
:0303b300034a1edc
:0303b4000349ef0b
:0303b5000349c039
:0303b60003499266
:0303b70003496394
:0303b800034934c2
:0303b900034905f0
:0303ba000348d61f
:0303bb000348a74d
:0303bc000348787b
:0303bd00034849a9
:0303be0003481ad7
:0303bf000347eb06
:0303c0000347bc34
:0303c10003478d62
:0303c20003475e90
:0303c300034730bd
:0303c400034701eb
:0303c5000346d21a
:0303c6000346a348
:0303c70003467476
:0303c800034645a4
:0303c900034616d2
:0303ca000345e800
:0303cb000345b92e
:0303cc0003458a5c
:0303cd0003455b8a
:0303ce0003452cb8
:0303cf000344fee6
:0303d0000344cf14
:0303d1000344a042
:0303d20003447170
:0303d3000344429e
:0303d400034414cb
:0303d5000343e5fa
:0303d6000343b628
:0303d70003438756
:0303d80003435983
:0303d90003432ab1
:0303da000342fbe0
:0303db000342cd0d
:0303dc0003429e3b
:0303dd0003426f69
:0303de0003424097
:0303df00034212c4
:0303e0000341e3f3
:0303e1000341b421
:0303e2000341864e
:0303e3000341577c
:0303e400034128aa
:0303e5000340fad8
:0303e6000340cb06
:0303e70003409d33
:0303e80003406e61
:0303e90003403f8f
:0303ea00034011bc
:0303eb00033fe2eb
:0303ec00033fb418
:0303ed00033f8546
:0303ee00033f5674
:0303ef00033f28a1
:0303f000033ef9d0
:0303f100033ecbfd
:0303f200033e9c2b
:0303f300033e6e58
:0303f400033e3f86
:0303f500033e11b3
:0303f600033de2e2
:0303f700033db40f
:0303f800033d853d
:0303f900033d576a
:0303fa00033d2898
:0303fb00033cfac6
:0303fc00033ccbf4
:0303fd00033c9d21
:0303fe00033c6e4f
:0303ff00033c407c
:03040000033c11a9
:03040100033be3d7
:03040200033bb405
:03040300033b8632
:03040400033b585f
:03040500033b298d
:03040600033afbbb
:03040700033acce9
:03040800033a9e16
:03040900033a7043
:03040a00033a4171
:03040b00033a139e
:03040c000339e5cc
:03040d000339b6fa
:03040e0003398827
:03040f0003395a54
:0304100003392b82
:030411000338fdb0
:030412000338cfdd
:030413000338a00b
:0304140003387238
:0304150003384465
:0304160003381593
:030417000337e7c1
:030418000337b9ee
:0304190003378b1b
:03041a0003375c49
:03041b0003372e76
:03041c00033700a3
:03041d000336d2d1
:03041e000336a3ff
:03041f000336752c
:0304200003364759
:0304210003361986
:030422000335ebb4
:030423000335bde1
:0304240003358e0f
:030425000335603c
:0304260003353269
:0304270003350496
:030428000334d6c4
:030429000334a8f1
:03042a000334791f
:03042b0003344b4c
:03042c0003341d79
:03042d000333efa7
:03042e000333c1d4
:03042f0003339301
:030430000333652e
:030431000333375b
:0304320003330988
:030433000332dbb6
:030434000332ade3
:0304350003327f10
:030436000332513d
:030437000332236a
:030438000331f499
:030439000331c6c6
:03043a00033198f3
:03043b0003316a20
:03043c0003313c4d
:03043d0003310f79
:03043e000330e1a7
:03043f000330b3d4
:0304400003308501
:030441000330572e
:030442000330295b
:03044300032ffb89
:03044400032fcdb6
:03044500032f9fe3
:03044600032f7110
:03044700032f433d
:03044800032f156a
:03044900032ee798
:03044a00032eb9c5
:03044b00032e8cf1
:03044c00032e5e1e
:03044d00032e304b
:03044e00032e0278
:03044f00032dd4a6
:03045000032da6d3
:03045100032d79ff
:03045200032d4b2c
:03045300032d1d59
:03045400032cef87
:03045500032cc1b4
:03045600032c94e0
:03045700032c660d
:03045800032c383a
:03045900032c0a67
:03045a00032bdd94
:03045b00032bafc1
:03045c00032b81ee
:03045d00032b531b
:03045e00032b2647
:03045f00032af875
:03046000032acaa2
:03046100032a9ccf
:03046200032a6ffb
:03046300032a4128
:03046400032a1355
:030465000329e682
:030466000329b8af
:0304670003298adc
:0304680003295d08
:0304690003292f35
:03046a0003290261
:03046b000328d48f
:03046c000328a6bc
:03046d00032879e8
:03046e0003284b15
:03046f0003281e41
:030470000327f06f
:030471000327c29c
:03047200032795c8
:03047300032767f5
:0304740003273a21
:0304750003270c4e
:030476000326df7b
:030477000326b1a8
:03047800032684d4
:0304790003265601
:03047a000326292d
:03047b000325fb5b
:03047c000325ce87
:03047d000325a0b4
:03047e00032573e0
:03047f000325450d
:0304800003251839
:030481000324ea67
:030482000324bd93
:03048300032490bf
:03048400032462ec
:0304850003243518
:0304860003240745
:030487000323da72
:030488000323ad9e
:0304890003237fcb
:03048a00032352f7
:03048b0003232523
:03048c000322f751
:03048d000322ca7d
:03048e0003229da9
:03048f0003226fd6
:0304900003224202
:030491000322152e
:030492000321e75c
:030493000321ba88
:0304940003218db4
:03049500032160e0
:030496000321320d
:0304970003210539
:030498000320d866
:030499000320ab92
:03049a0003207dbf
:03049b00032050eb
:03049c0003202317
:03049d00031ff644
:03049e00031fc871
:03049f00031f9b9d
:0304a000031f6ec9
:0304a100031f41f5
:0304a200031f1421
:0304a300031ee74e
:0304a400031eba7a
:0304a500031e8ca7
:0304a600031e5fd3
:0304a700031e32ff
:0304a800031e052b
:0304a900031dd858
:0304aa00031dab84
:0304ab00031d7eb0
:0304ac00031d51dc
:0304ad00031d2408
:0304ae00031cf735
:0304af00031cca61
:0304b000031c9c8e
:0304b100031c6fba
:0304b200031c42e6
:0304b300031c1512
:0304b400031be83f
:0304b500031bbb6b
:0304b600031b8e97
:0304b700031b61c3
:0304b800031b34ef
:0304b900031b071b
:0304ba00031adb47
:0304bb00031aae73
:0304bc00031a819f
:0304bd00031a54cb
:0304be00031a27f7
:0304bf000319fa24
:0304c0000319cd50
:0304c1000319a07c
:0304c200031973a8
:0304c300031946d4
:0304c40003191900
:0304c5000318ed2c
:0304c6000318c058
:0304c70003189384
:0304c800031866b0
:0304c900031839dc
:0304ca0003180c08
:0304cb000317e034
:0304cc000317b360
:0304cd000317868c
:0304ce00031759b8
:0304cf0003172de3
:0304d0000317000f
:0304d1000316d33c
:0304d2000316a668
:0304d30003167a93
:0304d40003164dbf
:0304d500031620eb
:0304d6000315f318
:0304d7000315c743
:0304d80003159a6f
:0304d90003156d9b
:0304da00031541c6
:0304db00031514f2
:0304dc000314e71f
:0304dd000314bb4a
:0304de0003148e76
:0304df00031461a2
:0304e000031435cd
:0304e100031408f9
:0304e2000313dc25
:0304e3000313af51
:0304e4000313827d
:0304e500031356a8
:0304e600031329d4
:0304e7000312fd00
:0304e8000312d02c
:0304e9000312a457
:0304ea0003127783
:0304eb0003124aaf
:0304ec0003121eda
:0304ed000311f107
:0304ee000311c532
:0304ef000311985e
:0304f00003116c89
:0304f100031140b4
:0304f200031113e0
:0304f3000310e70c
:0304f4000310ba38
:0304f50003108e63
:0304f6000310618f
:0304f700031035ba
:0304f800031008e6
:0304f900030fdc12
:0304fa00030fb03d
:0304fb00030f8369
:0304fc00030f5794
:0304fd00030f2bbf
:0304fe00030efeec
:0304ff00030ed217
:03050000030ea641
:03050100030e796d
:03050200030e4d98
:03050300030e21c3
:03050400030df4f0
:03050500030dc81b
:03050600030d9c46
:03050700030d6f72
:03050800030d439d
:03050900030d17c8
:03050a00030cebf4
:03050b00030cbe20
:03050c00030c924b
:03050d00030c6676
:03050e00030c3aa1
:03050f00030c0ecc
:03051000030be1f9
:03051100030bb524
:03051200030b894f
:03051300030b5d7a
:03051400030b31a5
:03051500030b05d0
:03051600030ad9fc
:03051700030aac28
:03051800030a8053
:03051900030a547e
:03051a00030a28a9
:03051b000309fcd5
:03051c000309d000
:03051d000309a42b
:03051e0003097856
:03051f0003094c81
:03052000030920ac
:030521000308f4d8
:030522000308c803
:0305230003089c2e
:0305240003087059
:0305250003084484
:03052600030818af
:030527000307ecdb
:030528000307c006
:0305290003079431
:03052a000307685c
:03052b0003073c87
:03052c00030710b2
:03052d000306e4de
:03052e000306b809
:03052f0003068c34
:030530000306605f
:030531000306348a
:03053200030609b4
:030533000305dde0
:030534000305b10b
:0305350003058536
:0305360003055961
:0305370003052d8c
:03053800030502b6
:030539000304d6e2
:03053a000304aa0d
:03053b0003047e38
:03053c0003045263
:03053d000304278d
:03053e000303fbb9
:03053f000303cfe4
:030540000303a30f
:0305410003037839
:0305420003034c64
:030543000303208f
:030544000302f4bb
:030545000302c9e5
:0305460003029d10
:030547000302713b
:0305480003024665
:0305490003021a90
:03054a000301eebc
:03054b000301c3e6
:03054c0003019711
:03054d0003016c3b
:03054e0003014066
:03054f0003011491
:030550000300e9bc
:030551000300bde7
:0305520003009211
:030553000300663c
:0305540003003b66
:0305550003000f91
:0305560002ffe3be
:0305570002ffb8e8
:0305580002ff8c13
:0305590002ff613d
:03055a0002ff3568
:03055b0002ff0a92
:03055c0002fedfbd
:03055d0002feb3e8
:03055e0002fe8812
:03055f0002fe5c3d
:0305600002fe3167
:0305610002fe0592
:0305620002fddabd
:0305630002fdaee8
:0305640002fd8312
:0305650002fd583c
:0305660002fd2c67
:0305670002fd0191
:0305680002fcd6bc
:0305690002fcaae7
:03056a0002fc7f11
:03056b0002fc543b
:03056c0002fc2866
:03056d0002fbfd91
:03056e0002fbd2bb
:03056f0002fba6e6
:0305700002fb7b10
:0305710002fb503a
:0305720002fb2564
:0305730002faf990
:0305740002faceba
:0305750002faa3e4
:0305760002fa780e
:0305770002fa4c39
:0305780002fa2163
:0305790002f9f68e
:03057a0002f9cbb8
:03057b0002f9a0e2
:03057c0002f9750c
:03057d0002f94937
:03057e0002f91e61
:03057f0002f8f38c
:0305800002f8c8b6
:0305810002f89de0
:0305820002f8720a
:0305830002f84734
:0305840002f81c5e
:0305850002f7f189
:0305860002f7c6b3
:0305870002f79ade
:0305880002f76f08
:0305890002f74432
:03058a0002f7195c
:03058b0002f6ee87
:03058c0002f6c3b1
:03058d0002f698db
:03058e0002f66d05
:03058f0002f6422f
:0305900002f61759
:0305910002f5ed83
:0305920002f5c2ad
:0305930002f597d7
:0305940002f56c01
:0305950002f5412b
:0305960002f51655
:0305970002f4eb80
:0305980002f4c0aa
:0305990002f495d4
:03059a0002f46afe
:03059b0002f44027
:03059c0002f41551
:03059d0002f3ea7c
:03059e0002f3bfa6
:03059f0002f394d0
:0305a00002f36af9
:0305a10002f33f23
:0305a20002f3144d
:0305a30002f2e978
:0305a40002f2bea2
:0305a50002f294cb
:0305a60002f269f5
:0305a70002f23e1f
:0305a80002f21349
:0305a90002f1e973
:0305aa0002f1be9d
:0305ab0002f193c7
:0305ac0002f169f0
:0305ad0002f13e1a
:0305ae0002f11344
:0305af0002f0e96e
:0305b00002f0be98
:0305b10002f093c2
:0305b20002f069eb
:0305b30002f03e15
:0305b40002f0143e
:0305b50002efe969
:0305b60002efbf92
:0305b70002ef94bc
:0305b80002ef69e6
:0305b90002ef3f0f
:0305ba0002ef1439
:0305bb0002eeea63
:0305bc0002eebf8d
:0305bd0002ee95b6
:0305be0002ee6ae0
:0305bf0002ee4009
:0305c00002ee1533
:0305c10002edeb5d
:0305c20002edc087
:0305c30002ed96b0
:0305c40002ed6cd9
:0305c50002ed4103
:0305c60002ed172c
:0305c70002ecec57
:0305c80002ecc280
:0305c90002ec98a9
:0305ca0002ec6dd3
:0305cb0002ec43fc
:0305cc0002ec1826
:0305cd0002ebee50
:0305ce0002ebc479
:0305cf0002eb99a3
:0305d00002eb6fcc
:0305d10002eb45f5
:0305d20002eb1b1e
:0305d30002eaf049
:0305d40002eac672
:0305d50002ea9c9b
:0305d60002ea72c4
:0305d70002ea47ee
:0305d80002ea1d17
:0305d90002e9f341
:0305da0002e9c96a
:0305db0002e99f93
:0305dc0002e974bd
:0305dd0002e94ae6
:0305de0002e9200f
:0305df0002e8f639
:0305e00002e8cc62
:0305e10002e8a28b
:0305e20002e877b5
:0305e30002e84dde
:0305e40002e82307
:0305e50002e7f931
:0305e60002e7cf5a
:0305e70002e7a583
:0305e80002e77bac
:0305e90002e751d5
:0305ea0002e727fe
:0305eb0002e6fd28
:0305ec0002e6d351
:0305ed0002e6a97a
:0305ee0002e67fa3
:0305ef0002e655cc
:0305f00002e62bf5
:0305f10002e6011e
:0305f20002e5d748
:0305f30002e5ad71
:0305f40002e5839a
:0305f50002e559c3
:0305f60002e52fec
:0305f70002e50515
:0305f80002e4dc3e
:0305f90002e4b267
:0305fa0002e48890
:0305fb0002e45eb9
:0305fc0002e434e2
:0305fd0002e40a0b
:0305fe0002e3e035
:0305ff0002e3b75d
:0306000002e38d85
:0306010002e363ae
:0306020002e339d7
:0306030002e310ff
:0306040002e2e629
:0306050002e2bc52
:0306060002e2927b
:0306070002e269a3
:0306080002e23fcc
:0306090002e215f5
:03060a0002e1eb1f
:03060b0002e1c247
:03060c0002e19870
:03060d0002e16e99
:03060e0002e145c1
:03060f0002e11bea
:0306100002e0f213
:0306110002e0c83c
:0306120002e09e65
:0306130002e0758d
:0306140002e04bb6
:0306150002e022de
:0306160002dff808
:0306170002dfce31
:0306180002dfa559
:0306190002df7b82
:03061a0002df52aa
:03061b0002df28d3
:03061c0002defffc
:03061d0002ded525
:03061e0002deac4d
:03061f0002de8276
:0306200002de599e
:0306210002de30c6
:0306220002de06ef
:0306230002dddd18
:0306240002ddb341
:0306250002dd8a69
:0306260002dd6092
:0306270002dd37ba
:0306280002dd0ee2
:0306290002dce40c
:03062a0002dcbb34
:03062b0002dc925c
:03062c0002dc6885
:03062d0002dc3fad
:03062e0002dc16d5
:03062f0002dbecff
:0306300002dbc327
:0306310002db9a4f
:0306320002db7177
:0306330002db47a0
:0306340002db1ec8
:0306350002daf5f1
:0306360002dacc19
:0306370002daa341
:0306380002da796a
:0306390002da5092
:03063a0002da27ba
:03063b0002d9fee3
:03063c0002d9d50b
:03063d0002d9ac33
:03063e0002d9825c
:03063f0002d95984
:0306400002d930ac
:0306410002d907d4
:0306420002d8defd
:0306430002d8b525
:0306440002d88c4d
:0306450002d86375
:0306460002d83a9d
:0306470002d811c5
:0306480002d7e8ee
:0306490002d7bf16
:03064a0002d7963e
:03064b0002d76d66
:03064c0002d7448e
:03064d0002d71bb6
:03064e0002d6f2df
:03064f0002d6c907
:0306500002d6a02f
:0306510002d67757
:0306520002d64e7f
:0306530002d625a7
:0306540002d5fdcf
:0306550002d5d4f7
:0306560002d5ab1f
:0306570002d58247
:0306580002d5596f
:0306590002d53097
:03065a0002d508be
:03065b0002d4dfe7
:03065c0002d4b60f
:03065d0002d48d37
:03065e0002d4645f
:03065f0002d43c86
:0306600002d413ae
:0306610002d3ead7
:0306620002d3c1ff
:0306630002d39926
:0306640002d3704e
:0306650002d34776
:0306660002d31f9d
:0306670002d2f6c6
:0306680002d2cdee
:0306690002d2a515
:03066a0002d27c3d
:03066b0002d25365
:03066c0002d22b8c
:03066d0002d202b4
:03066e0002d1dadc
:03066f0002d1b104
:0306700002d1892b
:0306710002d16053
:0306720002d1377b
:0306730002d10fa2
:0306740002d0e6cb
:0306750002d0bef2
:0306760002d0951a
:0306770002d06d41
:0306780002d04469
:0306790002d01c90
:03067a0002cff4b8
:03067b0002cfcbe0
:03067c0002cfa307
:03067d0002cf7a2f
:03067e0002cf5256
:03067f0002cf297e
:0306800002cf01a5
:0306810002ced9cd
:0306820002ceb0f5
:0306830002ce881c
:0306840002ce6043
:0306850002ce376b
:0306860002ce0f92
:0306870002cde7ba
:0306880002cdbee2
:0306890002cd9609
:03068a0002cd6e30
:03068b0002cd4657
:03068c0002cd1d7f
:03068d0002ccf5a7
:03068e0002cccdce
:03068f0002cca5f5
:0306900002cc7d1c
:0306910002cc5444
:0306920002cc2c6b
:0306930002cc0492
:0306940002cbdcba
:0306950002cbb4e1
:0306960002cb8c08
:0306970002cb642f
:0306980002cb3b57
:0306990002cb137e
:03069a0002caeba6
:03069b0002cac3cd
:03069c0002ca9bf4
:03069d0002ca731b
:03069e0002ca4b42
:03069f0002ca2369
:0306a00002c9fb91
:0306a10002c9d3b8
:0306a20002c9abdf
:0306a30002c98306
:0306a40002c95b2d
:0306a50002c93354
:0306a60002c90b7b
:0306a70002c8e3a3
:0306a80002c8bbca
:0306a90002c894f0
:0306aa0002c86c17
:0306ab0002c8443e
:0306ac0002c81c65
:0306ad0002c7f48d
:0306ae0002c7ccb4
:0306af0002c7a4db
:0306b00002c77d01
:0306b10002c75528
:0306b20002c72d4f
:0306b30002c70576
:0306b40002c6dd9e
:0306b50002c6b6c4
:0306b60002c68eeb
:0306b70002c66612
:0306b80002c63e39
:0306b90002c6175f
:0306ba0002c5ef87
:0306bb0002c5c7ae
:0306bc0002c5a0d4
:0306bd0002c578fb
:0306be0002c55022
:0306bf0002c52948
:0306c00002c5016f
:0306c10002c4d997
:0306c20002c4b2bd
:0306c30002c48ae4
:0306c40002c4630a
:0306c50002c43b31
:0306c60002c41358
:0306c70002c3ec7f
:0306c80002c3c4a6
:0306c90002c39dcc
:0306ca0002c375f3
:0306cb0002c34e19
:0306cc0002c32640
:0306cd0002c2ff67
:0306ce0002c2d78e
:0306cf0002c2b0b4
:0306d00002c288db
:0306d10002c26101
:0306d20002c23a27
:0306d30002c2124e
:0306d40002c1eb75
:0306d50002c1c39c
:0306d60002c19cc2
:0306d70002c175e8
:0306d80002c14d0f
:0306d90002c12635
:0306da0002c0ff5c
:0306db0002c0d783
:0306dc0002c0b0a9
:0306dd0002c089cf
:0306de0002c062f5
:0306df0002c03a1c
:0306e00002c01342
:0306e10002bfec69
:0306e20002bfc58f
:0306e30002bf9db6
:0306e40002bf76dc
:0306e50002bf4f02
:0306e60002bf2828
:0306e70002bf014e
:0306e80002bed976
:0306e90002beb29c
:0306ea0002be8bc2
:0306eb0002be64e8
:0306ec0002be3d0e
:0306ed0002be1634
:0306ee0002bdef5b
:0306ef0002bdc881
:0306f00002bda1a7
:0306f10002bd7acd
:0306f20002bd53f3
:0306f30002bd2c19
:0306f40002bd053f
:0306f50002bcde66
:0306f60002bcb78c
:0306f70002bc90b2
:0306f80002bc69d8
:0306f90002bc42fe
:0306fa0002bc1b24
:0306fb0002bbf44b
:0306fc0002bbcd71
:0306fd0002bba697
:0306fe0002bb7fbd
:0306ff0002bb58e3
:0307000002bb3108
:0307010002bb0b2d
:0307020002bae454
:0307030002babd7a
:0307040002ba96a0
:0307050002ba6fc6
:0307060002ba49eb
:0307070002ba2211
:0307080002b9fb38
:0307090002b9d45e
:03070a0002b9ad84
:03070b0002b987a9
:03070c0002b960cf
:03070d0002b939f5
:03070e0002b9131a
:03070f0002b8ec41
:0307100002b8c567
:0307110002b89f8c
:0307120002b878b2
:0307130002b851d8
:0307140002b82bfd
:0307150002b80423
:0307160002b7de49
:0307170002b7b76f
:0307180002b79095
:0307190002b76aba
:03071a0002b743e0
:03071b0002b71d05
:03071c0002b6f62c
:03071d0002b6d051
:03071e0002b6a977
:03071f0002b6839c
:0307200002b65cc2
:0307210002b636e7
:0307220002b60f0d
:0307230002b5e933
:0307240002b5c358
:0307250002b59c7e
:0307260002b576a3
:0307270002b54fc9
:0307280002b529ee
:0307290002b50313
:03072a0002b4dc3a
:03072b0002b4b65f
:03072c0002b49084
:03072d0002b469aa
:03072e0002b443cf
:03072f0002b41df4
:0307300002b3f71a
:0307310002b3d040
:0307320002b3aa65
:0307330002b3848a
:0307340002b35eaf
:0307350002b337d5
:0307360002b311fa
:0307370002b2eb20
:0307380002b2c545
:0307390002b29f6a
:03073a0002b2798f
:03073b0002b252b5
:03073c0002b22cda
:03073d0002b206ff
:03073e0002b1e025
:03073f0002b1ba4a
:0307400002b1946f
:0307410002b16e94
:0307420002b148b9
:0307430002b122de
:0307440002b0fc04
:0307450002b0d629
:0307460002b0b04e
:0307470002b08a73
:0307480002b06498
:0307490002b03ebd
:03074a0002b018e2
:03074b0002aff208
:03074c0002afcc2d
:03074d0002afa652
:03074e0002af8077
:03074f0002af5a9c
:0307500002af35c0
:0307510002af0fe5
:0307520002aee90b
:0307530002aec330
:0307540002ae9d55
:0307550002ae777a
:0307560002ae529e
:0307570002ae2cc3
:0307580002ae06e8
:0307590002ade00e
:03075a0002adbb32
:03075b0002ad9557
:03075c0002ad6f7c
:03075d0002ad4aa0
:03075e0002ad24c5
:03075f0002acfeeb
:0307600002acd90f
:0307610002acb334
:0307620002ac8d59
:0307630002ac687d
:0307640002ac42a2
:0307650002ac1cc7
:0307660002abf7ec
:0307670002abd111
:0307680002abac35
:0307690002ab865a
:03076a0002ab617e
:03076b0002ab3ba3
:03076c0002ab16c7
:03076d0002aaf0ed
:03076e0002aacb11
:03076f0002aaa536
:0307700002aa805a
:0307710002aa5a7f
:0307720002aa35a3
:0307730002aa0fc8
:0307740002a9eaed
:0307750002a9c511
:0307760002a99f36
:0307770002a97a5a
:0307780002a9547f
:0307790002a92fa3
:03077a0002a90ac7
:03077b0002a8e4ed
:03077c0002a8bf11
:03077d0002a89a35
:03077e0002a87559
:03077f0002a84f7e
:0307800002a82aa2
:0307810002a805c6
:0307820002a7e0eb
:0307830002a7ba10
:0307840002a79534
:0307850002a77058
:0307860002a74b7c
:0307870002a726a0
:0307880002a701c4
:0307890002a6dbea
:03078a0002a6b60e
:03078b0002a69132
:03078c0002a66c56
:03078d0002a6477a
:03078e0002a6229e
:03078f0002a5fdc3
:0307900002a5d8e7
:0307910002a5b30b
:0307920002a58e2f
:0307930002a56953
:0307940002a54477
:0307950002a51f9b
:0307960002a4fac0
:0307970002a4d5e4
:0307980002a4b008
:0307990002a48b2c
:03079a0002a46650
:03079b0002a44174
:03079c0002a41c98
:03079d0002a3f7bd
:03079e0002a3d3e0
:03079f0002a3ae04
:0307a00002a38928
:0307a10002a3644c
:0307a20002a33f70
:0307a30002a31b93
:0307a40002a2f6b8
:0307a50002a2d1dc
:0307a60002a2ac00
:0307a70002a28724
:0307a80002a26347
:0307a90002a23e6b
:0307aa0002a2198f
:0307ab0002a1f5b3
:0307ac0002a1d0d7
:0307ad0002a1abfb
:0307ae0002a1871e
:0307af0002a16242
:0307b00002a13d66
:0307b10002a11989
:0307b20002a0f4ae
:0307b30002a0d0d1
:0307b40002a0abf5
:0307b50002a08619
:0307b60002a0623c
:0307b70002a03d60
:0307b80002a01983
:0307b900029ff4a8
:0307ba00029fd0cb
:0307bb00029fabef
:0307bc00029f8712
:0307bd00029f6335
:0307be00029f3e59
:0307bf00029f1a7c
:0307c000029ef5a1
:0307c100029ed1c4
:0307c200029eace8
:0307c300029e880b
:0307c400029e642e
:0307c500029e3f52
:0307c600029e1b75
:0307c700029df799
:0307c800029dd2bd
:0307c900029daee0
:0307ca00029d8a03
:0307cb00029d6626
:0307cc00029d414a
:0307cd00029d1d6d
:0307ce00029cf991
:0307cf00029cd5b4
:0307d000029cb0d8
:0307d100029c8cfb
:0307d200029c681e
:0307d300029c4441
:0307d400029c2064
:0307d500029bfc88
:0307d600029bd8ab
:0307d700029bb3cf
:0307d800029b8ff2
:0307d900029b6b15
:0307da00029b4738
:0307db00029b235b
:0307dc00029aff7f
:0307dd00029adba2
:0307de00029ab7c5
:0307df00029a93e8
:0307e000029a6f0b
:0307e100029a4b2e
:0307e200029a2751
:0307e300029a0374
:0307e4000299df98
:0307e5000299bbbb
:0307e600029998dd
:0307e70002997400
:0307e80002995023
:0307e90002992c46
:0307ea0002990869
:0307eb000298e48d
:0307ec000298c0b0
:0307ed0002989dd2
:0307ee00029879f5
:0307ef0002985518
:0307f0000298313b
:0307f10002980d5e
:0307f2000297ea81
:0307f3000297c6a4
:0307f4000297a2c7
:0307f50002977fe9
:0307f60002975b0c
:0307f7000297372f
:0307f80002971451
:0307f9000296f075
:0307fa000296cc98
:0307fb000296a9ba
:0307fc00029685dd
:0307fd0002966100
:0307fe0002963e22
:0307ff0002961a45
:030800000295f767
:030801000295d38a
:030802000295b0ac
:0308030002958ccf
:03080400029569f1
:0308050002954514
:0308060002952236
:030807000294fe5a
:030808000294db7c
:030809000294b79f
:03080a00029494c1
:03080b00029471e3
:03080c0002944d06
:03080d0002942a28
:03080e000294074a
:03080f000293e36e
:030810000293c090
:0308110002939db2
:03081200029379d5
:03081300029356f7
:0308140002933319
:0308150002930f3c
:030816000292ec5f
:030817000292c981
:030818000292a6a3
:03081900029283c5
:03081a0002925fe8
:03081b0002923c0a
:03081c000292192c
:03081d000291f64f
:03081e000291d371
:03081f000291b093
:0308200002918cb6
:03082100029169d8
:03082200029146fa
:030823000291231c
:030824000291003e
:030825000290dd61
:030826000290ba83
:03082700029097a5
:03082800029074c7
:03082900029051e9
:03082a0002902e0b
:03082b0002900b2d
:03082c00028fe850
:03082d00028fc572
:03082e00028fa294
:03082f00028f7fb6
:03083000028f5dd7
:03083100028f3af9
:03083200028f171b
:03083300028ef43e
:03083400028ed160
:03083500028eae82
:03083600028e8ca3
:03083700028e69c5
:03083800028e46e7
:03083900028e2309
:03083a00028e002b
:03083b00028dde4d
:03083c00028dbb6f
:03083d00028d9891
:03083e00028d76b2
:03083f00028d53d4
:03084000028d30f6
:03084100028d0e17
:03084200028ceb3a
:03084300028cc85c
:03084400028ca67d
:03084500028c839f
:03084600028c61c0
:03084700028c3ee2
:03084800028c1b04
:03084900028bf926
:03084a00028bd648
:03084b00028bb469
:03084c00028b918b
:03084d00028b6fac
:03084e00028b4cce
:03084f00028b2aef
:03085000028b0711
:03085100028ae533
:03085200028ac354
:03085300028aa076
:03085400028a7e97
:03085500028a5bb9
:03085600028a39da
:03085700028a17fb
:030858000289f41e
:030859000289d23f
:03085a000289b060
:03085b0002898e81
:03085c0002896ba3
:03085d00028949c4
:03085e00028927e5
:03085f0002890407
:030860000288e229
:030861000288c04a
:0308620002889e6b
:0308630002887c8c
:0308640002885aad
:03086500028837cf
:03086600028815f0
:030867000287f312
:030868000287d133
:030869000287af54
:03086a0002878d75
:03086b0002876b96
:03086c00028749b7
:03086d00028727d8
:03086e00028705f9
:03086f000286e31b
:030870000286c13c
:0308710002869f5d
:0308720002867d7e
:0308730002865b9f
:03087400028639c0
:03087500028617e1
:030876000285f503
:030877000285d324
:030878000285b145
:0308790002858f66
:03087a0002856e86
:03087b0002854ca7
:03087c0002852ac8
:03087d00028508e9
:03087e000284e60b
:03087f000284c52b
:030880000284a34c
:030881000284816d
:0308820002845f8e
:0308830002843eae
:0308840002841ccf
:030885000283faf1
:030886000283d911
:030887000283b732
:0308880002839553
:0308890002837473
:03088a0002835294
:03088b00028330b5
:03088c0002830fd5
:03088d000282edf7
:03088e000282cc17
:03088f000282aa38
:0308900002828958
:0308910002826779
:0308920002824699
:03089300028224ba
:03089400028203da
:030895000281e1fc
:030896000281c01c
:0308970002819e3d
:0308980002817d5d
:0308990002815b7e
:03089a0002813a9e
:03089b00028119be
:03089c000280f7e0
:03089d000280d600
:03089e000280b520
:03089f0002809341
:0308a00002807261
:0308a10002805181
:0308a20002802fa2
:0308a30002800ec2
:0308a400027fede3
:0308a500027fcc03
:0308a600027faa24
:0308a700027f8944
:0308a800027f6864
:0308a900027f4784
:0308aa00027f26a4
:0308ab00027f05c4
:0308ac00027ee3e6
:0308ad00027ec206
:0308ae00027ea126
:0308af00027e8046
:0308b000027e5f66
:0308b100027e3e86
:0308b200027e1da6
:0308b300027dfcc7
:0308b400027ddbe7
:0308b500027dba07
:0308b600027d9927
:0308b700027d7847
:0308b800027d5767
:0308b900027d3687
:0308ba00027d15a7
:0308bb00027cf4c8
:0308bc00027cd3e8
:0308bd00027cb208
:0308be00027c9227
:0308bf00027c7147
:0308c000027c5067
:0308c100027c2f87
:0308c200027c0ea7
:0308c300027bedc8
:0308c400027bcde7
:0308c500027bac07
:0308c600027b8b27
:0308c700027b6a47
:0308c800027b4a66
:0308c900027b2986
:0308ca00027b08a6
:0308cb00027ae8c6
:0308cc00027ac7e6
:0308cd00027aa606
:0308ce00027a8625
:0308cf00027a6545
:0308d000027a4465
:0308d100027a2484
:0308d200027a03a4
:0308d3000279e3c4
:0308d4000279c2e4
:0308d5000279a203
:0308d60002798123
:0308d70002796142
:0308d80002794062
:0308d90002792081
:0308da000278ffa2
:0308db000278dfc1
:0308dc000278bee1
:0308dd0002789e00
:0308de0002787e1f
:0308df0002785d3f
:0308e00002783d5e
:0308e10002781c7e
:0308e2000277fc9e
:0308e3000277dcbd
:0308e4000277bbdd
:0308e50002779bfc
:0308e60002777b1b
:0308e70002775b3a
:0308e80002773a5a
:0308e90002771a79
:0308ea000276fa99
:0308eb000276dab8
:0308ec000276b9d8
:0308ed00027699f7
:0308ee0002767916
:0308ef0002765935
:0308f00002763954
:0308f10002761973
:0308f2000275f993
:0308f3000275d9b2
:0308f4000275b8d2
:0308f500027598f1
:0308f60002757810
:0308f7000275582f
:0308f8000275384e
:0308f9000275186d
:0308fa000274f88d
:0308fb000274d8ac
:0308fc000274b8cb
:0308fd00027498ea
:0308fe0002747908
:0308ff0002745927
:0309000002743945
:0309010002741964
:030902000273f984
:030903000273d9a3
:030904000273b9c2
:03090500027399e1
:0309060002737aff
:0309070002735a1e
:0309080002733a3d
:0309090002731a5c
:03090a000272fb7b
:03090b000272db9a
:03090c000272bbb9
:03090d0002729bd8
:03090e0002727cf6
:03090f0002725c15
:0309100002723c34
:0309110002721d52
:030912000271fd72
:030913000271de90
:030914000271beaf
:0309150002719ece
:0309160002717fec
:0309170002715f0b
:0309180002714029
:0309190002712048
:03091a0002710166
:03091b000270e186
:03091c000270c2a4
:03091d000270a2c3
:03091e00027083e1
:03091f0002706300
:030920000270441e
:030921000270253c
:030922000270055b
:03092300026fe67a
:03092400026fc699
:03092500026fa7b7
:03092600026f88d5
:03092700026f68f4
:03092800026f4912
:03092900026f2a30
:03092a00026f0b4e
:03092b00026eeb6e
:03092c00026ecc8c
:03092d00026eadaa
:03092e00026e8ec8
:03092f00026e6fe6
:03093000026e4f05
:03093100026e3023
:03093200026e1141
:03093300026df260
:03093400026dd37e
:03093500026db49c
:03093600026d95ba
:03093700026d76d8
:03093800026d57f6
:03093900026d3715
:03093a00026d1833
:03093b00026cf952
:03093c00026cda70
:03093d00026cbb8e
:03093e00026c9dab
:03093f00026c7ec9
:03094000026c5fe7
:03094100026c4005
:03094200026c2123
:03094300026c0241
:03094400026be360
:03094500026bc47e
:03094600026ba59c
:03094700026b87b9
:03094800026b68d7
:03094900026b49f5
:03094a00026b2a13
:03094b00026b0b31
:03094c00026aed4f
:03094d00026ace6d
:03094e00026aaf8b
:03094f00026a90a9
:03095000026a72c6
:03095100026a53e4
:03095200026a3402
:03095300026a161f
:030954000269f73e
:030955000269d95b
:030956000269ba79
:0309570002699b97
:0309580002697db4
:0309590002695ed2
:03095a00026940ef
:03095b000269210d
:03095c000269032a
:03095d000268e449
:03095e000268c666
:03095f000268a784
:03096000026889a1
:0309610002686abf
:0309620002684cdc
:0309630002682ef9
:0309640002680f17
:030965000267f135
:030966000267d352
:030967000267b470
:030968000267968d
:03096900026778aa
:03096a00026759c8
:03096b0002673be5
:03096c0002671d02
:03096d000266fe21
:03096e000266e03e
:03096f000266c25b
:030970000266a478
:0309710002668695
:03097200026668b2
:03097300026649d0
:0309740002662bed
:0309750002660d0a
:030976000265ef28
:030977000265d145
:030978000265b362
:030979000265957f
:03097a000265779c
:03097b00026559b9
:03097c0002653bd6
:03097d0002651df3
:03097e000264ff11
:03097f000264e12e
:030980000264c34b
:030981000264a568
:0309820002648785
:03098300026469a2
:0309840002644bbf
:0309850002642ddc
:0309860002640ff9
:030987000263f216
:030988000263d433
:030989000263b650
:03098a000263986d
:03098b0002637a8a
:03098c0002635da6
:03098d0002633fc3
:03098e00026321e0
:03098f00026303fd
:030990000262e61a
:030991000262c837
:030992000262aa54
:0309930002628d70
:0309940002626f8d
:03099500026251aa
:03099600026234c6
:03099700026216e3
:030998000261f900
:030999000261db1d
:03099a000261be39
:03099b000261a056
:03099c0002618273
:03099d000261658f
:03099e00026147ac
:03099f0002612ac8
:0309a00002610de4
:0309a1000260ef02
:0309a2000260d21e
:0309a3000260b43b
:0309a40002609757
:0309a50002607a73
:0309a60002605c90
:0309a70002603fac
:0309a800026022c8
:0309a900026004e5
:0309aa00025fe702
:0309ab00025fca1e
:0309ac00025fac3b
:0309ad00025f8f57
:0309ae00025f7273
:0309af00025f558f
:0309b000025f37ac
:0309b100025f1ac8
:0309b200025efde5
:0309b300025ee001
:0309b400025ec31d
:0309b500025ea639
:0309b600025e8955
:0309b700025e6b72
:0309b800025e4e8e
:0309b900025e31aa
:0309ba00025e14c6
:0309bb00025df7e3
:0309bc00025ddaff
:0309bd00025dbd1b
:0309be00025da037
:0309bf00025d8353
:0309c000025d666f
:0309c100025d498b
:0309c200025d2ca7
:0309c300025d10c2
:0309c400025cf3df
:0309c500025cd6fb
:0309c600025cb917
:0309c700025c9c33
:0309c800025c7f4f
:0309c900025c626b
:0309ca00025c4686
:0309cb00025c29a2
:0309cc00025c0cbe
:0309cd00025befdb
:0309ce00025bd3f6
:0309cf00025bb612
:0309d000025b992e
:0309d100025b7d49
:0309d200025b6065
:0309d300025b4381
:0309d400025b279c
:0309d500025b0ab8
:0309d600025aedd5
:0309d700025ad1f0
:0309d800025ab40c
:0309d900025a9827
:0309da00025a7b43
:0309db00025a5f5e
:0309dc00025a427a
:0309dd00025a2695
:0309de00025a09b1
:0309df000259edcd
:0309e0000259d0e9
:0309e1000259b404
:0309e20002599720
:0309e30002597b3b
:0309e40002595f56
:0309e50002594272
:0309e6000259268d
:0309e70002590aa8
:0309e8000258edc5
:0309e9000258d1e0
:0309ea000258b5fb
:0309eb0002589817
:0309ec0002587c32
:0309ed000258604d
:0309ee0002584468
:0309ef0002582784
:0309f00002580b9f
:0309f1000257efbb
:0309f2000257d3d6
:0309f3000257b7f1
:0309f40002579b0c
:0309f50002577f27
:0309f60002576342
:0309f7000257465e
:0309f80002572a79
:0309f90002570e94
:0309fa000256f2b0
:0309fb000256d6cb
:0309fc000256bae6
:0309fd0002569e01
:0309fe000256821c
:0309ff0002566637
:030a000002564a51
:030a010002562f6b
:030a020002561386
:030a03000255f7a2
:030a04000255dbbd
:030a05000255bfd8
:030a06000255a3f3
:030a07000255870e
:030a080002556c28
:030a090002555043
:030a0a000255345e
:030a0b0002551879
:030a0c000254fc95
:030a0d000254e1af
:030a0e000254c5ca
:030a0f000254a9e5
:030a100002548eff
:030a11000254721a
:030a120002545635
:030a130002543b4f
:030a140002541f6a
:030a150002540484
:030a16000253e8a0
:030a17000253ccbb
:030a18000253b1d5
:030a1900025395f0
:030a1a0002537a0a
:030a1b0002535e25
:030a1c000253433f
:030a1d000253275a
:030a1e0002530c74
:030a1f000252f090
:030a20000252d5aa
:030a21000252bac4
:030a220002529edf
:030a2300025283f9
:030a240002526813
:030a250002524c2e
:030a260002523148
:030a270002521662
:030a28000251fa7e
:030a29000251df98
:030a2a000251c4b2
:030a2b000251a9cc
:030a2c0002518de7
:030a2d0002517201
:030a2e000251571b
:030a2f0002513c35
:030a30000251214f
:030a31000251056a
:030a32000250ea85
:030a33000250cf9f
:030a34000250b4b9
:030a3500025099d3
:030a360002507eed
:030a370002506307
:030a380002504821
:030a390002502d3b
:030a3a0002501255
:030a3b00024ff770
:030a3c00024fdc8a
:030a3d00024fc1a4
:030a3e00024fa6be
:030a3f00024f8bd8
:030a4000024f70f2
:030a4100024f550c
:030a4200024f3a26
:030a4300024f203f
:030a4400024f0559
:030a4500024eea74
:030a4600024ecf8e
:030a4700024eb4a8
:030a4800024e9ac1
:030a4900024e7fdb
:030a4a00024e64f5
:030a4b00024e490f
:030a4c00024e2f28
:030a4d00024e1442
:030a4e00024df95d
:030a4f00024ddf76
:030a5000024dc490
:030a5100024da9aa
:030a5200024d8fc3
:030a5300024d74dd
:030a5400024d5af6
:030a5500024d3f10
:030a5600024d2529
:030a5700024d0a43
:030a5800024cef5e
:030a5900024cd577
:030a5a00024cbb90
:030a5b00024ca0aa
:030a5c00024c86c3
:030a5d00024c6bdd
:030a5e00024c51f6
:030a5f00024c3610
:030a6000024c1c29
:030a6100024c0242
:030a6200024be75d
:030a6300024bcd76
:030a6400024bb38f
:030a6500024b98a9
:030a6600024b7ec2
:030a6700024b64db
:030a6800024b4af4
:030a6900024b2f0e
:030a6a00024b1527
:030a6b00024afb41
:030a6c00024ae15a
:030a6d00024ac773
:030a6e00024aac8d
:030a6f00024a92a6
:030a7000024a78bf
:030a7100024a5ed8
:030a7200024a44f1
:030a7300024a2a0a
:030a7400024a1023
:030a75000249f63d
:030a76000249dc56
:030a77000249c26f
:030a78000249a888
:030a790002498ea1
:030a7a00024974ba
:030a7b0002495ad3
:030a7c00024940ec
:030a7d0002492605
:030a7e0002490c1e
:030a7f000248f337
:030a80000248d950
:030a81000248bf69
:030a82000248a582
:030a830002488b9b
:030a8400024871b4
:030a8500024858cc
:030a860002483ee5
:030a8700024824fe
:030a880002480a17
:030a89000247f130
:030a8a000247d749
:030a8b000247bd62
:030a8c000247a47a
:030a8d0002478a93
:030a8e00024770ac
:030a8f00024757c4
:030a900002473ddd
:030a9100024724f5
:030a920002470a0e
:030a93000246f127
:030a94000246d740
:030a95000246be58
:030a96000246a471
:030a970002468b89
:030a9800024671a2
:030a9900024658ba
:030a9a0002463ed3
:030a9b00024625eb
:030a9c0002460c03
:030a9d000245f21d
:030a9e000245d935
:030a9f000245c04d
:030aa0000245a666
:030aa10002458d7e
:030aa20002457496
:030aa30002455aaf
:030aa400024541c7
:030aa500024528df
:030aa60002450ff7
:030aa7000244f511
:030aa8000244dc29
:030aa9000244c341
:030aaa000244aa59
:030aab0002449171
:030aac0002447889
:030aad0002445fa1
:030aae00024446b9
:030aaf0002442cd2
:030ab000024413ea
:030ab1000243fa03
:030ab2000243e11b
:030ab3000243c833
:030ab4000243af4b
:030ab50002439663
:030ab60002437d7b
:030ab70002436493
:030ab80002434caa
:030ab900024333c2
:030aba0002431ada
:030abb00024301f2
:030abc000242e80b
:030abd000242cf23
:030abe000242b63b
:030abf0002429e52
:030ac0000242856a
:030ac10002426c82
:030ac2000242539a
:030ac30002423bb1
:030ac400024222c9
:030ac500024209e1
:030ac6000241f0fa
:030ac7000241d811
:030ac8000241bf29
:030ac9000241a740
:030aca0002418e58
:030acb0002417570
:030acc0002415d87
:030acd000241449f
:030ace0002412cb6
:030acf00024113ce
:030ad0000240fbe6
:030ad1000240e2fe
:030ad2000240ca15
:030ad3000240b12d
:030ad40002409944
:030ad5000240805c
:030ad60002406873
:030ad70002404f8b
:030ad800024037a2
:030ad90002401fb9
:030ada00024006d1
:030adb00023feee9
:030adc00023fd600
:030add00023fbd18
:030ade00023fa52f
:030adf00023f8d46
:030ae000023f755d
:030ae100023f5c75
:030ae200023f448c
:030ae300023f2ca3
:030ae400023f14ba
:030ae500023efcd2
:030ae600023ee3ea
:030ae700023ecb01
:030ae800023eb318
:030ae900023e9b2f
:030aea00023e8346
:030aeb00023e6b5d
:030aec00023e5374
:030aed00023e3b8b
:030aee00023e23a2
:030aef00023e0bb9
:030af000023df3d1
:030af100023ddbe8
:030af200023dc3ff
:030af300023dab16
:030af400023d932d
:030af500023d7b44
:030af600023d635b
:030af700023d4c71
:030af800023d3488
:030af900023d1c9f
:030afa00023d04b6
:030afb00023cecce
:030afc00023cd5e4
:030afd00023cbdfb
:030afe00023ca512
:030aff00023c8d29
:030b0000023c763e
:030b0100023c5e55
:030b0200023c466c
:030b0300023c2f82
:030b0400023c1799
:030b0500023bffb1
:030b0600023be8c7
:030b0700023bd0de
:030b0800023bb9f4
:030b0900023ba10b
:030b0a00023b8a21
:030b0b00023b7238
:030b0c00023b5b4e
:030b0d00023b4365
:030b0e00023b2c7b
:030b0f00023b1492
:030b1000023afda9
:030b1100023ae5c0
:030b1200023aced6
:030b1300023ab7ec
:030b1400023a9f03
:030b1500023a8819
:030b1600023a712f
:030b1700023a5946
:030b1800023a425c
:030b1900023a2b72
:030b1a00023a1389
:030b1b000239fca0
:030b1c000239e5b6
:030b1d000239cecc
:030b1e000239b7e2
:030b1f0002399ff9
:030b20000239880f
:030b210002397125
:030b220002395a3b
:030b230002394351
:030b240002392c67
:030b25000239157d
:030b26000238fe94
:030b27000238e7aa
:030b28000238d0c0
:030b29000238b9d6
:030b2a000238a2ec
:030b2b0002388b02
:030b2c0002387418
:030b2d0002385d2e
:030b2e0002384644
:030b2f0002382f5a
:030b300002381870
:030b310002380186
:030b32000237ea9d
:030b33000237d3b3
:030b34000237bdc8
:030b35000237a6de
:030b360002378ff4
:030b37000237780a
:030b38000237621f
:030b390002374b35
:030b3a000237344b
:030b3b0002371d61
:030b3c0002370776
:030b3d000236f08d
:030b3e000236d9a3
:030b3f000236c3b8
:030b40000236acce
:030b4100023696e3
:030b420002367ff9
:030b43000236680f
:030b440002365224
:030b450002363b3a
:030b46000236254f
:030b470002360e65
:030b48000235f87b
:030b49000235e191
:030b4a000235cba6
:030b4b000235b5bb
:030b4c0002359ed1
:030b4d00023588e6
:030b4e00023571fc
:030b4f0002355b11
:030b500002354526
:030b510002352e3c
:030b520002351851
:030b530002350266
:030b54000234ec7c
:030b55000234d592
:030b56000234bfa7
:030b57000234a9bc
:030b5800023493d1
:030b590002347de6
:030b5a00023466fc
:030b5b0002345011
:030b5c0002343a26
:030b5d000234243b
:030b5e0002340e50
:030b5f000233f866
:030b60000233e27b
:030b61000233cc90
:030b62000233b6a5
:030b63000233a0ba
:030b640002338acf
:030b6500023374e4
:030b660002335ef9
:030b67000233480e
:030b680002333223
:030b690002331c38
:030b6a000233064d
:030b6b000232f063
:030b6c000232db77
:030b6d000232c58c
:030b6e000232afa1
:030b6f00023299b6
:030b7000023283cb
:030b710002326edf
:030b7200023258f4
:030b730002324209
:030b740002322c1e
:030b750002321732
:030b760002320147
:030b77000231eb5d
:030b78000231d671
:030b79000231c086
:030b7a000231aa9b
:030b7b00023195af
:030b7c0002317fc4
:030b7d0002316ad8
:030b7e00023154ed
:030b7f0002313f01
:030b800002312916
:030b81000231142a
:030b82000230fe40
:030b83000230e954
:030b84000230d369
:030b85000230be7d
:030b86000230a991
:030b8700023093a6
:030b880002307eba
:030b8900023069ce
:030b8a00023053e3
:030b8b0002303ef7
:030b8c000230290b
:030b8d0002301320
:030b8e00022ffe35
:030b8f00022fe949
:030b9000022fd45d
:030b9100022fbe72
:030b9200022fa986
:030b9300022f949a
:030b9400022f7fae
:030b9500022f6ac2
:030b9600022f55d6
:030b9700022f40ea
:030b9800022f2aff
:030b9900022f1513
:030b9a00022f0027
:030b9b00022eeb3c
:030b9c00022ed650
:030b9d00022ec164
:030b9e00022eac78
:030b9f00022e978c
:030ba000022e82a0
:030ba100022e6eb3
:030ba200022e59c7
:030ba300022e44db
:030ba400022e2fef
:030ba500022e1a03
:030ba600022e0517
:030ba700022df02c
:030ba800022ddc3f
:030ba900022dc753
:030baa00022db267
:030bab00022d9d7b
:030bac00022d898e
:030bad00022d74a2
:030bae00022d5fb6
:030baf00022d4aca
:030bb000022d36dd
:030bb100022d21f1
:030bb200022d0d04
:030bb300022cf819
:030bb400022ce32d
:030bb500022ccf40
:030bb600022cba54
:030bb700022ca667
:030bb800022c917b
:030bb900022c7d8e
:030bba00022c68a2
:030bbb00022c54b5
:030bbc00022c3fc9
:030bbd00022c2bdc
:030bbe00022c16f0
:030bbf00022c0203
:030bc000022bee17
:030bc100022bd92b
:030bc200022bc53e
:030bc300022bb151
:030bc400022b9c65
:030bc500022b8878
:030bc600022b748b
:030bc700022b5f9f
:030bc800022b4bb2
:030bc900022b37c5
:030bca00022b23d8
:030bcb00022b0feb
:030bcc00022afa00
:030bcd00022ae613
:030bce00022ad226
:030bcf00022abe39
:030bd000022aaa4c
:030bd100022a965f
:030bd200022a8272
:030bd300022a6e85
:030bd400022a5a98
:030bd500022a46ab
:030bd600022a32be
:030bd700022a1ed1
:030bd800022a0ae4
:030bd9000229f6f8
:030bda000229e20b
:030bdb000229ce1e
:030bdc000229ba31
:030bdd000229a644
:030bde0002299257
:030bdf0002297f69
:030be00002296b7c
:030be1000229578f
:030be200022943a2
:030be30002292fb5
:030be40002291cc7
:030be500022908da
:030be6000228f4ee
:030be7000228e100
:030be8000228cd13
:030be9000228b926
:030bea000228a638
:030beb000228924b
:030bec0002287e5e
:030bed0002286b70
:030bee0002285783
:030bef0002284495
:030bf000022830a8
:030bf10002281dba
:030bf200022809cd
:030bf3000227f6e0
:030bf4000227e2f3
:030bf5000227cf05
:030bf6000227bb18
:030bf7000227a82a
:030bf8000227953c
:030bf9000227814f
:030bfa0002276e61
:030bfb0002275b73
:030bfc0002274786
:030bfd0002273498
:030bfe00022721aa
:030bff0002270dbd
:030c00000226facf
:030c01000226e7e1
:030c02000226d4f3
:030c03000226c105
:030c04000226ad18
:030c050002269a2a
:030c06000226873c
:030c07000226744e
:030c080002266160
:030c090002264e72
:030c0a0002263b84
:030c0b0002262896
:030c0c00022615a8
:030c0d00022602ba
:030c0e000225efcd
:030c0f000225dcdf
:030c10000225c9f1
:030c11000225b603
:030c12000225a315
:030c130002259027
:030c140002257d39
:030c150002256a4b
:030c16000225575d
:030c17000225446f
:030c180002253280
:030c190002251f92
:030c1a0002250ca4
:030c1b000224f9b7
:030c1c000224e7c8
:030c1d000224d4da
:030c1e000224c1ec
:030c1f000224aefe
:030c200002249c0f
:030c210002248921
:030c220002247633
:030c230002246444
:030c240002245156
:030c250002243f67
:030c260002242c79
:030c270002241a8a
:030c28000224079c
:030c29000223f5ae
:030c2a000223e2c0
:030c2b000223d0d1
:030c2c000223bde3
:030c2d000223abf4
:030c2e0002239806
:030c2f0002238617
:030c300002237329
:030c31000223613a
:030c320002234f4b
:030c330002233c5d
:030c340002232a6e
:030c35000223187f
:030c360002230690
:030c37000222f3a3
:030c38000222e1b4
:030c39000222cfc5
:030c3a000222bdd6
:030c3b000222aae8
:030c3c00022298f9
:030c3d000222860a
:030c3e000222741b
:030c3f000222622c
:030c40000222503d
:030c410002223e4e
:030c420002222c5f
:030c430002221a70
:030c440002220782
:030c45000221f594
:030c46000221e3a5
:030c47000221d2b5
:030c48000221c0c6
:030c49000221aed7
:030c4a0002219ce8
:030c4b0002218af9
:030c4c000221780a
:030c4d000221661b
:030c4e000221542c
:030c4f000221423d
:030c50000221314d
:030c510002211f5e
:030c520002210d6f
:030c53000220fb81
:030c54000220e992
:030c55000220d8a2
:030c56000220c6b3
:030c57000220b4c4
:030c58000220a3d4
:030c5900022091e5
:030c5a0002207ff6
:030c5b0002206e06
:030c5c0002205c17
:030c5d0002204b27
:030c5e0002203938
:030c5f0002202848
:030c600002201659
:030c610002200569
:030c6200021ff37b
:030c6300021fe28b
:030c6400021fd09c
:030c6500021fbfac
:030c6600021fadbd
:030c6700021f9ccd
:030c6800021f8bdd
:030c6900021f79ee
:030c6a00021f68fe
:030c6b00021f560f
:030c6c00021f451f
:030c6d00021f342f
:030c6e00021f233f
:030c6f00021f1150
:030c7000021f0060
:030c7100021eef71
:030c7200021ede81
:030c7300021ecd91
:030c7400021ebba2
:030c7500021eaab2
:030c7600021e99c2
:030c7700021e88d2
:030c7800021e77e2
:030c7900021e66f2
:030c7a00021e5502
:030c7b00021e4412
:030c7c00021e3322
:030c7d00021e2232
:030c7e00021e1142
:030c7f00021e0052
:030c8000021def63
:030c8100021dde73
:030c8200021dcd83
:030c8300021dbc93
:030c8400021daba3
:030c8500021d9ab3
:030c8600021d8ac2
:030c8700021d79d2
:030c8800021d68e2
:030c8900021d57f2
:030c8a00021d4602
:030c8b00021d3611
:030c8c00021d2521
:030c8d00021d1431
:030c8e00021d0440
:030c8f00021cf351
:030c9000021ce261
:030c9100021cd270
:030c9200021cc180
:030c9300021cb090
:030c9400021ca09f
:030c9500021c8faf
:030c9600021c7fbe
:030c9700021c6ece
:030c9800021c5edd
:030c9900021c4ded
:030c9a00021c3dfc
:030c9b00021c2c0c
:030c9c00021c1c1b
:030c9d00021c0b2b
:030c9e00021bfb3b
:030c9f00021beb4a
:030ca000021bda5a
:030ca100021bca69
:030ca200021bba78
:030ca300021ba988
:030ca400021b9997
:030ca500021b89a6
:030ca600021b79b5
:030ca700021b68c5
:030ca800021b58d4
:030ca900021b48e3
:030caa00021b38f2
:030cab00021b2801
:030cac00021b1711
:030cad00021b0720
:030cae00021af730
:030caf00021ae73f
:030cb000021ad74e
:030cb100021ac75d
:030cb200021ab76c
:030cb300021aa77b
:030cb400021a978a
:030cb500021a8799
:030cb600021a77a8
:030cb700021a67b7
:030cb800021a57c6
:030cb900021a47d5
:030cba00021a37e4
:030cbb00021a27f3
:030cbc00021a1801
:030cbd00021a0810
:030cbe000219f820
:030cbf000219e82f
:030cc0000219d83e
:030cc1000219c94c
:030cc2000219b95b
:030cc3000219a96a
:030cc40002199979
:030cc50002198a87
:030cc60002197a96
:030cc70002196aa5
:030cc80002195bb3
:030cc90002194bc2
:030cca0002193cd0
:030ccb0002192cdf
:030ccc0002191ded
:030ccd0002190dfc
:030cce000218fd0c
:030ccf000218ee1a
:030cd0000218de29
:030cd1000218cf37
:030cd2000218c045
:030cd3000218b054
:030cd4000218a162
:030cd50002189171
:030cd6000218827f
:030cd7000218738d
:030cd8000218639c
:030cd900021854aa
:030cda00021845b8
:030cdb00021835c7
:030cdc00021826d5
:030cdd00021817e3
:030cde00021808f1
:030cdf000217f801
:030ce0000217e90f
:030ce1000217da1d
:030ce2000217cb2b
:030ce3000217bc39
:030ce4000217ad47
:030ce50002179e55
:030ce60002178e64
:030ce70002177f72
:030ce80002177080
:030ce9000217618e
:030cea000217529c
:030ceb00021743aa
:030cec00021734b8
:030ced00021725c6
:030cee00021717d3
:030cef00021708e1
:030cf0000216f9f0
:030cf1000216eafe
:030cf2000216db0c
:030cf3000216cc1a
:030cf4000216bd28
:030cf5000216ae36
:030cf6000216a043
:030cf70002169151
:030cf8000216825f
:030cf9000216736d
:030cfa000216657a
:030cfb0002165688
:030cfc0002164796
:030cfd00021639a3
:030cfe0002162ab1
:030cff0002161bbf
:030d000002160dcb
:030d01000215feda
:030d02000215f0e7
:030d03000215e1f5
:030d04000215d302
:030d05000215c410
:030d06000215b61d
:030d07000215a72b
:030d080002159938
:030d090002158a46
:030d0a0002157c53
:030d0b0002156d61
:030d0c0002155f6e
:030d0d000215517b
:030d0e0002154289
:030d0f0002153496
:030d1000021526a3
:030d1100021517b1
:030d1200021509be
:030d13000214fbcc
:030d14000214edd9
:030d15000214dfe6
:030d16000214d0f4
:030d17000214c201
:030d18000214b40e
:030d19000214a61b
:030d1a0002149828
:030d1b0002148a35
:030d1c0002147c42
:030d1d0002146d50
:030d1e0002145f5d
:030d1f000214516a
:030d200002144377
:030d210002143584
:030d220002142791
:030d23000214199e
:030d240002140caa
:030d25000213feb8
:030d26000213f0c5
:030d27000213e2d2
:030d28000213d4df
:030d29000213c6ec
:030d2a000213b8f9
:030d2b000213ab05
:030d2c0002139d12
:030d2d0002138f1f
:030d2e000213812c
:030d2f0002137339
:030d300002136645
:030d310002135852
:030d320002134a5f
:030d330002133d6b
:030d340002132f78
:030d350002132284
:030d360002131491
:030d37000213069e
:030d38000212f9ab
:030d39000212ebb8
:030d3a000212dec4
:030d3b000212d0d1
:030d3c000212c3dd
:030d3d000212b5ea
:030d3e000212a8f6
:030d3f0002129a03
:030d400002128d0f
:030d41000212801b
:030d420002127228
:030d430002126534
:030d440002125741
:030d450002124a4d
:030d460002123d59
:030d470002123065
:030d480002122272
:030d49000212157e
:030d4a000212088a
:030d4b000211fb97
:030d4c000211eda4
:030d4d000211e0b0
:030d4e000211d3bc
:030d4f000211c6c8
:030d50000211b9d4
:030d51000211ace0
:030d520002119fec
:030d5300021192f8
:030d540002118405
:030d550002117711
:030d560002116a1d
:030d570002115d29
:030d580002115134
:030d590002114440
:030d5a000211374c
:030d5b0002112a58
:030d5c0002111d64
:030d5d0002111070
:030d5e000211037c
:030d5f000210f689
:030d60000210e995
:030d61000210dda0
:030d62000210d0ac
:030d63000210c3b8
:030d64000210b6c4
:030d65000210aacf
:030d660002109ddb
:030d6700021090e7
:030d6800021084f2
:030d6900021077fe
:030d6a0002106a0a
:030d6b0002105e15
:030d6c0002105121
:030d6d000210442d
:030d6e0002103838
:030d6f0002102b44
:030d700002101f4f
:030d71000210125b
:030d720002100666
:030d7300020ff973
:030d7400020fed7e
:030d7500020fe189
:030d7600020fd495
:030d7700020fc8a0
:030d7800020fbbac
:030d7900020fafb7
:030d7a00020fa3c2
:030d7b00020f96ce
:030d7c00020f8ad9
:030d7d00020f7ee4
:030d7e00020f71f0
:030d7f00020f65fb
:030d8000020f5906
:030d8100020f4d11
:030d8200020f411c
:030d8300020f3428
:030d8400020f2833
:030d8500020f1c3e
:030d8600020f1049
:030d8700020f0454
:030d8800020ef860
:030d8900020eec6b
:030d8a00020ee076
:030d8b00020ed481
:030d8c00020ec88c
:030d8d00020ebc97
:030d8e00020eb0a2
:030d8f00020ea4ad
:030d9000020e98b8
:030d9100020e8cc3
:030d9200020e80ce
:030d9300020e74d9
:030d9400020e69e3
:030d9500020e5dee
:030d9600020e51f9
:030d9700020e4504
:030d9800020e390f
:030d9900020e2e19
:030d9a00020e2224
:030d9b00020e162f
:030d9c00020e0a3a
:030d9d00020dff45
:030d9e00020df350
:030d9f00020de75b
:030da000020ddc65
:030da100020dd070
:030da200020dc57a
:030da300020db985
:030da400020dad90
:030da500020da29a
:030da600020d96a5
:030da700020d8baf
:030da800020d7fba
:030da900020d74c4
:030daa00020d69ce
:030dab00020d5dd9
:030dac00020d52e3
:030dad00020d46ee
:030dae00020d3bf8
:030daf00020d3002
:030db000020d240d
:030db100020d1917
:030db200020d0e21
:030db300020d032b
:030db400020cf737
:030db500020cec41
:030db600020ce14b
:030db700020cd655
:030db800020cca60
:030db900020cbf6a
:030dba00020cb474
:030dbb00020ca97e
:030dbc00020c9e88
:030dbd00020c9392
:030dbe00020c889c
:030dbf00020c7da6
:030dc000020c72b0
:030dc100020c67ba
:030dc200020c5cc4
:030dc300020c51ce
:030dc400020c46d8
:030dc500020c3be2
:030dc600020c30ec
:030dc700020c25f6
:030dc800020c1a00
:030dc900020c0f0a
:030dca00020c0513
:030dcb00020bfa1e
:030dcc00020bef28
:030dcd00020be432
:030dce00020bd93c
:030dcf00020bcf45
:030dd000020bc44f
:030dd100020bb959
:030dd200020baf62
:030dd300020ba46c
:030dd400020b9976
:030dd500020b8f7f
:030dd600020b8489
:030dd700020b7993
:030dd800020b6f9c
:030dd900020b64a6
:030dda00020b5aaf
:030ddb00020b4fb9
:030ddc00020b45c2
:030ddd00020b3acc
:030dde00020b30d5
:030ddf00020b25df
:030de000020b1be8
:030de100020b11f1
:030de200020b06fb
