:020000000000fe
:020001000002fb
:020002000003f9
:020003000005f6
:020004000006f4
:020005000008f1
:020006000009ef
:02000700000bec
:02000800000de9
:02000900000ee7
:02000a000010e4
:02000b000011e2
:02000c000013df
:02000d000014dd
:02000e000016da
:02000f000018d7
:020010000019d5
:02001100001bd2
:02001200001cd0
:02001300001ecd
:02001400001fcb
:020015000021c8
:020016000023c5
:020017000024c3
:020018000026c0
:020019000027be
:02001a000029bb
:02001b00002ab9
:02001c00002cb6
:02001d00002eb3
:02001e00002fb1
:02001f000031ae
:020020000032ac
:020021000034a9
:020022000035a7
:020023000037a4
:020024000039a1
:02002500003a9f
:02002600003c9c
:02002700003d9a
:02002800003f97
:02002900004095
:02002a00004292
:02002b0000448f
:02002c0000458d
:02002d0000478a
:02002e00004888
:02002f00004a85
:02003000004b83
:02003100004d80
:02003200004f7d
:0200330000507b
:02003400005278
:02003500005376
:02003600005573
:02003700005671
:0200380000586e
:02003900005a6b
:02003a00005b69
:02003b00005d66
:02003c00005e64
:02003d00006061
:02003e0000615f
:02003f0000635c
:02004000006559
:02004100006657
:02004200006854
:02004300006952
:02004400006b4f
:02004500006c4d
:02004600006e4a
:02004700007047
:02004800007145
:02004900007342
:02004a00007440
:02004b0000763d
:02004c0000773b
:02004d00007938
:02004e00007b35
:02004f00007c33
:02005000007e30
:02005100007f2e
:0200520000812b
:02005300008229
:02005400008426
:02005500008524
:02005600008721
:0200570000891e
:02005800008a1c
:02005900008c19
:02005a00008d17
:02005b00008f14
:02005c00009012
:02005d0000920f
:02005e0000940c
:02005f0000950a
:02006000009707
:02006100009805
:02006200009a02
:02006300009b00
:02006400009dfd
:02006500009ffa
:0200660000a0f8
:0200670000a2f5
:0200680000a3f3
:0200690000a5f0
:02006a0000a6ee
:02006b0000a8eb
:02006c0000aae8
:02006d0000abe6
:02006e0000ade3
:02006f0000aee1
:0200700000b0de
:0200710000b1dc
:0200720000b3d9
:0200730000b5d6
:0200740000b6d4
:0200750000b8d1
:0200760000b9cf
:0200770000bbcc
:0200780000bcca
:0200790000bec7
:02007a0000c0c4
:02007b0000c1c2
:02007c0000c3bf
:02007d0000c4bd
:02007e0000c6ba
:02007f0000c7b8
:0200800000c9b5
:0200810000cbb2
:0200820000ccb0
:0200830000cead
:0200840000cfab
:0200850000d1a8
:0200860000d2a6
:0200870000d4a3
:0200880000d6a0
:0200890000d79e
:02008a0000d99b
:02008b0000da99
:02008c0000dc96
:02008d0000dd94
:02008e0000df91
:02008f0000e18e
:0200900000e28c
:0200910000e489
:0200920000e587
:0200930000e784
:0200940000e882
:0200950000ea7f
:0200960000ec7c
:0200970000ed7a
:0200980000ef77
:0200990000f075
:02009a0000f272
:02009b0000f370
:02009c0000f56d
:02009d0000f76a
:02009e0000f868
:02009f0000fa65
:0200a00000fb63
:0200a10000fd60
:0200a20000fe5e
:0200a30001005a
:0200a400010257
:0200a500010355
:0200a600010552
:0200a700010650
:0200a80001084d
:0200a90001094b
:0200aa00010b48
:0200ab00010d45
:0200ac00010e43
:0200ad00011040
:0200ae0001113e
:0200af0001133b
:0200b000011439
:0200b100011636
:0200b200011833
:0200b300011931
:0200b400011b2e
:0200b500011c2c
:0200b600011e29
:0200b700011f27
:0200b800012124
:0200b900012321
:0200ba0001241f
:0200bb0001261c
:0200bc0001271a
:0200bd00012917
:0200be00012a15
:0200bf00012c12
:0200c000012d10
:0200c100012f0d
:0200c20001310a
:0200c300013208
:0200c400013405
:0200c500013503
:0200c600013700
:0200c7000138fe
:0200c800013afb
:0200c900013cf8
:0200ca00013df6
:0200cb00013ff3
:0200cc000140f1
:0200cd000142ee
:0200ce000143ec
:0200cf000145e9
:0200d0000147e6
:0200d1000148e4
:0200d200014ae1
:0200d300014bdf
:0200d400014ddc
:0200d500014eda
:0200d6000150d7
:0200d7000152d4
:0200d8000153d2
:0200d9000155cf
:0200da000156cd
:0200db000158ca
:0200dc000159c8
:0200dd00015bc5
:0200de00015dc2
:0200df00015ec0
:0200e0000160bd
:0200e1000161bb
:0200e2000163b8
:0200e3000164b6
:0200e4000166b3
:0200e5000168b0
:0200e6000169ae
:0200e700016bab
:0200e800016ca9
:0200e900016ea6
:0200ea00016fa4
:0200eb000171a1
:0200ec0001739e
:0200ed0001749c
:0200ee00017699
:0200ef00017797
:0200f000017994
:0200f100017a92
:0200f200017c8f
:0200f300017e8c
:0200f400017f8a
:0200f500018187
:0200f600018285
:0200f700018482
:0200f800018580
:0200f90001877d
:0200fa0001897a
:0200fb00018a78
:0200fc00018c75
:0200fd00018d73
:0200fe00018f70
:0200ff0001906e
:0201000001926a
:02010100019368
:02010200019565
:02010300019762
:02010400019860
:02010500019a5d
:02010600019b5b
:02010700019d58
:02010800019e56
:0201090001a053
:02010a0001a250
:02010b0001a34e
:02010c0001a54b
:02010d0001a649
:02010e0001a846
:02010f0001a944
:0201100001ab41
:0201110001ad3e
:0201120001ae3c
:0201130001b039
:0201140001b137
:0201150001b334
:0201160001b432
:0201170001b62f
:0201180001b82c
:0201190001b92a
:02011a0001bb27
:02011b0001bc25
:02011c0001be22
:02011d0001bf20
:02011e0001c11d
:02011f0001c31a
:0201200001c418
:0201210001c615
:0201220001c713
:0201230001c910
:0201240001ca0e
:0201250001cc0b
:0201260001ce08
:0201270001cf06
:0201280001d103
:0201290001d201
:02012a0001d4fe
:02012b0001d5fc
:02012c0001d7f9
:02012d0001d8f7
:02012e0001daf4
:02012f0001dcf1
:0201300001ddef
:0201310001dfec
:0201320001e0ea
:0201330001e2e7
:0201340001e3e5
:0201350001e5e2
:0201360001e7df
:0201370001e8dd
:0201380001eada
:0201390001ebd8
:02013a0001edd5
:02013b0001eed3
:02013c0001f0d0
:02013d0001f2cd
:02013e0001f3cb
:02013f0001f5c8
:0201400001f6c6
:0201410001f8c3
:0201420001f9c1
:0201430001fbbe
:0201440001fdbb
:0201450001feb9
:020146000200b5
:020147000201b3
:020148000203b0
:020149000204ae
:02014a000206ab
:02014b000208a8
:02014c000209a6
:02014d00020ba3
:02014e00020ca1
:02014f00020e9e
:02015000020f9c
:02015100021199
:02015200021297
:02015300021494
:02015400021691
:0201550002178f
:0201560002198c
:02015700021a8a
:02015800021c87
:02015900021d85
:02015a00021f82
:02015b0002217f
:02015c0002227d
:02015d0002247a
:02015e00022578
:02015f00022775
:02016000022873
:02016100022a70
:02016200022c6d
:02016300022d6b
:02016400022f68
:02016500023066
:02016600023263
:02016700023361
:0201680002355e
:0201690002375b
:02016a00023859
:02016b00023a56
:02016c00023b54
:02016d00023d51
:02016e00023e4f
:02016f0002404c
:02017000024249
:02017100024347
:02017200024544
:02017300024642
:0201740002483f
:0201750002493d
:02017600024b3a
:02017700024c38
:02017800024e35
:02017900025032
:02017a00025130
:02017b0002532d
:02017c0002542b
:02017d00025628
:02017e00025726
:02017f00025923
:02018000025b20
:02018100025c1e
:02018200025e1b
:02018300025f19
:02018400026116
:02018500026214
:02018600026411
:0201870002660e
:0201880002670c
:02018900026909
:02018a00026a07
:02018b00026c04
:02018c00026d02
:02018d00026fff
:02018e000270fd
:02018f000272fa
:020190000274f7
:020191000275f5
:020192000277f2
:020193000278f0
:02019400027aed
:02019500027beb
:02019600027de8
:02019700027fe5
:020198000280e3
:020199000282e0
:02019a000283de
:02019b000285db
:02019c000286d9
:02019d000288d6
:02019e00028ad3
:02019f00028bd1
:0201a000028dce
:0201a100028ecc
:0201a2000290c9
:0201a3000291c7
:0201a4000293c4
:0201a5000295c1
:0201a6000296bf
:0201a7000298bc
:0201a8000299ba
:0201a900029bb7
:0201aa00029cb5
:0201ab00029eb2
:0201ac00029fb0
:0201ad0002a1ad
:0201ae0002a3aa
:0201af0002a4a8
:0201b00002a6a5
:0201b10002a7a3
:0201b20002a9a0
:0201b30002aa9e
:0201b40002ac9b
:0201b50002ae98
:0201b60002af96
:0201b70002b193
:0201b80002b291
:0201b90002b48e
:0201ba0002b58c
:0201bb0002b789
:0201bc0002b986
:0201bd0002ba84
:0201be0002bc81
:0201bf0002bd7f
:0201c00002bf7c
:0201c10002c07a
:0201c20002c277
:0201c30002c375
:0201c40002c572
:0201c50002c76f
:0201c60002c86d
:0201c70002ca6a
:0201c80002cb68
:0201c90002cd65
:0201ca0002ce63
:0201cb0002d060
:0201cc0002d25d
:0201cd0002d35b
:0201ce0002d558
:0201cf0002d656
:0201d00002d853
:0201d10002d951
:0201d20002db4e
:0201d30002dc4c
:0201d40002de49
:0201d50002e046
:0201d60002e144
:0201d70002e341
:0201d80002e43f
:0201d90002e63c
:0201da0002e73a
:0201db0002e937
:0201dc0002eb34
:0201dd0002ec32
:0201de0002ee2f
:0201df0002ef2d
:0201e00002f12a
:0201e10002f228
:0201e20002f425
:0201e30002f622
:0201e40002f720
:0201e50002f91d
:0201e60002fa1b
:0201e70002fc18
:0201e80002fd16
:0201e90002ff13
:0201ea00030010
:0201eb0003020d
:0201ec0003040a
:0201ed00030508
:0201ee00030705
:0201ef00030803
:0201f000030a00
:0201f100030bfe
:0201f200030dfb
:0201f300030ff8
:0201f4000310f6
:0201f5000312f3
:0201f6000313f1
:0201f7000315ee
:0201f8000316ec
:0201f9000318e9
:0201fa000319e7
:0201fb00031be4
:0201fc00031de1
:0201fd00031edf
:0201fe000320dc
:0201ff000321da
:020200000323d6
:020201000324d4
:020202000326d1
:020203000328ce
:020204000329cc
:02020500032bc9
:02020600032cc7
:02020700032ec4
:02020800032fc2
:020209000331bf
:02020a000332bd
:02020b000334ba
:02020c000336b7
:02020d000337b5
:02020e000339b2
:02020f00033ab0
:02021000033cad
:02021100033dab
:02021200033fa8
:020213000341a5
:020214000342a3
:020215000344a0
:0202160003459e
:0202170003479b
:02021800034899
:02021900034a96
:02021a00034b94
:02021b00034d91
:02021c00034f8e
:02021d0003508c
:02021e00035289
:02021f00035387
:02022000035584
:02022100035682
:0202220003587f
:02022300035a7c
:02022400035b7a
:02022500035d77
:02022600035e75
:02022700036072
:02022800036170
:0202290003636d
:02022a0003646b
:02022b00036668
:02022c00036865
:02022d00036963
:02022e00036b60
:02022f00036c5e
:02023000036e5b
:02023100036f59
:02023200037156
:02023300037353
:02023400037451
:0202350003764e
:0202360003774c
:02023700037949
:02023800037a47
:02023900037c44
:02023a00037d42
:02023b00037f3f
:02023c0003813c
:02023d0003823a
:02023e00038437
:02023f00038535
:02024000038732
:02024100038830
:02024200038a2d
:02024300038c2a
:02024400038d28
:02024500038f25
:02024600039023
:02024700039220
:0202480003931e
:0202490003951b
:02024a00039619
:02024b00039816
:02024c00039a13
:02024d00039b11
:02024e00039d0e
:02024f00039e0c
:0202500003a009
:0202510003a107
:0202520003a304
:0202530003a402
:0202540003a6ff
:0202550003a8fc
:0202560003a9fa
:0202570003abf7
:0202580003acf5
:0202590003aef2
:02025a0003aff0
:02025b0003b1ed
:02025c0003b3ea
:02025d0003b4e8
:02025e0003b6e5
:02025f0003b7e3
:0202600003b9e0
:0202610003bade
:0202620003bcdb
:0202630003bdd9
:0202640003bfd6
:0202650003c1d3
:0202660003c2d1
:0202670003c4ce
:0202680003c5cc
:0202690003c7c9
:02026a0003c8c7
:02026b0003cac4
:02026c0003cbc2
:02026d0003cdbf
:02026e0003cfbc
:02026f0003d0ba
:0202700003d2b7
:0202710003d3b5
:0202720003d5b2
:0202730003d6b0
:0202740003d8ad
:0202750003daaa
:0202760003dba8
:0202770003dda5
:0202780003dea3
:0202790003e0a0
:02027a0003e19e
:02027b0003e39b
:02027c0003e499
:02027d0003e696
:02027e0003e893
:02027f0003e991
:0202800003eb8e
:0202810003ec8c
:0202820003ee89
:0202830003ef87
:0202840003f184
:0202850003f282
:0202860003f47f
:0202870003f67c
:0202880003f77a
:0202890003f977
:02028a0003fa75
:02028b0003fc72
:02028c0003fd70
:02028d0003ff6d
:02028e0004006a
:02028f00040267
:02029000040464
:02029100040562
:0202920004075f
:0202930004085d
:02029400040a5a
:02029500040b58
:02029600040d55
:02029700040f52
:02029800041050
:0202990004124d
:02029a0004134b
:02029b00041548
:02029c00041646
:02029d00041843
:02029e00041941
:02029f00041b3e
:0202a000041d3b
:0202a100041e39
:0202a200042036
:0202a300042134
:0202a400042331
:0202a50004242f
:0202a60004262c
:0202a70004272a
:0202a800042927
:0202a900042b24
:0202aa00042c22
:0202ab00042e1f
:0202ac00042f1d
:0202ad0004311a
:0202ae00043218
:0202af00043415
:0202b000043513
:0202b100043710
:0202b20004390d
:0202b300043a0b
:0202b400043c08
:0202b500043d06
:0202b600043f03
:0202b700044001
:0202b8000442fe
:0202b9000443fc
:0202ba000445f9
:0202bb000447f6
:0202bc000448f4
:0202bd00044af1
:0202be00044bef
:0202bf00044dec
:0202c000044eea
:0202c1000450e7
:0202c2000451e5
:0202c3000453e2
:0202c4000455df
:0202c5000456dd
:0202c6000458da
:0202c7000459d8
:0202c800045bd5
:0202c900045cd3
:0202ca00045ed0
:0202cb00045fce
:0202cc000461cb
:0202cd000463c8
:0202ce000464c6
:0202cf000466c3
:0202d0000467c1
:0202d1000469be
:0202d200046abc
:0202d300046cb9
:0202d400046db7
:0202d500046fb4
:0202d6000471b1
:0202d7000472af
:0202d8000474ac
:0202d9000475aa
:0202da000477a7
:0202db000478a5
:0202dc00047aa2
:0202dd00047ba0
:0202de00047d9d
:0202df00047f9a
:0202e000048098
:0202e100048295
:0202e200048393
:0202e300048590
:0202e40004868e
:0202e50004888b
:0202e600048989
:0202e700048b86
:0202e800048d83
:0202e900048e81
:0202ea0004907e
:0202eb0004917c
:0202ec00049379
:0202ed00049477
:0202ee00049674
:0202ef00049772
:0202f00004996f
:0202f100049b6c
:0202f200049c6a
:0202f300049e67
:0202f400049f65
:0202f50004a162
:0202f60004a260
:0202f70004a45d
:0202f80004a55b
:0202f90004a758
:0202fa0004a955
:0202fb0004aa53
:0202fc0004ac50
:0202fd0004ad4e
:0202fe0004af4b
:0202ff0004b049
:0203000004b245
:0203010004b343
:0203020004b540
:0203030004b73d
:0203040004b83b
:0203050004ba38
:0203060004bb36
:0203070004bd33
:0203080004be31
:0203090004c02e
:02030a0004c12c
:02030b0004c329
:02030c0004c526
:02030d0004c624
:02030e0004c821
:02030f0004c91f
:0203100004cb1c
:0203110004cc1a
:0203120004ce17
:0203130004cf15
:0203140004d112
:0203150004d210
:0203160004d40d
:0203170004d60a
:0203180004d708
:0203190004d905
:02031a0004da03
:02031b0004dc00
:02031c0004ddfe
:02031d0004dffb
:02031e0004e0f9
:02031f0004e2f6
:0203200004e4f3
:0203210004e5f1
:0203220004e7ee
:0203230004e8ec
:0203240004eae9
:0203250004ebe7
:0203260004ede4
:0203270004eee2
:0203280004f0df
:0203290004f2dc
:02032a0004f3da
:02032b0004f5d7
:02032c0004f6d5
:02032d0004f8d2
:02032e0004f9d0
:02032f0004fbcd
:0203300004fccb
:0203310004fec8
:0203320004ffc6
:020333000501c2
:020334000503bf
:020335000504bd
:020336000506ba
:020337000507b8
:020338000509b5
:02033900050ab3
:02033a00050cb0
:02033b00050dae
:02033c00050fab
:02033d000511a8
:02033e000512a6
:02033f000514a3
:020340000515a1
:0203410005179e
:0203420005189c
:02034300051a99
:02034400051b97
:02034500051d94
:02034600051f91
:0203470005208f
:0203480005228c
:0203490005238a
:02034a00052587
:02034b00052685
:02034c00052882
:02034d00052980
:02034e00052b7d
:02034f00052c7b
:02035000052e78
:02035100053075
:02035200053173
:02035300053370
:0203540005346e
:0203550005366b
:02035600053769
:02035700053966
:02035800053a64
:02035900053c61
:02035a00053e5e
:02035b00053f5c
:02035c00054159
:02035d00054257
:02035e00054454
:02035f00054552
:0203600005474f
:0203610005484d
:02036200054a4a
:02036300054b48
:02036400054d45
:02036500054f42
:02036600055040
:0203670005523d
:0203680005533b
:02036900055538
:02036a00055636
:02036b00055833
:02036c00055931
:02036d00055b2e
:02036e00055c2c
:02036f00055e29
:02037000056026
:02037100056124
:02037200056321
:0203730005641f
:0203740005661c
:0203750005671a
:02037600056917
:02037700056a15
:02037800056c12
:02037900056e0f
:02037a00056f0d
:02037b0005710a
:02037c00057208
:02037d00057405
:02037e00057503
:02037f00057700
:020380000578fe
:02038100057afb
:02038200057bf9
:02038300057df6
:02038400057ff3
:020385000580f1
:020386000582ee
:020387000583ec
:020388000585e9
:020389000586e7
:02038a000588e4
:02038b000589e2
:02038c00058bdf
:02038d00058cdd
:02038e00058eda
:02038f000590d7
:020390000591d5
:020391000593d2
:020392000594d0
:020393000596cd
:020394000597cb
:020395000599c8
:02039600059ac6
:02039700059cc3
:02039800059dc1
:02039900059fbe
:02039a0005a1bb
:02039b0005a2b9
:02039c0005a4b6
:02039d0005a5b4
:02039e0005a7b1
:02039f0005a8af
:0203a00005aaac
:0203a10005abaa
:0203a20005ada7
:0203a30005aea5
:0203a40005b0a2
:0203a50005b29f
:0203a60005b39d
:0203a70005b59a
:0203a80005b698
:0203a90005b895
:0203aa0005b993
:0203ab0005bb90
:0203ac0005bc8e
:0203ad0005be8b
:0203ae0005bf89
:0203af0005c186
:0203b00005c383
:0203b10005c481
:0203b20005c67e
:0203b30005c77c
:0203b40005c979
:0203b50005ca77
:0203b60005cc74
:0203b70005cd72
:0203b80005cf6f
:0203b90005d06d
:0203ba0005d26a
:0203bb0005d467
:0203bc0005d565
:0203bd0005d762
:0203be0005d860
:0203bf0005da5d
:0203c00005db5b
:0203c10005dd58
:0203c20005de56
:0203c30005e053
:0203c40005e151
:0203c50005e34e
:0203c60005e54b
:0203c70005e649
:0203c80005e846
:0203c90005e944
:0203ca0005eb41
:0203cb0005ec3f
:0203cc0005ee3c
:0203cd0005ef3a
:0203ce0005f137
:0203cf0005f235
:0203d00005f432
:0203d10005f62f
:0203d20005f72d
:0203d30005f92a
:0203d40005fa28
:0203d50005fc25
:0203d60005fd23
:0203d70005ff20
:0203d80006001d
:0203d90006021a
:0203da00060318
:0203db00060515
:0203dc00060613
:0203dd00060810
:0203de00060a0d
:0203df00060b0b
:0203e000060d08
:0203e100060e06
:0203e200061003
:0203e300061101
:0203e4000613fe
:0203e5000614fc
:0203e6000616f9
:0203e7000617f7
:0203e8000619f4
:0203e900061bf1
:0203ea00061cef
:0203eb00061eec
:0203ec00061fea
:0203ed000621e7
:0203ee000622e5
:0203ef000624e2
:0203f0000625e0
:0203f1000627dd
:0203f2000628db
:0203f300062ad8
:0203f400062bd6
:0203f500062dd3
:0203f600062fd0
:0203f7000630ce
:0203f8000632cb
:0203f9000633c9
:0203fa000635c6
:0203fb000636c4
:0203fc000638c1
:0203fd000639bf
:0203fe00063bbc
:0203ff00063cba
:02040000063eb6
:020401000640b3
:020402000641b1
:020403000643ae
:020404000644ac
:020405000646a9
:020406000647a7
:020407000649a4
:02040800064aa2
:02040900064c9f
:02040a00064d9d
:02040b00064f9a
:02040c00065098
:02040d00065295
:02040e00065492
:02040f00065590
:0204100006578d
:0204110006588b
:02041200065a88
:02041300065b86
:02041400065d83
:02041500065e81
:0204160006607e
:0204170006617c
:02041800066379
:02041900066477
:02041a00066674
:02041b00066871
:02041c0006696f
:02041d00066b6c
:02041e00066c6a
:02041f00066e67
:02042000066f65
:02042100067162
:02042200067260
:0204230006745d
:0204240006755b
:02042500067758
:02042600067856
:02042700067a53
:02042800067c50
:02042900067d4e
:02042a00067f4b
:02042b00068049
:02042c00068246
:02042d00068344
:02042e00068541
:02042f0006863f
:0204300006883c
:0204310006893a
:02043200068b37
:02043300068c35
:02043400068e32
:0204350006902f
:0204360006912d
:0204370006932a
:02043800069428
:02043900069625
:02043a00069723
:02043b00069920
:02043c00069a1e
:02043d00069c1b
:02043e00069d19
:02043f00069f16
:0204400006a014
:0204410006a211
:0204420006a40e
:0204430006a50c
:0204440006a709
:0204450006a807
:0204460006aa04
:0204470006ab02
:0204480006adff
:0204490006aefd
:02044a0006b0fa
:02044b0006b1f8
:02044c0006b3f5
:02044d0006b4f3
:02044e0006b6f0
:02044f0006b7ee
:0204500006b9eb
:0204510006bbe8
:0204520006bce6
:0204530006bee3
:0204540006bfe1
:0204550006c1de
:0204560006c2dc
:0204570006c4d9
:0204580006c5d7
:0204590006c7d4
:02045a0006c8d2
:02045b0006cacf
:02045c0006cbcd
:02045d0006cdca
:02045e0006cfc7
:02045f0006d0c5
:0204600006d2c2
:0204610006d3c0
:0204620006d5bd
:0204630006d6bb
:0204640006d8b8
:0204650006d9b6
:0204660006dbb3
:0204670006dcb1
:0204680006deae
:0204690006dfac
:02046a0006e1a9
:02046b0006e2a7
:02046c0006e4a4
:02046d0006e6a1
:02046e0006e79f
:02046f0006e99c
:0204700006ea9a
:0204710006ec97
:0204720006ed95
:0204730006ef92
:0204740006f090
:0204750006f28d
:0204760006f38b
:0204770006f588
:0204780006f686
:0204790006f883
:02047a0006f981
:02047b0006fb7e
:02047c0006fd7b
:02047d0006fe79
:02047e00070075
:02047f00070173
:02048000070370
:0204810007046e
:0204820007066b
:02048300070769
:02048400070966
:02048500070a64
:02048600070c61
:02048700070d5f
:02048800070f5c
:0204890007105a
:02048a00071257
:02048b00071454
:02048c00071552
:02048d0007174f
:02048e0007184d
:02048f00071a4a
:02049000071b48
:02049100071d45
:02049200071e43
:02049300072040
:0204940007213e
:0204950007233b
:02049600072439
:02049700072636
:02049800072734
:02049900072931
:02049a00072a2f
:02049b00072c2c
:02049c00072e29
:02049d00072f27
:02049e00073124
:02049f00073222
:0204a00007341f
:0204a10007351d
:0204a20007371a
:0204a300073818
:0204a400073a15
:0204a500073b13
:0204a600073d10
:0204a700073e0e
:0204a80007400b
:0204a900074109
:0204aa00074306
:0204ab00074404
:0204ac00074601
:0204ad000748fe
:0204ae000749fc
:0204af00074bf9
:0204b000074cf7
:0204b100074ef4
:0204b200074ff2
:0204b3000751ef
:0204b4000752ed
:0204b5000754ea
:0204b6000755e8
:0204b7000757e5
:0204b8000758e3
:0204b900075ae0
:0204ba00075bde
:0204bb00075ddb
:0204bc00075ed9
:0204bd000760d6
:0204be000762d3
:0204bf000763d1
:0204c0000765ce
:0204c1000766cc
:0204c2000768c9
:0204c3000769c7
:0204c400076bc4
:0204c500076cc2
:0204c600076ebf
:0204c700076fbd
:0204c8000771ba
:0204c9000772b8
:0204ca000774b5
:0204cb000775b3
:0204cc000777b0
:0204cd000778ae
:0204ce00077aab
:0204cf00077ca8
:0204d000077da6
:0204d100077fa3
:0204d2000780a1
:0204d30007829e
:0204d40007839c
:0204d500078599
:0204d600078697
:0204d700078894
:0204d800078992
:0204d900078b8f
:0204da00078c8d
:0204db00078e8a
:0204dc00078f88
:0204dd00079185
:0204de00079283
:0204df00079480
:0204e00007957e
:0204e10007977b
:0204e200079978
:0204e300079a76
:0204e400079c73
:0204e500079d71
:0204e600079f6e
:0204e70007a06c
:0204e80007a269
:0204e90007a367
:0204ea0007a564
:0204eb0007a662
:0204ec0007a85f
:0204ed0007a95d
:0204ee0007ab5a
:0204ef0007ac58
:0204f00007ae55
:0204f10007af53
:0204f20007b150
:0204f30007b24e
:0204f40007b44b
:0204f50007b549
:0204f60007b746
:0204f70007b943
:0204f80007ba41
:0204f90007bc3e
:0204fa0007bd3c
:0204fb0007bf39
:0204fc0007c037
:0204fd0007c234
:0204fe0007c332
:0204ff0007c52f
:0205000007c62c
:0205010007c829
:0205020007c927
:0205030007cb24
:0205040007cc22
:0205050007ce1f
:0205060007cf1d
:0205070007d11a
:0205080007d218
:0205090007d415
:02050a0007d513
:02050b0007d710
:02050c0007d90d
:02050d0007da0b
:02050e0007dc08
:02050f0007dd06
:0205100007df03
:0205110007e001
:0205120007e2fe
:0205130007e3fc
:0205140007e5f9
:0205150007e6f7
:0205160007e8f4
:0205170007e9f2
:0205180007ebef
:0205190007eced
:02051a0007eeea
:02051b0007efe8
:02051c0007f1e5
:02051d0007f2e3
:02051e0007f4e0
:02051f0007f5de
:0205200007f7db
:0205210007f8d9
:0205220007fad6
:0205230007fcd3
:0205240007fdd1
:0205250007ffce
:020526000800cb
:020527000802c8
:020528000803c6
:020529000805c3
:02052a000806c1
:02052b000808be
:02052c000809bc
:02052d00080bb9
:02052e00080cb7
:02052f00080eb4
:02053000080fb2
:020531000811af
:020532000812ad
:020533000814aa
:020534000815a8
:020535000817a5
:020536000818a3
:02053700081aa0
:02053800081b9e
:02053900081d9b
:02053a00081e99
:02053b00082096
:02053c00082293
:02053d00082391
:02053e0008258e
:02053f0008268c
:02054000082889
:02054100082987
:02054200082b84
:02054300082c82
:02054400082e7f
:02054500082f7d
:0205460008317a
:02054700083278
:02054800083475
:02054900083573
:02054a00083770
:02054b0008386e
:02054c00083a6b
:02054d00083b69
:02054e00083d66
:02054f00083e64
:02055000084061
:0205510008415f
:0205520008435c
:0205530008445a
:02055400084657
:02055500084755
:02055600084952
:02055700084b4f
:02055800084c4d
:02055900084e4a
:02055a00084f48
:02055b00085145
:02055c00085243
:02055d00085440
:02055e0008553e
:02055f0008573b
:02056000085839
:02056100085a36
:02056200085b34
:02056300085d31
:02056400085e2f
:0205650008602c
:0205660008612a
:02056700086327
:02056800086425
:02056900086622
:02056a00086720
:02056b0008691d
:02056c00086a1b
:02056d00086c18
:02056e00086d16
:02056f00086f13
:02057000087011
:0205710008720e
:0205720008730c
:02057300087509
:02057400087607
:02057500087804
:02057600087a01
:02057700087bff
:02057800087dfc
:02057900087efa
:02057a000880f7
:02057b000881f5
:02057c000883f2
:02057d000884f0
:02057e000886ed
:02057f000887eb
:020580000889e8
:02058100088ae6
:02058200088ce3
:02058300088de1
:02058400088fde
:020585000890dc
:020586000892d9
:020587000893d7
:020588000895d4
:020589000896d2
:02058a000898cf
:02058b000899cd
:02058c00089bca
:02058d00089cc8
:02058e00089ec5
:02058f00089fc3
:0205900008a1c0
:0205910008a2be
:0205920008a4bb
:0205930008a5b9
:0205940008a7b6
:0205950008a8b4
:0205960008aab1
:0205970008abaf
:0205980008adac
:0205990008aeaa
:02059a0008b0a7
:02059b0008b1a5
:02059c0008b3a2
:02059d0008b59f
:02059e0008b69d
:02059f0008b89a
:0205a00008b998
:0205a10008bb95
:0205a20008bc93
:0205a30008be90
:0205a40008bf8e
:0205a50008c18b
:0205a60008c289
:0205a70008c486
:0205a80008c584
:0205a90008c781
:0205aa0008c87f
:0205ab0008ca7c
:0205ac0008cb7a
:0205ad0008cd77
:0205ae0008ce75
:0205af0008d072
:0205b00008d170
:0205b10008d36d
:0205b20008d46b
:0205b30008d668
:0205b40008d766
:0205b50008d963
:0205b60008da61
:0205b70008dc5e
:0205b80008dd5c
:0205b90008df59
:0205ba0008e057
:0205bb0008e254
:0205bc0008e352
:0205bd0008e54f
:0205be0008e64d
:0205bf0008e84a
:0205c00008e948
:0205c10008eb45
:0205c20008ec43
:0205c30008ee40
:0205c40008ef3e
:0205c50008f13b
:0205c60008f239
:0205c70008f436
:0205c80008f534
:0205c90008f731
:0205ca0008f82f
:0205cb0008fa2c
:0205cc0008fb2a
:0205cd0008fd27
:0205ce0008fe25
:0205cf00090021
:0205d00009011f
:0205d10009031c
:0205d20009041a
:0205d300090617
:0205d400090814
:0205d500090912
:0205d600090b0f
:0205d700090c0d
:0205d800090e0a
:0205d900090f08
:0205da00091105
:0205db00091203
:0205dc00091400
:0205dd000915fe
:0205de000917fb
:0205df000918f9
:0205e000091af6
:0205e100091bf4
:0205e200091df1
:0205e300091eef
:0205e4000920ec
:0205e5000921ea
:0205e6000923e7
:0205e7000924e5
:0205e8000926e2
:0205e9000927e0
:0205ea000929dd
:0205eb00092adb
:0205ec00092cd8
:0205ed00092dd6
:0205ee00092fd3
:0205ef000930d1
:0205f0000932ce
:0205f1000933cc
:0205f2000935c9
:0205f3000936c7
:0205f4000938c4
:0205f5000939c2
:0205f600093bbf
:0205f700093cbd
:0205f800093eba
:0205f900093fb8
:0205fa000941b5
:0205fb000942b3
:0205fc000944b0
:0205fd000945ae
:0205fe000947ab
:0205ff000948a9
:02060000094aa5
:02060100094ba3
:02060200094da0
:02060300094e9e
:0206040009509b
:02060500095199
:02060600095396
:02060700095494
:02060800095691
:0206090009578f
:02060a0009598c
:02060b00095a8a
:02060c00095c87
:02060d00095d85
:02060e00095f82
:02060f00096080
:0206100009627d
:0206110009637b
:02061200096578
:02061300096676
:02061400096873
:02061500096971
:02061600096b6e
:02061700096c6c
:02061800096e69
:02061900096f67
:02061a00097164
:02061b00097262
:02061c0009745f
:02061d0009755d
:02061e0009775a
:02061f00097858
:02062000097a55
:02062100097b53
:02062200097d50
:02062300097e4e
:0206240009804b
:02062500098149
:02062600098346
:02062700098444
:02062800098641
:0206290009873f
:02062a0009893c
:02062b00098a3a
:02062c00098c37
:02062d00098d35
:02062e00098f32
:02062f00099030
:0206300009922d
:0206310009932b
:02063200099528
:02063300099626
:02063400099823
:02063500099921
:02063600099b1e
:02063700099c1c
:02063800099e19
:02063900099f17
:02063a0009a114
:02063b0009a212
:02063c0009a40f
:02063d0009a50d
:02063e0009a70a
:02063f0009a808
:0206400009aa05
:0206410009ab03
:0206420009ad00
:0206430009aefe
:0206440009b0fb
:0206450009b1f9
:0206460009b3f6
:0206470009b4f4
:0206480009b6f1
:0206490009b7ef
:02064a0009b9ec
:02064b0009baea
:02064c0009bce7
:02064d0009bde5
:02064e0009bfe2
:02064f0009c0e0
:0206500009c2dd
:0206510009c3db
:0206520009c5d8
:0206530009c6d6
:0206540009c8d3
:0206550009c9d1
:0206560009cbce
:0206570009cccc
:0206580009cec9
:0206590009cfc7
:02065a0009d1c4
:02065b0009d2c2
:02065c0009d4bf
:02065d0009d5bd
:02065e0009d7ba
:02065f0009d8b8
:0206600009dab5
:0206610009dbb3
:0206620009ddb0
:0206630009deae
:0206640009e0ab
:0206650009e1a9
:0206660009e3a6
:0206670009e4a4
:0206680009e6a1
:0206690009e79f
:02066a0009e99c
:02066b0009ea9a
:02066c0009ec97
:02066d0009ed95
:02066e0009ef92
:02066f0009f090
:0206700009f18e
:0206710009f38b
:0206720009f489
:0206730009f686
:0206740009f784
:0206750009f981
:0206760009fa7f
:0206770009fc7c
:0206780009fd7a
:0206790009ff77
:02067a000a0074
:02067b000a0271
:02067c000a036f
:02067d000a056c
:02067e000a066a
:02067f000a0867
:020680000a0965
:020681000a0b62
:020682000a0c60
:020683000a0e5d
:020684000a0f5b
:020685000a1158
:020686000a1256
:020687000a1453
:020688000a1551
:020689000a174e
:02068a000a184c
:02068b000a1a49
:02068c000a1b47
:02068d000a1d44
:02068e000a1e42
:02068f000a203f
:020690000a213d
:020691000a233a
:020692000a2438
:020693000a2635
:020694000a2733
:020695000a2930
:020696000a2a2e
:020697000a2c2b
:020698000a2d29
:020699000a2f26
:02069a000a3024
:02069b000a3221
:02069c000a331f
:02069d000a351c
:02069e000a361a
:02069f000a3817
:0206a0000a3915
:0206a1000a3b12
:0206a2000a3c10
:0206a3000a3e0d
:0206a4000a3f0b
:0206a5000a4009
:0206a6000a4206
:0206a7000a4304
:0206a8000a4501
:0206a9000a46ff
:0206aa000a48fc
:0206ab000a49fa
:0206ac000a4bf7
:0206ad000a4cf5
:0206ae000a4ef2
:0206af000a4ff0
:0206b0000a51ed
:0206b1000a52eb
:0206b2000a54e8
:0206b3000a55e6
:0206b4000a57e3
:0206b5000a58e1
:0206b6000a5ade
:0206b7000a5bdc
:0206b8000a5dd9
:0206b9000a5ed7
:0206ba000a60d4
:0206bb000a61d2
:0206bc000a63cf
:0206bd000a64cd
:0206be000a66ca
:0206bf000a67c8
:0206c0000a69c5
:0206c1000a6ac3
:0206c2000a6cc0
:0206c3000a6dbe
:0206c4000a6fbb
:0206c5000a70b9
:0206c6000a72b6
:0206c7000a73b4
:0206c8000a74b2
:0206c9000a76af
:0206ca000a77ad
:0206cb000a79aa
:0206cc000a7aa8
:0206cd000a7ca5
:0206ce000a7da3
:0206cf000a7fa0
:0206d0000a809e
:0206d1000a829b
:0206d2000a8399
:0206d3000a8596
:0206d4000a8694
:0206d5000a8891
:0206d6000a898f
:0206d7000a8b8c
:0206d8000a8c8a
:0206d9000a8e87
:0206da000a8f85
:0206db000a9182
:0206dc000a9280
:0206dd000a947d
:0206de000a957b
:0206df000a9778
:0206e0000a9876
:0206e1000a9a73
:0206e2000a9b71
:0206e3000a9d6e
:0206e4000a9e6c
:0206e5000aa069
:0206e6000aa167
:0206e7000aa265
:0206e8000aa462
:0206e9000aa560
:0206ea000aa75d
:0206eb000aa85b
:0206ec000aaa58
:0206ed000aab56
:0206ee000aad53
:0206ef000aae51
:0206f0000ab04e
:0206f1000ab14c
:0206f2000ab349
:0206f3000ab447
:0206f4000ab644
:0206f5000ab742
:0206f6000ab93f
:0206f7000aba3d
:0206f8000abc3a
:0206f9000abd38
:0206fa000abf35
:0206fb000ac033
:0206fc000ac230
:0206fd000ac32e
:0206fe000ac52b
:0206ff000ac629
:020700000ac726
:020701000ac923
:020702000aca21
:020703000acc1e
:020704000acd1c
:020705000acf19
:020706000ad017
:020707000ad214
:020708000ad312
:020709000ad50f
:02070a000ad60d
:02070b000ad80a
:02070c000ad908
:02070d000adb05
:02070e000adc03
:02070f000ade00
:020710000adffe
:020711000ae1fb
:020712000ae2f9
:020713000ae4f6
:020714000ae5f4
:020715000ae6f2
:020716000ae8ef
:020717000ae9ed
:020718000aebea
:020719000aece8
:02071a000aeee5
:02071b000aefe3
:02071c000af1e0
:02071d000af2de
:02071e000af4db
:02071f000af5d9
:020720000af7d6
:020721000af8d4
:020722000afad1
:020723000afbcf
:020724000afdcc
:020725000afeca
:020726000b00c6
:020727000b01c4
:020728000b03c1
:020729000b04bf
:02072a000b05bd
:02072b000b07ba
:02072c000b08b8
:02072d000b0ab5
:02072e000b0bb3
:02072f000b0db0
:020730000b0eae
:020731000b10ab
:020732000b11a9
:020733000b13a6
:020734000b14a4
:020735000b16a1
:020736000b179f
:020737000b199c
:020738000b1a9a
:020739000b1c97
:02073a000b1d95
:02073b000b1f92
:02073c000b2090
:02073d000b218e
:02073e000b238b
:02073f000b2489
:020740000b2686
:020741000b2784
:020742000b2981
:020743000b2a7f
:020744000b2c7c
:020745000b2d7a
:020746000b2f77
:020747000b3075
:020748000b3272
:020749000b3370
:02074a000b356d
:02074b000b366b
:02074c000b3868
:02074d000b3966
:02074e000b3a64
:02074f000b3c61
:020750000b3d5f
:020751000b3f5c
:020752000b405a
:020753000b4257
:020754000b4355
:020755000b4552
:020756000b4650
:020757000b484d
:020758000b494b
:020759000b4b48
:02075a000b4c46
:02075b000b4e43
:02075c000b4f41
:02075d000b513e
:02075e000b523c
:02075f000b533a
:020760000b5537
:020761000b5635
:020762000b5832
:020763000b5930
:020764000b5b2d
:020765000b5c2b
:020766000b5e28
:020767000b5f26
:020768000b6123
:020769000b6221
:02076a000b641e
:02076b000b651c
:02076c000b6719
:02076d000b6817
:02076e000b6a14
:02076f000b6b12
:020770000b6c10
:020771000b6e0d
:020772000b6f0b
:020773000b7108
:020774000b7206
:020775000b7403
:020776000b7501
:020777000b77fe
:020778000b78fc
:020779000b7af9
:02077a000b7bf7
:02077b000b7df4
:02077c000b7ef2
:02077d000b80ef
:02077e000b81ed
:02077f000b82eb
:020780000b84e8
:020781000b85e6
:020782000b87e3
:020783000b88e1
:020784000b8ade
:020785000b8bdc
:020786000b8dd9
:020787000b8ed7
:020788000b90d4
:020789000b91d2
:02078a000b93cf
:02078b000b94cd
:02078c000b95cb
:02078d000b97c8
:02078e000b98c6
:02078f000b9ac3
:020790000b9bc1
:020791000b9dbe
:020792000b9ebc
:020793000ba0b9
:020794000ba1b7
:020795000ba3b4
:020796000ba4b2
:020797000ba6af
:020798000ba7ad
:020799000ba9aa
:02079a000baaa8
:02079b000baba6
:02079c000bada3
:02079d000baea1
:02079e000bb09e
:02079f000bb19c
:0207a0000bb399
:0207a1000bb497
:0207a2000bb694
:0207a3000bb792
:0207a4000bb98f
:0207a5000bba8d
:0207a6000bbc8a
:0207a7000bbd88
:0207a8000bbe86
:0207a9000bc083
:0207aa000bc181
:0207ab000bc37e
:0207ac000bc47c
:0207ad000bc679
:0207ae000bc777
:0207af000bc974
:0207b0000bca72
:0207b1000bcc6f
:0207b2000bcd6d
:0207b3000bce6b
:0207b4000bd068
:0207b5000bd166
:0207b6000bd363
:0207b7000bd461
:0207b8000bd65e
:0207b9000bd75c
:0207ba000bd959
:0207bb000bda57
:0207bc000bdc54
:0207bd000bdd52
:0207be000bdf4f
:0207bf000be04d
:0207c0000be14b
:0207c1000be348
:0207c2000be446
:0207c3000be643
:0207c4000be741
:0207c5000be93e
:0207c6000bea3c
:0207c7000bec39
:0207c8000bed37
:0207c9000bef34
:0207ca000bf032
:0207cb000bf130
:0207cc000bf32d
:0207cd000bf42b
:0207ce000bf628
:0207cf000bf726
:0207d0000bf923
:0207d1000bfa21
:0207d2000bfc1e
:0207d3000bfd1c
:0207d4000bff19
:0207d5000c0016
:0207d6000c0213
:0207d7000c0311
:0207d8000c040f
:0207d9000c060c
:0207da000c070a
:0207db000c0907
:0207dc000c0a05
:0207dd000c0c02
:0207de000c0d00
:0207df000c0ffd
:0207e0000c10fb
:0207e1000c12f8
:0207e2000c13f6
:0207e3000c14f4
:0207e4000c16f1
:0207e5000c17ef
:0207e6000c19ec
:0207e7000c1aea
:0207e8000c1ce7
:0207e9000c1de5
:0207ea000c1fe2
:0207eb000c20e0
:0207ec000c22dd
:0207ed000c23db
:0207ee000c24d9
:0207ef000c26d6
:0207f0000c27d4
:0207f1000c29d1
:0207f2000c2acf
:0207f3000c2ccc
:0207f4000c2dca
:0207f5000c2fc7
:0207f6000c30c5
:0207f7000c31c3
:0207f8000c33c0
:0207f9000c34be
:0207fa000c36bb
:0207fb000c37b9
:0207fc000c39b6
:0207fd000c3ab4
:0207fe000c3cb1
:0207ff000c3daf
:020800000c3fab
:020801000c40a9
:020802000c41a7
:020803000c43a4
:020804000c44a2
:020805000c469f
:020806000c479d
:020807000c499a
:020808000c4a98
:020809000c4c95
:02080a000c4d93
:02080b000c4f90
:02080c000c508e
:02080d000c518c
:02080e000c5389
:02080f000c5487
:020810000c5684
:020811000c5782
:020812000c597f
:020813000c5a7d
:020814000c5c7a
:020815000c5d78
:020816000c5e76
:020817000c6073
:020818000c6171
:020819000c636e
:02081a000c646c
:02081b000c6669
:02081c000c6767
:02081d000c6964
:02081e000c6a62
:02081f000c6b60
:020820000c6d5d
:020821000c6e5b
:020822000c7058
:020823000c7156
:020824000c7353
:020825000c7451
:020826000c764e
:020827000c774c
:020828000c7949
:020829000c7a47
:02082a000c7b45
:02082b000c7d42
:02082c000c7e40
:02082d000c803d
:02082e000c813b
:02082f000c8338
:020830000c8436
:020831000c8633
:020832000c8731
:020833000c882f
:020834000c8a2c
:020835000c8b2a
:020836000c8d27
:020837000c8e25
:020838000c9022
:020839000c9120
:02083a000c931d
:02083b000c941b
:02083c000c9519
:02083d000c9716
:02083e000c9814
:02083f000c9a11
:020840000c9b0f
:020841000c9d0c
:020842000c9e0a
:020843000ca007
:020844000ca105
:020845000ca203
:020846000ca400
:020847000ca5fe
:020848000ca7fb
:020849000ca8f9
:02084a000caaf6
:02084b000cabf4
:02084c000cadf1
:02084d000caeef
:02084e000cafed
:02084f000cb1ea
:020850000cb2e8
:020851000cb4e5
:020852000cb5e3
:020853000cb7e0
:020854000cb8de
:020855000cb9dc
:020856000cbbd9
:020857000cbcd7
:020858000cbed4
:020859000cbfd2
:02085a000cc1cf
:02085b000cc2cd
:02085c000cc4ca
:02085d000cc5c8
:02085e000cc6c6
:02085f000cc8c3
:020860000cc9c1
:020861000ccbbe
:020862000cccbc
:020863000cceb9
:020864000ccfb7
:020865000cd1b4
:020866000cd2b2
:020867000cd3b0
:020868000cd5ad
:020869000cd6ab
:02086a000cd8a8
:02086b000cd9a6
:02086c000cdba3
:02086d000cdca1
:02086e000cdd9f
:02086f000cdf9c
:020870000ce09a
:020871000ce297
:020872000ce395
:020873000ce592
:020874000ce690
:020875000ce88d
:020876000ce98b
:020877000cea89
:020878000cec86
:020879000ced84
:02087a000cef81
:02087b000cf07f
:02087c000cf27c
:02087d000cf37a
:02087e000cf478
:02087f000cf675
:020880000cf773
:020881000cf970
:020882000cfa6e
:020883000cfc6b
:020884000cfd69
:020885000cff66
:020886000d0063
:020887000d0161
:020888000d035e
:020889000d045c
:02088a000d0659
:02088b000d0757
:02088c000d0954
:02088d000d0a52
:02088e000d0b50
:02088f000d0d4d
:020890000d0e4b
:020891000d1048
:020892000d1146
:020893000d1343
:020894000d1441
:020895000d153f
:020896000d173c
:020897000d183a
:020898000d1a37
:020899000d1b35
:02089a000d1d32
:02089b000d1e30
:02089c000d1f2e
:02089d000d212b
:02089e000d2229
:02089f000d2426
:0208a0000d2524
:0208a1000d2721
:0208a2000d281f
:0208a3000d2a1c
:0208a4000d2b1a
:0208a5000d2c18
:0208a6000d2e15
:0208a7000d2f13
:0208a8000d3110
:0208a9000d320e
:0208aa000d340b
:0208ab000d3509
:0208ac000d3607
:0208ad000d3804
:0208ae000d3902
:0208af000d3bff
:0208b0000d3cfd
:0208b1000d3efa
:0208b2000d3ff8
:0208b3000d40f6
:0208b4000d42f3
:0208b5000d43f1
:0208b6000d45ee
:0208b7000d46ec
:0208b8000d48e9
:0208b9000d49e7
:0208ba000d4ae5
:0208bb000d4ce2
:0208bc000d4de0
:0208bd000d4fdd
:0208be000d50db
:0208bf000d52d8
:0208c0000d53d6
:0208c1000d54d4
:0208c2000d56d1
:0208c3000d57cf
:0208c4000d59cc
:0208c5000d5aca
:0208c6000d5cc7
:0208c7000d5dc5
:0208c8000d5ec3
:0208c9000d60c0
:0208ca000d61be
:0208cb000d63bb
:0208cc000d64b9
:0208cd000d66b6
:0208ce000d67b4
:0208cf000d68b2
:0208d0000d6aaf
:0208d1000d6bad
:0208d2000d6daa
:0208d3000d6ea8
:0208d4000d70a5
:0208d5000d71a3
:0208d6000d72a1
:0208d7000d749e
:0208d8000d759c
:0208d9000d7799
:0208da000d7897
:0208db000d7995
:0208dc000d7b92
:0208dd000d7c90
:0208de000d7e8d
:0208df000d7f8b
:0208e0000d8188
:0208e1000d8286
:0208e2000d8384
:0208e3000d8581
:0208e4000d867f
:0208e5000d887c
:0208e6000d897a
:0208e7000d8b77
:0208e8000d8c75
:0208e9000d8d73
:0208ea000d8f70
:0208eb000d906e
:0208ec000d926b
:0208ed000d9369
:0208ee000d9566
:0208ef000d9664
:0208f0000d9762
:0208f1000d995f
:0208f2000d9a5d
:0208f3000d9c5a
:0208f4000d9d58
:0208f5000d9e56
:0208f6000da053
:0208f7000da151
:0208f8000da34e
:0208f9000da44c
:0208fa000da649
:0208fb000da747
:0208fc000da845
:0208fd000daa42
:0208fe000dab40
:0208ff000dad3d
:020900000dae3a
:020901000db037
:020902000db135
:020903000db233
:020904000db430
:020905000db52e
:020906000db72b
:020907000db829
:020908000db927
:020909000dbb24
:02090a000dbc22
:02090b000dbe1f
:02090c000dbf1d
:02090d000dc11a
:02090e000dc218
:02090f000dc316
:020910000dc513
:020911000dc611
:020912000dc80e
:020913000dc90c
:020914000dca0a
:020915000dcc07
:020916000dcd05
:020917000dcf02
:020918000dd000
:020919000dd2fd
:02091a000dd3fb
:02091b000dd4f9
:02091c000dd6f6
:02091d000dd7f4
:02091e000dd9f1
:02091f000ddaef
:020920000ddbed
:020921000dddea
:020922000ddee8
:020923000de0e5
:020924000de1e3
:020925000de3e0
:020926000de4de
:020927000de5dc
:020928000de7d9
:020929000de8d7
:02092a000dead4
:02092b000debd2
:02092c000decd0
:02092d000deecd
:02092e000defcb
:02092f000df1c8
:020930000df2c6
:020931000df4c3
:020932000df5c1
:020933000df6bf
:020934000df8bc
:020935000df9ba
:020936000dfbb7
:020937000dfcb5
:020938000dfdb3
:020939000dffb0
:02093a000e00ad
:02093b000e02aa
:02093c000e03a8
:02093d000e04a6
:02093e000e06a3
:02093f000e07a1
:020940000e099e
:020941000e0a9c
:020942000e0c99
:020943000e0d97
:020944000e0e95
:020945000e1092
:020946000e1190
:020947000e138d
:020948000e148b
:020949000e1589
:02094a000e1786
:02094b000e1884
:02094c000e1a81
:02094d000e1b7f
:02094e000e1c7d
:02094f000e1e7a
:020950000e1f78
:020951000e2175
:020952000e2273
:020953000e2371
:020954000e256e
:020955000e266c
:020956000e2869
:020957000e2967
:020958000e2b64
:020959000e2c62
:02095a000e2d60
:02095b000e2f5d
:02095c000e305b
:02095d000e3258
:02095e000e3356
:02095f000e3454
:020960000e3651
:020961000e374f
:020962000e394c
:020963000e3a4a
:020964000e3b48
:020965000e3d45
:020966000e3e43
:020967000e4040
:020968000e413e
:020969000e423c
:02096a000e4439
:02096b000e4537
:02096c000e4734
:02096d000e4832
:02096e000e4930
:02096f000e4b2d
:020970000e4c2b
:020971000e4e28
:020972000e4f26
:020973000e5123
:020974000e5221
:020975000e531f
:020976000e551c
:020977000e561a
:020978000e5817
:020979000e5915
:02097a000e5a13
:02097b000e5c10
:02097c000e5d0e
:02097d000e5f0b
:02097e000e6009
:02097f000e6107
:020980000e6304
:020981000e6402
:020982000e66ff
:020983000e67fd
:020984000e68fb
:020985000e6af8
:020986000e6bf6
:020987000e6df3
:020988000e6ef1
:020989000e6fef
:02098a000e71ec
:02098b000e72ea
:02098c000e74e7
:02098d000e75e5
:02098e000e76e3
:02098f000e78e0
:020990000e79de
:020991000e7bdb
:020992000e7cd9
:020993000e7dd7
:020994000e7fd4
:020995000e80d2
:020996000e82cf
:020997000e83cd
:020998000e84cb
:020999000e86c8
:02099a000e87c6
:02099b000e89c3
:02099c000e8ac1
:02099d000e8bbf
:02099e000e8dbc
:02099f000e8eba
:0209a0000e90b7
:0209a1000e91b5
:0209a2000e92b3
:0209a3000e94b0
:0209a4000e95ae
:0209a5000e97ab
:0209a6000e98a9
:0209a7000e99a7
:0209a8000e9ba4
:0209a9000e9ca2
:0209aa000e9e9f
:0209ab000e9f9d
:0209ac000ea09b
:0209ad000ea298
:0209ae000ea396
:0209af000ea593
:0209b0000ea691
:0209b1000ea78f
:0209b2000ea98c
:0209b3000eaa8a
:0209b4000eac87
:0209b5000ead85
:0209b6000eae83
:0209b7000eb080
:0209b8000eb17e
:0209b9000eb37b
:0209ba000eb479
:0209bb000eb577
:0209bc000eb774
:0209bd000eb872
:0209be000eb970
:0209bf000ebb6d
:0209c0000ebc6b
:0209c1000ebe68
:0209c2000ebf66
:0209c3000ec064
:0209c4000ec261
:0209c5000ec35f
:0209c6000ec55c
:0209c7000ec65a
:0209c8000ec758
:0209c9000ec955
:0209ca000eca53
:0209cb000ecc50
:0209cc000ecd4e
:0209cd000ece4c
:0209ce000ed049
:0209cf000ed147
:0209d0000ed344
:0209d1000ed442
:0209d2000ed540
:0209d3000ed73d
:0209d4000ed83b
:0209d5000eda38
:0209d6000edb36
:0209d7000edc34
:0209d8000ede31
:0209d9000edf2f
:0209da000ee02d
:0209db000ee22a
:0209dc000ee328
:0209dd000ee525
:0209de000ee623
:0209df000ee721
:0209e0000ee91e
:0209e1000eea1c
:0209e2000eec19
:0209e3000eed17
:0209e4000eee15
:0209e5000ef012
:0209e6000ef110
:0209e7000ef30d
:0209e8000ef40b
:0209e9000ef509
:0209ea000ef706
:0209eb000ef804
:0209ec000ef902
:0209ed000efbff
:0209ee000efcfd
:0209ef000efefa
:0209f0000efff8
:0209f1000f00f5
:0209f2000f02f2
:0209f3000f03f0
:0209f4000f05ed
:0209f5000f06eb
:0209f6000f07e9
:0209f7000f09e6
:0209f8000f0ae4
:0209f9000f0ce1
:0209fa000f0ddf
:0209fb000f0edd
:0209fc000f10da
:0209fd000f11d8
:0209fe000f12d6
:0209ff000f14d3
:020a00000f15d0
:020a01000f17cd
:020a02000f18cb
:020a03000f19c9
:020a04000f1bc6
:020a05000f1cc4
:020a06000f1ec1
:020a07000f1fbf
:020a08000f20bd
:020a09000f22ba
:020a0a000f23b8
:020a0b000f24b6
:020a0c000f26b3
:020a0d000f27b1
:020a0e000f29ae
:020a0f000f2aac
:020a10000f2baa
:020a11000f2da7
:020a12000f2ea5
:020a13000f30a2
:020a14000f31a0
:020a15000f329e
:020a16000f349b
:020a17000f3599
:020a18000f3697
:020a19000f3894
:020a1a000f3992
:020a1b000f3b8f
:020a1c000f3c8d
:020a1d000f3d8b
:020a1e000f3f88
:020a1f000f4086
:020a20000f4184
:020a21000f4381
:020a22000f447f
:020a23000f467c
:020a24000f477a
:020a25000f4878
:020a26000f4a75
:020a27000f4b73
:020a28000f4d70
:020a29000f4e6e
:020a2a000f4f6c
:020a2b000f5169
:020a2c000f5267
:020a2d000f5365
:020a2e000f5562
:020a2f000f5660
:020a30000f585d
:020a31000f595b
:020a32000f5a59
:020a33000f5c56
:020a34000f5d54
:020a35000f5e52
:020a36000f604f
:020a37000f614d
:020a38000f634a
:020a39000f6448
:020a3a000f6546
:020a3b000f6743
:020a3c000f6841
:020a3d000f693f
:020a3e000f6b3c
:020a3f000f6c3a
:020a40000f6e37
:020a41000f6f35
:020a42000f7033
:020a43000f7230
:020a44000f732e
:020a45000f742c
:020a46000f7629
:020a47000f7727
:020a48000f7924
:020a49000f7a22
:020a4a000f7b20
:020a4b000f7d1d
:020a4c000f7e1b
:020a4d000f7f19
:020a4e000f8116
:020a4f000f8214
:020a50000f8411
:020a51000f850f
:020a52000f860d
:020a53000f880a
:020a54000f8908
:020a55000f8a06
:020a56000f8c03
:020a57000f8d01
:020a58000f8ffe
:020a59000f90fc
:020a5a000f91fa
:020a5b000f93f7
:020a5c000f94f5
:020a5d000f95f3
:020a5e000f97f0
:020a5f000f98ee
:020a60000f9aeb
:020a61000f9be9
:020a62000f9ce7
:020a63000f9ee4
:020a64000f9fe2
:020a65000fa0e0
:020a66000fa2dd
:020a67000fa3db
:020a68000fa4d9
:020a69000fa6d6
:020a6a000fa7d4
:020a6b000fa9d1
:020a6c000faacf
:020a6d000fabcd
:020a6e000fadca
:020a6f000faec8
:020a70000fafc6
:020a71000fb1c3
:020a72000fb2c1
:020a73000fb4be
:020a74000fb5bc
:020a75000fb6ba
:020a76000fb8b7
:020a77000fb9b5
:020a78000fbab3
:020a79000fbcb0
:020a7a000fbdae
:020a7b000fbeac
:020a7c000fc0a9
:020a7d000fc1a7
:020a7e000fc3a4
:020a7f000fc4a2
:020a80000fc5a0
:020a81000fc79d
:020a82000fc89b
:020a83000fc999
:020a84000fcb96
:020a85000fcc94
:020a86000fce91
:020a87000fcf8f
:020a88000fd08d
:020a89000fd28a
:020a8a000fd388
:020a8b000fd486
:020a8c000fd683
:020a8d000fd781
:020a8e000fd87f
:020a8f000fda7c
:020a90000fdb7a
:020a91000fdd77
:020a92000fde75
:020a93000fdf73
:020a94000fe170
:020a95000fe26e
:020a96000fe36c
:020a97000fe569
:020a98000fe667
:020a99000fe765
:020a9a000fe962
:020a9b000fea60
:020a9c000fec5d
:020a9d000fed5b
:020a9e000fee59
:020a9f000ff056
:020aa0000ff154
:020aa1000ff252
:020aa2000ff44f
:020aa3000ff54d
:020aa4000ff64b
:020aa5000ff848
:020aa6000ff946
:020aa7000ffb43
:020aa8000ffc41
:020aa9000ffd3f
:020aaa000fff3c
:020aab00100039
:020aac00100137
:020aad00100334
:020aae00100432
:020aaf00100530
:020ab00010072d
:020ab10010082b
:020ab200100929
:020ab300100b26
:020ab400100c24
:020ab500100e21
:020ab600100f1f
:020ab70010101d
:020ab80010121a
:020ab900101318
:020aba00101416
:020abb00101613
:020abc00101711
:020abd0010180f
:020abe00101a0c
:020abf00101b0a
:020ac000101c08
:020ac100101e05
:020ac200101f03
:020ac300102100
:020ac4001022fe
:020ac5001023fc
:020ac6001025f9
:020ac7001026f7
:020ac8001027f5
:020ac9001029f2
:020aca00102af0
:020acb00102bee
:020acc00102deb
:020acd00102ee9
:020ace00102fe7
:020acf001031e4
:020ad0001032e2
:020ad1001034df
:020ad2001035dd
:020ad3001036db
:020ad4001038d8
:020ad5001039d6
:020ad600103ad4
:020ad700103cd1
:020ad800103dcf
:020ad900103ecd
:020ada001040ca
:020adb001041c8
:020adc001042c6
:020add001044c3
:020ade001045c1
:020adf001046bf
:020ae0001048bc
:020ae1001049ba
:020ae200104bb7
:020ae300104cb5
:020ae400104db3
:020ae500104fb0
:020ae6001050ae
:020ae7001051ac
:020ae8001053a9
:020ae9001054a7
:020aea001055a5
:020aeb001057a2
:020aec001058a0
:020aed0010599e
:020aee00105b9b
:020aef00105c99
:020af000105d97
:020af100105f94
:020af200106092
:020af300106190
:020af40010638d
:020af50010648b
:020af600106688
:020af700106786
:020af800106884
:020af900106a81
:020afa00106b7f
:020afb00106c7d
:020afc00106e7a
:020afd00106f78
:020afe00107076
:020aff00107273
:020b0000107370
:020b010010746e
:020b020010766b
:020b0300107769
:020b0400107867
:020b0500107a64
:020b0600107b62
:020b0700107c60
:020b0800107e5d
:020b0900107f5b
:020b0a00108059
:020b0b00108256
:020b0c00108354
:020b0d00108551
:020b0e0010864f
:020b0f0010874d
:020b100010894a
:020b1100108a48
:020b1200108b46
:020b1300108d43
:020b1400108e41
:020b1500108f3f
:020b160010913c
:020b170010923a
:020b1800109338
:020b1900109535
:020b1a00109633
:020b1b00109731
:020b1c0010992e
:020b1d00109a2c
:020b1e00109b2a
:020b1f00109d27
:020b2000109e25
:020b2100109f23
:020b220010a120
:020b230010a21e
:020b240010a31c
:020b250010a519
:020b260010a617
:020b270010a715
:020b280010a912
:020b290010aa10
:020b2a0010ab0e
:020b2b0010ad0b
:020b2c0010ae09
:020b2d0010af07
:020b2e0010b104
:020b2f0010b202
:020b300010b300
:020b310010b5fd
:020b320010b6fb
:020b330010b8f8
:020b340010b9f6
:020b350010baf4
:020b360010bcf1
:020b370010bdef
:020b380010beed
:020b390010c0ea
:020b3a0010c1e8
:020b3b0010c2e6
:020b3c0010c4e3
:020b3d0010c5e1
:020b3e0010c6df
:020b3f0010c8dc
:020b400010c9da
:020b410010cad8
:020b420010ccd5
:020b430010cdd3
:020b440010ced1
:020b450010d0ce
:020b460010d1cc
:020b470010d2ca
:020b480010d4c7
:020b490010d5c5
:020b4a0010d6c3
:020b4b0010d8c0
:020b4c0010d9be
:020b4d0010dabc
:020b4e0010dcb9
:020b4f0010ddb7
:020b500010deb5
:020b510010e0b2
:020b520010e1b0
:020b530010e2ae
:020b540010e4ab
:020b550010e5a9
:020b560010e6a7
:020b570010e8a4
:020b580010e9a2
:020b590010eaa0
:020b5a0010ec9d
:020b5b0010ed9b
:020b5c0010ee99
:020b5d0010f096
:020b5e0010f194
:020b5f0010f292
:020b600010f48f
:020b610010f58d
:020b620010f68b
:020b630010f888
:020b640010f986
:020b650010fa84
:020b660010fc81
:020b670010fd7f
:020b680010fe7d
:020b6900110079
:020b6a00110177
:020b6b00110275
:020b6c00110472
:020b6d00110570
:020b6e0011066e
:020b6f0011086b
:020b7000110969
:020b7100110a67
:020b7200110c64
:020b7300110d62
:020b7400110e60
:020b750011105d
:020b760011115b
:020b7700111259
:020b7800111456
:020b7900111554
:020b7a00111652
:020b7b0011184f
:020b7c0011194d
:020b7d00111a4b
:020b7e00111c48
:020b7f00111d46
:020b8000111e44
:020b8100111f42
:020b820011213f
:020b830011223d
:020b840011233b
:020b8500112538
:020b8600112636
:020b8700112734
:020b8800112931
:020b8900112a2f
:020b8a00112b2d
:020b8b00112d2a
:020b8c00112e28
:020b8d00112f26
:020b8e00113123
:020b8f00113221
:020b900011331f
:020b910011351c
:020b920011361a
:020b9300113718
:020b9400113915
:020b9500113a13
:020b9600113b11
:020b9700113d0e
:020b9800113e0c
:020b9900113f0a
:020b9a00114107
:020b9b00114205
:020b9c00114303
:020b9d00114500
:020b9e001146fe
:020b9f001147fc
:020ba0001149f9
:020ba100114af7
:020ba200114bf5
:020ba300114df2
:020ba400114ef0
:020ba500114fee
:020ba6001150ec
:020ba7001152e9
:020ba8001153e7
:020ba9001154e5
:020baa001156e2
:020bab001157e0
:020bac001158de
:020bad00115adb
:020bae00115bd9
:020baf00115cd7
:020bb000115ed4
:020bb100115fd2
:020bb2001160d0
:020bb3001162cd
:020bb4001163cb
:020bb5001164c9
:020bb6001166c6
:020bb7001167c4
:020bb8001168c2
:020bb900116abf
:020bba00116bbd
:020bbb00116cbb
:020bbc00116db9
:020bbd00116fb6
:020bbe001170b4
:020bbf001171b2
:020bc0001173af
:020bc1001174ad
:020bc2001175ab
:020bc3001177a8
:020bc4001178a6
:020bc5001179a4
:020bc600117ba1
:020bc700117c9f
:020bc800117d9d
:020bc900117f9a
:020bca00118098
:020bcb00118196
:020bcc00118393
:020bcd00118491
:020bce0011858f
:020bcf0011868d
:020bd00011888a
:020bd100118988
:020bd200118a86
:020bd300118c83
:020bd400118d81
:020bd500118e7f
:020bd60011907c
:020bd70011917a
:020bd800119278
:020bd900119475
:020bda00119573
:020bdb00119671
:020bdc0011986e
:020bdd0011996c
:020bde00119a6a
:020bdf00119b68
:020be000119d65
:020be100119e63
:020be200119f61
:020be30011a15e
:020be40011a25c
:020be50011a35a
:020be60011a557
:020be70011a655
:020be80011a753
:020be90011a950
:020bea0011aa4e
:020beb0011ab4c
:020bec0011ad49
:020bed0011ae47
:020bee0011af45
:020bef0011b043
:020bf00011b240
:020bf10011b33e
:020bf20011b43c
:020bf30011b639
:020bf40011b737
:020bf50011b835
:020bf60011ba32
:020bf70011bb30
:020bf80011bc2e
:020bf90011be2b
:020bfa0011bf29
:020bfb0011c027
:020bfc0011c125
:020bfd0011c322
:020bfe0011c420
:020bff0011c51e
:020c000011c71a
:020c010011c818
:020c020011c916
:020c030011cb13
:020c040011cc11
:020c050011cd0f
:020c060011cf0c
:020c070011d00a
:020c080011d108
:020c090011d206
:020c0a0011d403
:020c0b0011d501
:020c0c0011d6ff
:020c0d0011d8fc
:020c0e0011d9fa
:020c0f0011daf8
:020c100011dcf5
:020c110011ddf3
:020c120011def1
:020c130011dfef
:020c140011e1ec
:020c150011e2ea
:020c160011e3e8
:020c170011e5e5
:020c180011e6e3
:020c190011e7e1
:020c1a0011e9de
:020c1b0011eadc
:020c1c0011ebda
:020c1d0011ecd8
:020c1e0011eed5
:020c1f0011efd3
:020c200011f0d1
:020c210011f2ce
:020c220011f3cc
:020c230011f4ca
:020c240011f6c7
:020c250011f7c5
:020c260011f8c3
:020c270011f9c1
:020c280011fbbe
:020c290011fcbc
:020c2a0011fdba
:020c2b0011ffb7
:020c2c001200b4
:020c2d001201b2
:020c2e001203af
:020c2f001204ad
:020c30001205ab
:020c31001206a9
:020c32001208a6
:020c33001209a4
:020c3400120aa2
:020c3500120c9f
:020c3600120d9d
:020c3700120e9b
:020c3800121098
:020c3900121196
:020c3a00121294
:020c3b00121392
:020c3c0012158f
:020c3d0012168d
:020c3e0012178b
:020c3f00121988
:020c4000121a86
:020c4100121b84
:020c4200121c82
:020c4300121e7f
:020c4400121f7d
:020c450012207b
:020c4600122278
:020c4700122376
:020c4800122474
:020c4900122671
:020c4a0012276f
:020c4b0012286d
:020c4c0012296b
:020c4d00122b68
:020c4e00122c66
:020c4f00122d64
:020c5000122f61
:020c510012305f
:020c520012315d
:020c530012325b
:020c5400123458
:020c5500123556
:020c5600123654
:020c5700123851
:020c580012394f
:020c5900123a4d
:020c5a00123c4a
:020c5b00123d48
:020c5c00123e46
:020c5d00123f44
:020c5e00124141
:020c5f0012423f
:020c600012433d
:020c610012453a
:020c6200124638
:020c6300124736
:020c6400124834
:020c6500124a31
:020c6600124b2f
:020c6700124c2d
:020c6800124e2a
:020c6900124f28
:020c6a00125026
:020c6b00125124
:020c6c00125321
:020c6d0012541f
:020c6e0012551d
:020c6f0012571a
:020c7000125818
:020c7100125916
:020c7200125a14
:020c7300125c11
:020c7400125d0f
:020c7500125e0d
:020c760012600a
:020c7700126108
:020c7800126206
:020c7900126304
:020c7a00126501
:020c7b001266ff
:020c7c001267fd
:020c7d001269fa
:020c7e00126af8
:020c7f00126bf6
:020c8000126cf4
:020c8100126ef1
:020c8200126fef
:020c83001270ed
:020c84001272ea
:020c85001273e8
:020c86001274e6
:020c87001275e4
:020c88001277e1
:020c89001278df
:020c8a001279dd
:020c8b00127bda
:020c8c00127cd8
:020c8d00127dd6
:020c8e00127ed4
:020c8f001280d1
:020c90001281cf
:020c91001282cd
:020c92001284ca
:020c93001285c8
:020c94001286c6
:020c95001287c4
:020c96001289c1
:020c9700128abf
:020c9800128bbd
:020c9900128cbb
:020c9a00128eb8
:020c9b00128fb6
:020c9c001290b4
:020c9d001292b1
:020c9e001293af
:020c9f001294ad
:020ca0001295ab
:020ca1001297a8
:020ca2001298a6
:020ca3001299a4
:020ca400129ba1
:020ca500129c9f
:020ca600129d9d
:020ca700129e9b
:020ca80012a098
:020ca90012a196
:020caa0012a294
:020cab0012a491
:020cac0012a58f
:020cad0012a68d
:020cae0012a78b
:020caf0012a988
:020cb00012aa86
:020cb10012ab84
:020cb20012ac82
:020cb30012ae7f
:020cb40012af7d
:020cb50012b07b
:020cb60012b278
:020cb70012b376
:020cb80012b474
:020cb90012b572
:020cba0012b76f
:020cbb0012b86d
:020cbc0012b96b
:020cbd0012ba69
:020cbe0012bc66
:020cbf0012bd64
:020cc00012be62
:020cc10012c05f
:020cc20012c15d
:020cc30012c25b
:020cc40012c359
:020cc50012c556
:020cc60012c654
:020cc70012c752
:020cc80012c850
:020cc90012ca4d
:020cca0012cb4b
:020ccb0012cc49
:020ccc0012ce46
:020ccd0012cf44
:020cce0012d042
:020ccf0012d140
:020cd00012d33d
:020cd10012d43b
:020cd20012d539
:020cd30012d637
:020cd40012d834
:020cd50012d932
:020cd60012da30
:020cd70012dc2d
:020cd80012dd2b
:020cd90012de29
:020cda0012df27
:020cdb0012e124
:020cdc0012e222
:020cdd0012e320
:020cde0012e41e
:020cdf0012e61b
:020ce00012e719
:020ce10012e817
:020ce20012e915
:020ce30012eb12
:020ce40012ec10
:020ce50012ed0e
:020ce60012ef0b
:020ce70012f009
:020ce80012f107
:020ce90012f205
:020cea0012f402
:020ceb0012f500
:020cec0012f6fe
:020ced0012f7fc
:020cee0012f9f9
:020cef0012faf7
:020cf00012fbf5
:020cf10012fcf3
:020cf20012fef0
:020cf30012ffee
:020cf4001300eb
:020cf5001301e9
:020cf6001303e6
:020cf7001304e4
:020cf8001305e2
:020cf9001307df
:020cfa001308dd
:020cfb001309db
:020cfc00130ad9
:020cfd00130cd6
:020cfe00130dd4
:020cff00130ed2
:020d0000130fcf
:020d01001311cc
:020d02001312ca
:020d03001313c8
:020d04001314c6
:020d05001316c3
:020d06001317c1
:020d07001318bf
:020d08001319bd
:020d0900131bba
:020d0a00131cb8
:020d0b00131db6
:020d0c00131eb4
:020d0d001320b1
:020d0e001321af
:020d0f001322ad
:020d10001324aa
:020d11001325a8
:020d12001326a6
:020d13001327a4
:020d14001329a1
:020d1500132a9f
:020d1600132b9d
:020d1700132c9b
:020d1800132e98
:020d1900132f96
:020d1a00133094
:020d1b00133192
:020d1c0013338f
:020d1d0013348d
:020d1e0013358b
:020d1f00133689
:020d2000133886
:020d2100133984
:020d2200133a82
:020d2300133b80
:020d2400133d7d
:020d2500133e7b
:020d2600133f79
:020d2700134077
:020d2800134274
:020d2900134372
:020d2a00134470
:020d2b0013456e
:020d2c0013476b
:020d2d00134869
:020d2e00134967
:020d2f00134a65
:020d3000134c62
:020d3100134d60
:020d3200134e5e
:020d3300134f5c
:020d3400135159
:020d3500135257
:020d3600135355
:020d3700135453
:020d3800135650
:020d390013574e
:020d3a0013584c
:020d3b0013594a
:020d3c00135b47
:020d3d00135c45
:020d3e00135d43
:020d3f00135e41
:020d400013603e
:020d410013613c
:020d420013623a
:020d4300136338
:020d4400136535
:020d4500136633
:020d4600136731
:020d470013682f
:020d4800136a2c
:020d4900136b2a
:020d4a00136c28
:020d4b00136d26
:020d4c00136f23
:020d4d00137021
:020d4e0013711f
:020d4f0013721d
:020d500013741a
:020d5100137518
:020d5200137616
:020d5300137714
:020d5400137911
:020d5500137a0f
:020d5600137b0d
:020d5700137c0b
:020d5800137e08
:020d5900137f06
:020d5a00138004
:020d5b00138102
:020d5c001383ff
:020d5d001384fd
:020d5e001385fb
:020d5f001386f9
:020d60001388f6
:020d61001389f4
:020d6200138af2
:020d6300138bf0
:020d6400138ded
:020d6500138eeb
:020d6600138fe9
:020d67001390e7
:020d68001392e4
:020d69001393e2
:020d6a001394e0
:020d6b001395de
:020d6c001397db
:020d6d001398d9
:020d6e001399d7
:020d6f00139ad5
:020d7000139cd2
:020d7100139dd0
:020d7200139ece
:020d7300139fcc
:020d740013a0ca
:020d750013a2c7
:020d760013a3c5
:020d770013a4c3
:020d780013a5c1
:020d790013a7be
:020d7a0013a8bc
:020d7b0013a9ba
:020d7c0013aab8
:020d7d0013acb5
:020d7e0013adb3
:020d7f0013aeb1
:020d800013afaf
:020d810013b1ac
:020d820013b2aa
:020d830013b3a8
:020d840013b4a6
:020d850013b6a3
:020d860013b7a1
:020d870013b89f
:020d880013b99d
:020d890013ba9b
:020d8a0013bc98
:020d8b0013bd96
:020d8c0013be94
:020d8d0013bf92
:020d8e0013c18f
:020d8f0013c28d
:020d900013c38b
:020d910013c489
:020d920013c686
:020d930013c784
:020d940013c882
:020d950013c980
:020d960013cb7d
:020d970013cc7b
:020d980013cd79
:020d990013ce77
:020d9a0013cf75
:020d9b0013d172
:020d9c0013d270
:020d9d0013d36e
:020d9e0013d46c
:020d9f0013d669
:020da00013d767
:020da10013d865
:020da20013d963
:020da30013db60
:020da40013dc5e
:020da50013dd5c
:020da60013de5a
:020da70013e057
:020da80013e155
:020da90013e253
:020daa0013e351
:020dab0013e44f
:020dac0013e64c
:020dad0013e74a
:020dae0013e848
:020daf0013e946
:020db00013eb43
:020db10013ec41
:020db20013ed3f
:020db30013ee3d
:020db40013ef3b
:020db50013f138
:020db60013f236
:020db70013f334
:020db80013f432
:020db90013f62f
:020dba0013f72d
:020dbb0013f82b
:020dbc0013f929
:020dbd0013fb26
:020dbe0013fc24
:020dbf0013fd22
:020dc00013fe20
:020dc10013ff1e
:020dc20014011a
:020dc300140218
:020dc400140316
:020dc500140414
:020dc600140611
:020dc70014070f
:020dc80014080d
:020dc90014090b
:020dca00140a09
:020dcb00140c06
:020dcc00140d04
:020dcd00140e02
:020dce00140f00
:020dcf001411fd
:020dd0001412fb
:020dd1001413f9
:020dd2001414f7
:020dd3001415f5
:020dd4001417f2
:020dd5001418f0
:020dd6001419ee
:020dd700141aec
:020dd800141ce9
:020dd900141de7
:020dda00141ee5
:020ddb00141fe3
:020ddc001420e1
:020ddd001422de
:020dde001423dc
:020ddf001424da
:020de0001425d8
:020de1001427d5
:020de2001428d3
:020de3001429d1
:020de400142acf
:020de500142bcd
:020de600142dca
:020de700142ec8
:020de800142fc6
:020de9001430c4
:020dea001432c1
:020deb001433bf
:020dec001434bd
:020ded001435bb
:020dee001436b9
:020def001438b6
:020df0001439b4
:020df100143ab2
:020df200143bb0
:020df300143dad
:020df400143eab
:020df500143fa9
:020df6001440a7
:020df7001441a5
:020df8001443a2
:020df9001444a0
:020dfa0014459e
:020dfb0014469c
:020dfc0014479a
:020dfd00144997
:020dfe00144a95
:020dff00144b93
:020e0000144c90
:020e0100144e8d
:020e0200144f8b
:020e0300145089
:020e0400145187
:020e0500145285
:020e0600145482
:020e0700145580
:020e080014567e
:020e090014577c
:020e0a0014587a
:020e0b00145a77
:020e0c00145b75
:020e0d00145c73
:020e0e00145d71
:020e0f00145f6e
:020e100014606c
:020e110014616a
:020e1200146268
:020e1300146366
:020e1400146563
:020e1500146661
:020e160014675f
:020e170014685d
:020e180014695b
:020e1900146b58
:020e1a00146c56
:020e1b00146d54
:020e1c00146e52
:020e1d00146f50
:020e1e0014714d
:020e1f0014724b
:020e2000147349
:020e2100147447
:020e2200147545
:020e2300147742
:020e2400147840
:020e250014793e
:020e2600147a3c
:020e2700147c39
:020e2800147d37
:020e2900147e35
:020e2a00147f33
:020e2b00148031
:020e2c0014822e
:020e2d0014832c
:020e2e0014842a
:020e2f00148528
:020e3000148626
:020e3100148823
:020e3200148921
:020e3300148a1f
:020e3400148b1d
:020e3500148c1b
:020e3600148e18
:020e3700148f16
:020e3800149014
:020e3900149112
:020e3a00149210
:020e3b0014940d
:020e3c0014950b
:020e3d00149609
:020e3e00149707
:020e3f00149805
:020e4000149a02
:020e4100149b00
:020e4200149cfe
:020e4300149dfc
:020e4400149efa
:020e450014a0f7
:020e460014a1f5
:020e470014a2f3
:020e480014a3f1
:020e490014a4ef
:020e4a0014a6ec
:020e4b0014a7ea
:020e4c0014a8e8
:020e4d0014a9e6
:020e4e0014aae4
:020e4f0014ace1
:020e500014addf
:020e510014aedd
:020e520014afdb
:020e530014b0d9
:020e540014b2d6
:020e550014b3d4
:020e560014b4d2
:020e570014b5d0
:020e580014b6ce
:020e590014b8cb
:020e5a0014b9c9
:020e5b0014bac7
:020e5c0014bbc5
:020e5d0014bcc3
:020e5e0014bec0
:020e5f0014bfbe
:020e600014c0bc
:020e610014c1ba
:020e620014c2b8
:020e630014c4b5
:020e640014c5b3
:020e650014c6b1
:020e660014c7af
:020e670014c8ad
:020e680014caaa
:020e690014cba8
:020e6a0014cca6
:020e6b0014cda4
:020e6c0014cea2
:020e6d0014d09f
:020e6e0014d19d
:020e6f0014d29b
:020e700014d399
:020e710014d497
:020e720014d595
:020e730014d792
:020e740014d890
:020e750014d98e
:020e760014da8c
:020e770014db8a
:020e780014dd87
:020e790014de85
:020e7a0014df83
:020e7b0014e081
:020e7c0014e17f
:020e7d0014e37c
:020e7e0014e47a
:020e7f0014e578
:020e800014e676
:020e810014e774
:020e820014e971
:020e830014ea6f
:020e840014eb6d
:020e850014ec6b
:020e860014ed69
:020e870014ee67
:020e880014f064
:020e890014f162
:020e8a0014f260
:020e8b0014f35e
:020e8c0014f45c
:020e8d0014f659
:020e8e0014f757
:020e8f0014f855
:020e900014f953
:020e910014fa51
:020e920014fc4e
:020e930014fd4c
:020e940014fe4a
:020e950014ff48
:020e9600150045
:020e9700150143
:020e9800150340
:020e990015043e
:020e9a0015053c
:020e9b0015063a
:020e9c00150738
:020e9d00150935
:020e9e00150a33
:020e9f00150b31
:020ea000150c2f
:020ea100150d2d
:020ea200150e2b
:020ea300151028
:020ea400151126
:020ea500151224
:020ea600151322
:020ea700151420
:020ea80015161d
:020ea90015171b
:020eaa00151819
:020eab00151917
:020eac00151a15
:020ead00151b13
:020eae00151d10
:020eaf00151e0e
:020eb000151f0c
:020eb10015200a
:020eb200152108
:020eb300152305
:020eb400152403
:020eb500152501
:020eb6001526ff
:020eb7001527fd
:020eb8001528fb
:020eb900152af8
:020eba00152bf6
:020ebb00152cf4
:020ebc00152df2
:020ebd00152ef0
:020ebe00152fee
:020ebf001531eb
:020ec0001532e9
:020ec1001533e7
:020ec2001534e5
:020ec3001535e3
:020ec4001537e0
:020ec5001538de
:020ec6001539dc
:020ec700153ada
:020ec800153bd8
:020ec900153cd6
:020eca00153ed3
:020ecb00153fd1
:020ecc001540cf
:020ecd001541cd
:020ece001542cb
:020ecf001543c9
:020ed0001545c6
:020ed1001546c4
:020ed2001547c2
:020ed3001548c0
:020ed4001549be
:020ed500154bbb
:020ed600154cb9
:020ed700154db7
:020ed800154eb5
:020ed900154fb3
:020eda001550b1
:020edb001552ae
:020edc001553ac
:020edd001554aa
:020ede001555a8
:020edf001556a6
:020ee0001557a4
:020ee1001559a1
:020ee200155a9f
:020ee300155b9d
:020ee400155c9b
:020ee500155d99
:020ee600155e97
:020ee700156094
:020ee800156192
:020ee900156290
:020eea0015638e
:020eeb0015648c
:020eec0015658a
:020eed00156787
:020eee00156885
:020eef00156983
:020ef000156a81
:020ef100156b7f
:020ef200156c7d
:020ef300156e7a
:020ef400156f78
:020ef500157076
:020ef600157174
:020ef700157272
:020ef800157370
:020ef90015756d
:020efa0015766b
:020efb00157769
:020efc00157867
:020efd00157965
:020efe00157a63
:020eff00157c60
:020f0000157d5d
:020f0100157e5b
:020f0200157f59
:020f0300158057
:020f0400158155
:020f0500158352
:020f0600158450
:020f070015854e
:020f080015864c
:020f090015874a
:020f0a00158848
:020f0b00158a45
:020f0c00158b43
:020f0d00158c41
:020f0e00158d3f
:020f0f00158e3d
:020f1000158f3b
:020f1100159039
:020f1200159236
:020f1300159334
:020f1400159432
:020f1500159530
:020f160015962e
:020f170015972c
:020f1800159929
:020f1900159a27
:020f1a00159b25
:020f1b00159c23
:020f1c00159d21
:020f1d00159e1f
:020f1e0015a01c
:020f1f0015a11a
:020f200015a218
:020f210015a316
:020f220015a414
:020f230015a512
:020f240015a70f
:020f250015a80d
:020f260015a90b
:020f270015aa09
:020f280015ab07
:020f290015ac05
:020f2a0015ad03
:020f2b0015af00
:020f2c0015b0fe
:020f2d0015b1fc
:020f2e0015b2fa
:020f2f0015b3f8
:020f300015b4f6
:020f310015b6f3
:020f320015b7f1
:020f330015b8ef
:020f340015b9ed
:020f350015baeb
:020f360015bbe9
:020f370015bce7
:020f380015bee4
:020f390015bfe2
:020f3a0015c0e0
:020f3b0015c1de
:020f3c0015c2dc
:020f3d0015c3da
:020f3e0015c5d7
:020f3f0015c6d5
:020f400015c7d3
:020f410015c8d1
:020f420015c9cf
:020f430015cacd
:020f440015cbcb
:020f450015cdc8
:020f460015cec6
:020f470015cfc4
:020f480015d0c2
:020f490015d1c0
:020f4a0015d2be
:020f4b0015d3bc
:020f4c0015d5b9
:020f4d0015d6b7
:020f4e0015d7b5
:020f4f0015d8b3
:020f500015d9b1
:020f510015daaf
:020f520015dbad
:020f530015ddaa
:020f540015dea8
:020f550015dfa6
:020f560015e0a4
:020f570015e1a2
:020f580015e2a0
:020f590015e49d
:020f5a0015e59b
:020f5b0015e699
:020f5c0015e797
:020f5d0015e895
:020f5e0015e993
:020f5f0015ea91
:020f600015ec8e
:020f610015ed8c
:020f620015ee8a
:020f630015ef88
:020f640015f086
:020f650015f184
:020f660015f282
:020f670015f47f
:020f680015f57d
:020f690015f67b
:020f6a0015f779
:020f6b0015f877
:020f6c0015f975
:020f6d0015fa73
:020f6e0015fc70
:020f6f0015fd6e
:020f700015fe6c
:020f710015ff6a
:020f7200160067
:020f7300160165
:020f7400160263
:020f7500160460
:020f760016055e
:020f770016065c
:020f780016075a
:020f7900160858
:020f7a00160956
:020f7b00160a54
:020f7c00160b52
:020f7d00160d4f
:020f7e00160e4d
:020f7f00160f4b
:020f8000161049
:020f8100161147
:020f8200161245
:020f8300161343
:020f8400161540
:020f850016163e
:020f860016173c
:020f870016183a
:020f8800161938
:020f8900161a36
:020f8a00161b34
:020f8b00161d31
:020f8c00161e2f
:020f8d00161f2d
:020f8e0016202b
:020f8f00162129
:020f9000162227
:020f9100162325
:020f9200162423
:020f9300162620
:020f940016271e
:020f950016281c
:020f960016291a
:020f9700162a18
:020f9800162b16
:020f9900162c14
:020f9a00162e11
:020f9b00162f0f
:020f9c0016300d
:020f9d0016310b
:020f9e00163209
:020f9f00163307
